{
  "contractName": "Decentragram",
  "abi": [
    {
      "constant": true,
      "inputs": [],
      "name": "contractName",
      "outputs": [
        {
          "name": "",
          "type": "string"
        }
      ],
      "payable": false,
      "stateMutability": "view",
      "type": "function",
      "signature": "0x75d0c0dc"
    },
    {
      "constant": true,
      "inputs": [],
      "name": "_userID",
      "outputs": [
        {
          "name": "",
          "type": "uint256"
        }
      ],
      "payable": false,
      "stateMutability": "view",
      "type": "function",
      "signature": "0x8865fb75"
    },
    {
      "constant": true,
      "inputs": [
        {
          "name": "",
          "type": "address"
        }
      ],
      "name": "profiles",
      "outputs": [
        {
          "name": "owner",
          "type": "address"
        },
        {
          "name": "username",
          "type": "string"
        },
        {
          "name": "biography",
          "type": "string"
        },
        {
          "name": "profilePictureURL",
          "type": "string"
        },
        {
          "name": "timeCreated",
          "type": "uint256"
        },
        {
          "name": "id",
          "type": "uint256"
        },
        {
          "name": "postCount",
          "type": "uint256"
        },
        {
          "name": "followerCount",
          "type": "uint256"
        },
        {
          "name": "followingCount",
          "type": "uint256"
        }
      ],
      "payable": false,
      "stateMutability": "view",
      "type": "function",
      "signature": "0xbbe15627"
    },
    {
      "constant": true,
      "inputs": [],
      "name": "_postID",
      "outputs": [
        {
          "name": "",
          "type": "uint256"
        }
      ],
      "payable": false,
      "stateMutability": "view",
      "type": "function",
      "signature": "0xeea3ae91"
    },
    {
      "constant": true,
      "inputs": [],
      "name": "admin",
      "outputs": [
        {
          "name": "",
          "type": "address"
        }
      ],
      "payable": false,
      "stateMutability": "view",
      "type": "function",
      "signature": "0xf851a440"
    },
    {
      "inputs": [],
      "payable": false,
      "stateMutability": "nonpayable",
      "type": "constructor",
      "signature": "constructor"
    },
    {
      "constant": false,
      "inputs": [
        {
          "name": "_username",
          "type": "string"
        },
        {
          "name": "_biography",
          "type": "string"
        },
        {
          "name": "_profilePictureURL",
          "type": "string"
        }
      ],
      "name": "createAccount",
      "outputs": [],
      "payable": false,
      "stateMutability": "nonpayable",
      "type": "function",
      "signature": "0xbc53c0c4"
    },
    {
      "constant": false,
      "inputs": [
        {
          "name": "_address",
          "type": "address"
        }
      ],
      "name": "follow",
      "outputs": [],
      "payable": false,
      "stateMutability": "nonpayable",
      "type": "function",
      "signature": "0x4dbf27cc"
    },
    {
      "constant": false,
      "inputs": [
        {
          "name": "_address",
          "type": "address"
        }
      ],
      "name": "unfollow",
      "outputs": [],
      "payable": false,
      "stateMutability": "nonpayable",
      "type": "function",
      "signature": "0x015a4ead"
    },
    {
      "constant": false,
      "inputs": [
        {
          "name": "_postDescription",
          "type": "string"
        },
        {
          "name": "_postURL",
          "type": "string"
        },
        {
          "name": "_postType",
          "type": "string"
        }
      ],
      "name": "createPost",
      "outputs": [],
      "payable": false,
      "stateMutability": "nonpayable",
      "type": "function",
      "signature": "0xe8a4a1eb"
    },
    {
      "constant": false,
      "inputs": [
        {
          "name": "_postId",
          "type": "uint256"
        }
      ],
      "name": "likePost",
      "outputs": [],
      "payable": false,
      "stateMutability": "nonpayable",
      "type": "function",
      "signature": "0x725009d3"
    },
    {
      "constant": false,
      "inputs": [
        {
          "name": "_postId",
          "type": "uint256"
        }
      ],
      "name": "unlikePost",
      "outputs": [],
      "payable": false,
      "stateMutability": "nonpayable",
      "type": "function",
      "signature": "0xfa188de9"
    },
    {
      "constant": false,
      "inputs": [
        {
          "name": "_postId",
          "type": "uint256"
        }
      ],
      "name": "dislikePost",
      "outputs": [],
      "payable": false,
      "stateMutability": "nonpayable",
      "type": "function",
      "signature": "0x732fa7c7"
    },
    {
      "constant": false,
      "inputs": [
        {
          "name": "_postId",
          "type": "uint256"
        }
      ],
      "name": "undislikePost",
      "outputs": [],
      "payable": false,
      "stateMutability": "nonpayable",
      "type": "function",
      "signature": "0xe1354a9d"
    },
    {
      "constant": false,
      "inputs": [
        {
          "name": "_postId",
          "type": "uint256"
        }
      ],
      "name": "tipPost",
      "outputs": [],
      "payable": true,
      "stateMutability": "payable",
      "type": "function",
      "signature": "0x74d3c1f8"
    },
    {
      "constant": true,
      "inputs": [],
      "name": "getAllAppUser",
      "outputs": [
        {
          "components": [
            {
              "name": "owner",
              "type": "address"
            },
            {
              "name": "username",
              "type": "string"
            },
            {
              "name": "biography",
              "type": "string"
            },
            {
              "name": "profilePictureURL",
              "type": "string"
            },
            {
              "name": "timeCreated",
              "type": "uint256"
            },
            {
              "name": "id",
              "type": "uint256"
            },
            {
              "name": "postCount",
              "type": "uint256"
            },
            {
              "name": "followerCount",
              "type": "uint256"
            },
            {
              "name": "followingCount",
              "type": "uint256"
            }
          ],
          "name": "",
          "type": "tuple[]"
        }
      ],
      "payable": false,
      "stateMutability": "view",
      "type": "function",
      "signature": "0xa24d41de"
    },
    {
      "constant": true,
      "inputs": [
        {
          "name": "_address",
          "type": "address"
        }
      ],
      "name": "getPosts",
      "outputs": [
        {
          "components": [
            {
              "name": "postId",
              "type": "uint256"
            },
            {
              "name": "author",
              "type": "address"
            },
            {
              "name": "username",
              "type": "string"
            },
            {
              "name": "profilePictureURL",
              "type": "string"
            },
            {
              "name": "postType",
              "type": "string"
            },
            {
              "name": "postURL",
              "type": "string"
            },
            {
              "name": "postDescription",
              "type": "string"
            },
            {
              "name": "timeCreated",
              "type": "uint256"
            },
            {
              "name": "tipAmount",
              "type": "uint256"
            },
            {
              "name": "likes",
              "type": "uint256"
            },
            {
              "name": "dislikes",
              "type": "uint256"
            }
          ],
          "name": "",
          "type": "tuple[]"
        }
      ],
      "payable": false,
      "stateMutability": "view",
      "type": "function",
      "signature": "0x4caf9d0b"
    },
    {
      "constant": true,
      "inputs": [
        {
          "name": "_address",
          "type": "address"
        }
      ],
      "name": "getLikedPostIDs",
      "outputs": [
        {
          "name": "",
          "type": "uint256[]"
        }
      ],
      "payable": false,
      "stateMutability": "view",
      "type": "function",
      "signature": "0x3a8d9962"
    },
    {
      "constant": true,
      "inputs": [
        {
          "name": "_address",
          "type": "address"
        }
      ],
      "name": "getDislikedPostIDs",
      "outputs": [
        {
          "name": "",
          "type": "uint256[]"
        }
      ],
      "payable": false,
      "stateMutability": "view",
      "type": "function",
      "signature": "0x730f04ae"
    },
    {
      "constant": true,
      "inputs": [],
      "name": "getUserCount",
      "outputs": [
        {
          "name": "",
          "type": "uint256"
        }
      ],
      "payable": false,
      "stateMutability": "view",
      "type": "function",
      "signature": "0xb5cb15f7"
    },
    {
      "constant": true,
      "inputs": [],
      "name": "getAddresses",
      "outputs": [
        {
          "name": "",
          "type": "address[]"
        }
      ],
      "payable": false,
      "stateMutability": "view",
      "type": "function",
      "signature": "0xa39fac12"
    },
    {
      "constant": true,
      "inputs": [
        {
          "name": "_address",
          "type": "address"
        }
      ],
      "name": "getFollowers",
      "outputs": [
        {
          "name": "",
          "type": "address[]"
        }
      ],
      "payable": false,
      "stateMutability": "view",
      "type": "function",
      "signature": "0xc2fe2022"
    },
    {
      "constant": true,
      "inputs": [
        {
          "name": "_address",
          "type": "address"
        }
      ],
      "name": "getFollowing",
      "outputs": [
        {
          "name": "",
          "type": "address[]"
        }
      ],
      "payable": false,
      "stateMutability": "view",
      "type": "function",
      "signature": "0xd8236dff"
    },
    {
      "constant": true,
      "inputs": [],
      "name": "getAllPosts",
      "outputs": [
        {
          "components": [
            {
              "name": "postId",
              "type": "uint256"
            },
            {
              "name": "author",
              "type": "address"
            },
            {
              "name": "username",
              "type": "string"
            },
            {
              "name": "profilePictureURL",
              "type": "string"
            },
            {
              "name": "postType",
              "type": "string"
            },
            {
              "name": "postURL",
              "type": "string"
            },
            {
              "name": "postDescription",
              "type": "string"
            },
            {
              "name": "timeCreated",
              "type": "uint256"
            },
            {
              "name": "tipAmount",
              "type": "uint256"
            },
            {
              "name": "likes",
              "type": "uint256"
            },
            {
              "name": "dislikes",
              "type": "uint256"
            }
          ],
          "name": "",
          "type": "tuple[]"
        }
      ],
      "payable": false,
      "stateMutability": "view",
      "type": "function",
      "signature": "0x30561100"
    }
  ],
  "bytecode": "0x60806040523480156200001157600080fd5b506040805190810160405280600c81526020017f446563656e7472616772616d0000000000000000000000000000000000000000815250600090805190602001906200005f929190620000a7565b5033600160006101000a81548173ffffffffffffffffffffffffffffffffffffffff021916908373ffffffffffffffffffffffffffffffffffffffff16021790555062000156565b828054600181600116156101000203166002900490600052602060002090601f016020900481019282601f10620000ea57805160ff19168380011785556200011b565b828001600101855582156200011b579182015b828111156200011a578251825591602001919060010190620000fd565b5b5090506200012a91906200012e565b5090565b6200015391905b808211156200014f57600081600090555060010162000135565b5090565b90565b615f0180620001666000396000f3fe608060405260043610610133576000357c0100000000000000000000000000000000000000000000000000000000900463ffffffff168063015a4ead1461013857806330561100146101615780633a8d99621461018c5780634caf9d0b146101c95780634dbf27cc14610206578063725009d31461022f578063730f04ae14610258578063732fa7c71461029557806374d3c1f8146102be57806375d0c0dc146102da5780638865fb7514610305578063a24d41de14610330578063a39fac121461035b578063b5cb15f714610386578063bbe15627146103b1578063bc53c0c4146103f6578063c2fe20221461041f578063d8236dff1461045c578063e1354a9d14610499578063e8a4a1eb146104c2578063eea3ae91146104eb578063f851a44014610516578063fa188de914610541575b600080fd5b34801561014457600080fd5b5061015f600480360361015a91908101906154af565b61056a565b005b34801561016d57600080fd5b506101766111af565b6040516101839190615bf1565b60405180910390f35b34801561019857600080fd5b506101b360048036036101ae91908101906154af565b6117cf565b6040516101c09190615c13565b60405180910390f35b3480156101d557600080fd5b506101f060048036036101eb91908101906154af565b611866565b6040516101fd9190615bf1565b60405180910390f35b34801561021257600080fd5b5061022d600480360361022891908101906154af565b611d8e565b005b34801561023b57600080fd5b506102566004803603610251919081019061556f565b612703565b005b34801561026457600080fd5b5061027f600480360361027a91908101906154af565b612a44565b60405161028c9190615c13565b60405180910390f35b3480156102a157600080fd5b506102bc60048036036102b7919081019061556f565b612adb565b005b6102d860048036036102d3919081019061556f565b612e1c565b005b3480156102e657600080fd5b506102ef6131b0565b6040516102fc9190615c35565b60405180910390f35b34801561031157600080fd5b5061031a61324e565b6040516103279190615cf7565b60405180910390f35b34801561033c57600080fd5b50610345613254565b6040516103529190615bcf565b60405180910390f35b34801561036757600080fd5b50610370613523565b60405161037d9190615bad565b60405180910390f35b34801561039257600080fd5b5061039b6135b1565b6040516103a89190615cf7565b60405180910390f35b3480156103bd57600080fd5b506103d860048036036103d391908101906154af565b6135be565b6040516103ed99989796959493929190615b0b565b60405180910390f35b34801561040257600080fd5b5061041d600480360361041891908101906154d8565b6137f4565b005b34801561042b57600080fd5b50610446600480360361044191908101906154af565b613e62565b6040516104539190615bad565b60405180910390f35b34801561046857600080fd5b50610483600480360361047e91908101906154af565b614008565b6040516104909190615bad565b60405180910390f35b3480156104a557600080fd5b506104c060048036036104bb919081019061556f565b6140d8565b005b3480156104ce57600080fd5b506104e960048036036104e491908101906154d8565b6145c8565b005b3480156104f757600080fd5b50610500614b7f565b60405161050d9190615cf7565b60405180910390f35b34801561052257600080fd5b5061052b614b85565b6040516105389190615af0565b60405180910390f35b34801561054d57600080fd5b506105686004803603610563919081019061556f565b614bab565b005b600073ffffffffffffffffffffffffffffffffffffffff16600460003373ffffffffffffffffffffffffffffffffffffffff1673ffffffffffffffffffffffffffffffffffffffff16815260200190815260200160002060000160009054906101000a900473ffffffffffffffffffffffffffffffffffffffff1673ffffffffffffffffffffffffffffffffffffffff161415151561063e576040517f08c379a000000000000000000000000000000000000000000000000000000000815260040161063590615c77565b60405180910390fd5b80600073ffffffffffffffffffffffffffffffffffffffff16600460008373ffffffffffffffffffffffffffffffffffffffff1673ffffffffffffffffffffffffffffffffffffffff16815260200190815260200160002060000160009054906101000a900473ffffffffffffffffffffffffffffffffffffffff1673ffffffffffffffffffffffffffffffffffffffff1614151515610713576040517f08c379a000000000000000000000000000000000000000000000000000000000815260040161070a90615c97565b60405180910390fd5b818073ffffffffffffffffffffffffffffffffffffffff163373ffffffffffffffffffffffffffffffffffffffff1614151515610785576040517f08c379a000000000000000000000000000000000000000000000000000000000815260040161077c90615cd7565b60405180910390fd5b600560008473ffffffffffffffffffffffffffffffffffffffff1673ffffffffffffffffffffffffffffffffffffffff16815260200190815260200160002060003373ffffffffffffffffffffffffffffffffffffffff1673ffffffffffffffffffffffffffffffffffffffff168152602001908152602001600020600080820160006101000a81549073ffffffffffffffffffffffffffffffffffffffff0219169055600182016000610839919061509b565b600282016000610849919061509b565b600382016000610859919061509b565b6004820160009055600582016000905560068201600090556007820160009055600882016000905560098201600061089191906150e3565b600a820160006108a191906150e3565b5050600660003373ffffffffffffffffffffffffffffffffffffffff1673ffffffffffffffffffffffffffffffffffffffff16815260200190815260200160002060008473ffffffffffffffffffffffffffffffffffffffff1673ffffffffffffffffffffffffffffffffffffffff168152602001908152602001600020600080820160006101000a81549073ffffffffffffffffffffffffffffffffffffffff0219169055600182016000610957919061509b565b600282016000610967919061509b565b600382016000610977919061509b565b600482016000905560058201600090556006820160009055600782016000905560088201600090556009820160006109af91906150e3565b600a820160006109bf91906150e3565b505060008090505b600460008573ffffffffffffffffffffffffffffffffffffffff1673ffffffffffffffffffffffffffffffffffffffff16815260200190815260200160002060070154811015610cfe573373ffffffffffffffffffffffffffffffffffffffff16600460008673ffffffffffffffffffffffffffffffffffffffff1673ffffffffffffffffffffffffffffffffffffffff16815260200190815260200160002060090182815481101515610a7757fe5b9060005260206000200160009054906101000a900473ffffffffffffffffffffffffffffffffffffffff1673ffffffffffffffffffffffffffffffffffffffff161415610cf157600460008573ffffffffffffffffffffffffffffffffffffffff1673ffffffffffffffffffffffffffffffffffffffff1681526020019081526020016000206009016001600460008773ffffffffffffffffffffffffffffffffffffffff1673ffffffffffffffffffffffffffffffffffffffff1681526020019081526020016000206009018054905003815481101515610b5557fe5b9060005260206000200160009054906101000a900473ffffffffffffffffffffffffffffffffffffffff16600460008673ffffffffffffffffffffffffffffffffffffffff1673ffffffffffffffffffffffffffffffffffffffff16815260200190815260200160002060090182815481101515610bcf57fe5b9060005260206000200160006101000a81548173ffffffffffffffffffffffffffffffffffffffff021916908373ffffffffffffffffffffffffffffffffffffffff160217905550600460008573ffffffffffffffffffffffffffffffffffffffff1673ffffffffffffffffffffffffffffffffffffffff1681526020019081526020016000206009018054801515610c6457fe5b6001900381819060005260206000200160006101000a81549073ffffffffffffffffffffffffffffffffffffffff02191690559055600460008573ffffffffffffffffffffffffffffffffffffffff1673ffffffffffffffffffffffffffffffffffffffff1681526020019081526020016000206007016000815480929190600190039190505550610cfe565b80806001019150506109c7565b5060008090505b600460003373ffffffffffffffffffffffffffffffffffffffff1673ffffffffffffffffffffffffffffffffffffffff1681526020019081526020016000206008015481101561103c578373ffffffffffffffffffffffffffffffffffffffff16600460003373ffffffffffffffffffffffffffffffffffffffff1673ffffffffffffffffffffffffffffffffffffffff168152602001908152602001600020600a0182815481101515610db557fe5b9060005260206000200160009054906101000a900473ffffffffffffffffffffffffffffffffffffffff1673ffffffffffffffffffffffffffffffffffffffff16141561102f57600460003373ffffffffffffffffffffffffffffffffffffffff1673ffffffffffffffffffffffffffffffffffffffff168152602001908152602001600020600a016001600460003373ffffffffffffffffffffffffffffffffffffffff1673ffffffffffffffffffffffffffffffffffffffff168152602001908152602001600020600a018054905003815481101515610e9357fe5b9060005260206000200160009054906101000a900473ffffffffffffffffffffffffffffffffffffffff16600460003373ffffffffffffffffffffffffffffffffffffffff1673ffffffffffffffffffffffffffffffffffffffff168152602001908152602001600020600a0182815481101515610f0d57fe5b9060005260206000200160006101000a81548173ffffffffffffffffffffffffffffffffffffffff021916908373ffffffffffffffffffffffffffffffffffffffff160217905550600460003373ffffffffffffffffffffffffffffffffffffffff1673ffffffffffffffffffffffffffffffffffffffff168152602001908152602001600020600a018054801515610fa257fe5b6001900381819060005260206000200160006101000a81549073ffffffffffffffffffffffffffffffffffffffff02191690559055600460003373ffffffffffffffffffffffffffffffffffffffff1673ffffffffffffffffffffffffffffffffffffffff168152602001908152602001600020600801600081548092919060019003919050555061103c565b8080600101915050610d05565b5060008090505b600c805490508110156111a9578373ffffffffffffffffffffffffffffffffffffffff16600c8281548110151561107657fe5b906000526020600020906009020160000160009054906101000a900473ffffffffffffffffffffffffffffffffffffffff1673ffffffffffffffffffffffffffffffffffffffff1614156110f657600c818154811015156110d357fe5b906000526020600020906009020160070160008154809291906001900391905055505b3373ffffffffffffffffffffffffffffffffffffffff16600c8281548110151561111c57fe5b906000526020600020906009020160000160009054906101000a900473ffffffffffffffffffffffffffffffffffffffff1673ffffffffffffffffffffffffffffffffffffffff16141561119c57600c8181548110151561117957fe5b906000526020600020906009020160080160008154809291906001900391905055505b8080600101915050611043565b50505050565b6060600080905060008090505b60028054905081101561125657600760006002838154811015156111dc57fe5b9060005260206000200160009054906101000a900473ffffffffffffffffffffffffffffffffffffffff1673ffffffffffffffffffffffffffffffffffffffff1673ffffffffffffffffffffffffffffffffffffffff168152602001908152602001600020805490508201915080806001019150506111bc565b5060608160405190808252806020026020018201604052801561129357816020015b611280615104565b8152602001906001900390816112785790505b509050600080905060008090505b6002805490508110156117c55760008090505b600760006002848154811015156112c757fe5b9060005260206000200160009054906101000a900473ffffffffffffffffffffffffffffffffffffffff1673ffffffffffffffffffffffffffffffffffffffff1673ffffffffffffffffffffffffffffffffffffffff168152602001908152602001600020805490508110156117b7576007600060028481548110151561134a57fe5b9060005260206000200160009054906101000a900473ffffffffffffffffffffffffffffffffffffffff1673ffffffffffffffffffffffffffffffffffffffff1673ffffffffffffffffffffffffffffffffffffffff168152602001908152602001600020818154811015156113bc57fe5b90600052602060002090600b02016101606040519081016040529081600082015481526020016001820160009054906101000a900473ffffffffffffffffffffffffffffffffffffffff1673ffffffffffffffffffffffffffffffffffffffff1673ffffffffffffffffffffffffffffffffffffffff168152602001600282018054600181600116156101000203166002900480601f0160208091040260200160405190810160405280929190818152602001828054600181600116156101000203166002900480156114d05780601f106114a5576101008083540402835291602001916114d0565b820191906000526020600020905b8154815290600101906020018083116114b357829003601f168201915b50505050508152602001600382018054600181600116156101000203166002900480601f0160208091040260200160405190810160405280929190818152602001828054600181600116156101000203166002900480156115725780601f1061154757610100808354040283529160200191611572565b820191906000526020600020905b81548152906001019060200180831161155557829003601f168201915b50505050508152602001600482018054600181600116156101000203166002900480601f0160208091040260200160405190810160405280929190818152602001828054600181600116156101000203166002900480156116145780601f106115e957610100808354040283529160200191611614565b820191906000526020600020905b8154815290600101906020018083116115f757829003601f168201915b50505050508152602001600582018054600181600116156101000203166002900480601f0160208091040260200160405190810160405280929190818152602001828054600181600116156101000203166002900480156116b65780601f1061168b576101008083540402835291602001916116b6565b820191906000526020600020905b81548152906001019060200180831161169957829003601f168201915b50505050508152602001600682018054600181600116156101000203166002900480601f0160208091040260200160405190810160405280929190818152602001828054600181600116156101000203166002900480156117585780601f1061172d57610100808354040283529160200191611758565b820191906000526020600020905b81548152906001019060200180831161173b57829003601f168201915b50505050508152602001600782015481526020016008820154815260200160098201548152602001600a82015481525050848481518110151561179757fe5b9060200190602002018190525060018301925080806001019150506112b4565b5080806001019150506112a1565b5081935050505090565b6060600860008373ffffffffffffffffffffffffffffffffffffffff1673ffffffffffffffffffffffffffffffffffffffff16815260200190815260200160002080548060200260200160405190810160405280929190818152602001828054801561185a57602002820191906000526020600020905b815481526020019060010190808311611846575b50505050509050919050565b606081600073ffffffffffffffffffffffffffffffffffffffff16600460008373ffffffffffffffffffffffffffffffffffffffff1673ffffffffffffffffffffffffffffffffffffffff16815260200190815260200160002060000160009054906101000a900473ffffffffffffffffffffffffffffffffffffffff1673ffffffffffffffffffffffffffffffffffffffff161415151561193d576040517f08c379a000000000000000000000000000000000000000000000000000000000815260040161193490615c97565b60405180910390fd5b600760008473ffffffffffffffffffffffffffffffffffffffff1673ffffffffffffffffffffffffffffffffffffffff168152602001908152602001600020805480602002602001604051908101604052809291908181526020016000905b82821015611d8257838290600052602060002090600b02016101606040519081016040529081600082015481526020016001820160009054906101000a900473ffffffffffffffffffffffffffffffffffffffff1673ffffffffffffffffffffffffffffffffffffffff1673ffffffffffffffffffffffffffffffffffffffff168152602001600282018054600181600116156101000203166002900480601f016020809104026020016040519081016040528092919081815260200182805460018160011615610100020316600290048015611aba5780601f10611a8f57610100808354040283529160200191611aba565b820191906000526020600020905b815481529060010190602001808311611a9d57829003601f168201915b50505050508152602001600382018054600181600116156101000203166002900480601f016020809104026020016040519081016040528092919081815260200182805460018160011615610100020316600290048015611b5c5780601f10611b3157610100808354040283529160200191611b5c565b820191906000526020600020905b815481529060010190602001808311611b3f57829003601f168201915b50505050508152602001600482018054600181600116156101000203166002900480601f016020809104026020016040519081016040528092919081815260200182805460018160011615610100020316600290048015611bfe5780601f10611bd357610100808354040283529160200191611bfe565b820191906000526020600020905b815481529060010190602001808311611be157829003601f168201915b50505050508152602001600582018054600181600116156101000203166002900480601f016020809104026020016040519081016040528092919081815260200182805460018160011615610100020316600290048015611ca05780601f10611c7557610100808354040283529160200191611ca0565b820191906000526020600020905b815481529060010190602001808311611c8357829003601f168201915b50505050508152602001600682018054600181600116156101000203166002900480601f016020809104026020016040519081016040528092919081815260200182805460018160011615610100020316600290048015611d425780601f10611d1757610100808354040283529160200191611d42565b820191906000526020600020905b815481529060010190602001808311611d2557829003601f168201915b50505050508152602001600782015481526020016008820154815260200160098201548152602001600a820154815250508152602001906001019061199c565b50505050915050919050565b600073ffffffffffffffffffffffffffffffffffffffff16600460003373ffffffffffffffffffffffffffffffffffffffff1673ffffffffffffffffffffffffffffffffffffffff16815260200190815260200160002060000160009054906101000a900473ffffffffffffffffffffffffffffffffffffffff1673ffffffffffffffffffffffffffffffffffffffff1614151515611e62576040517f08c379a0000000000000000000000000000000000000000000000000000000008152600401611e5990615c77565b60405180910390fd5b80600073ffffffffffffffffffffffffffffffffffffffff16600460008373ffffffffffffffffffffffffffffffffffffffff1673ffffffffffffffffffffffffffffffffffffffff16815260200190815260200160002060000160009054906101000a900473ffffffffffffffffffffffffffffffffffffffff1673ffffffffffffffffffffffffffffffffffffffff1614151515611f37576040517f08c379a0000000000000000000000000000000000000000000000000000000008152600401611f2e90615c97565b60405180910390fd5b818073ffffffffffffffffffffffffffffffffffffffff163373ffffffffffffffffffffffffffffffffffffffff1614151515611fa9576040517f08c379a0000000000000000000000000000000000000000000000000000000008152600401611fa090615cd7565b60405180910390fd5b600460003373ffffffffffffffffffffffffffffffffffffffff1673ffffffffffffffffffffffffffffffffffffffff168152602001908152602001600020600560008573ffffffffffffffffffffffffffffffffffffffff1673ffffffffffffffffffffffffffffffffffffffff16815260200190815260200160002060003373ffffffffffffffffffffffffffffffffffffffff1673ffffffffffffffffffffffffffffffffffffffff1681526020019081526020016000206000820160009054906101000a900473ffffffffffffffffffffffffffffffffffffffff168160000160006101000a81548173ffffffffffffffffffffffffffffffffffffffff021916908373ffffffffffffffffffffffffffffffffffffffff160217905550600182018160010190805460018160011615610100020316600290046120f2929190615175565b506002820181600201908054600181600116156101000203166002900461211a929190615175565b5060038201816003019080546001816001161561010002031660029004612142929190615175565b506004820154816004015560058201548160050155600682015481600601556007820154816007015560088201548160080155600982018160090190805461218b9291906151fc565b50600a820181600a019080546121a29291906151fc565b50905050600460008473ffffffffffffffffffffffffffffffffffffffff1673ffffffffffffffffffffffffffffffffffffffff168152602001908152602001600020600660003373ffffffffffffffffffffffffffffffffffffffff1673ffffffffffffffffffffffffffffffffffffffff16815260200190815260200160002060008573ffffffffffffffffffffffffffffffffffffffff1673ffffffffffffffffffffffffffffffffffffffff1681526020019081526020016000206000820160009054906101000a900473ffffffffffffffffffffffffffffffffffffffff168160000160006101000a81548173ffffffffffffffffffffffffffffffffffffffff021916908373ffffffffffffffffffffffffffffffffffffffff160217905550600182018160010190805460018160011615610100020316600290046122ef929190615175565b5060028201816002019080546001816001161561010002031660029004612317929190615175565b506003820181600301908054600181600116156101000203166002900461233f929190615175565b50600482015481600401556005820154816005015560068201548160060155600782015481600701556008820154816008015560098201816009019080546123889291906151fc565b50600a820181600a0190805461239f9291906151fc565b50905050600460008473ffffffffffffffffffffffffffffffffffffffff1673ffffffffffffffffffffffffffffffffffffffff1681526020019081526020016000206009013390806001815401808255809150509060018203906000526020600020016000909192909190916101000a81548173ffffffffffffffffffffffffffffffffffffffff021916908373ffffffffffffffffffffffffffffffffffffffff16021790555050600460003373ffffffffffffffffffffffffffffffffffffffff1673ffffffffffffffffffffffffffffffffffffffff168152602001908152602001600020600a018390806001815401808255809150509060018203906000526020600020016000909192909190916101000a81548173ffffffffffffffffffffffffffffffffffffffff021916908373ffffffffffffffffffffffffffffffffffffffff16021790555050600460008473ffffffffffffffffffffffffffffffffffffffff1673ffffffffffffffffffffffffffffffffffffffff16815260200190815260200160002060070160008154809291906001019190505550600460003373ffffffffffffffffffffffffffffffffffffffff1673ffffffffffffffffffffffffffffffffffffffff1681526020019081526020016000206008016000815480929190600101919050555060008090505b600c805490508110156126fd578373ffffffffffffffffffffffffffffffffffffffff16600c828154811015156125cc57fe5b906000526020600020906009020160000160009054906101000a900473ffffffffffffffffffffffffffffffffffffffff1673ffffffffffffffffffffffffffffffffffffffff16141561264b57600c8181548110151561262957fe5b9060005260206000209060090201600701600081548092919060010191905055505b3373ffffffffffffffffffffffffffffffffffffffff16600c8281548110151561267157fe5b906000526020600020906009020160000160009054906101000a900473ffffffffffffffffffffffffffffffffffffffff1673ffffffffffffffffffffffffffffffffffffffff1614156126f057600c818154811015156126ce57fe5b9060005260206000209060090201600801600081548092919060010191905055505b8080600101915050612599565b50505050565b600073ffffffffffffffffffffffffffffffffffffffff16600460003373ffffffffffffffffffffffffffffffffffffffff1673ffffffffffffffffffffffffffffffffffffffff16815260200190815260200160002060000160009054906101000a900473ffffffffffffffffffffffffffffffffffffffff1673ffffffffffffffffffffffffffffffffffffffff16141515156127d7576040517f08c379a00000000000000000000000000000000000000000000000000000000081526004016127ce90615c77565b60405180910390fd5b60008090505b600280549050811015612a405760008090505b6007600060028481548110151561280357fe5b9060005260206000200160009054906101000a900473ffffffffffffffffffffffffffffffffffffffff1673ffffffffffffffffffffffffffffffffffffffff1673ffffffffffffffffffffffffffffffffffffffff16815260200190815260200160002080549050811015612a3257826007600060028581548110151561288757fe5b9060005260206000200160009054906101000a900473ffffffffffffffffffffffffffffffffffffffff1673ffffffffffffffffffffffffffffffffffffffff1673ffffffffffffffffffffffffffffffffffffffff168152602001908152602001600020828154811015156128f957fe5b90600052602060002090600b0201600001541415612a25576007600060028481548110151561292457fe5b9060005260206000200160009054906101000a900473ffffffffffffffffffffffffffffffffffffffff1673ffffffffffffffffffffffffffffffffffffffff1673ffffffffffffffffffffffffffffffffffffffff1681526020019081526020016000208181548110151561299657fe5b90600052602060002090600b020160090160008154809291906001019190505550600860003373ffffffffffffffffffffffffffffffffffffffff1673ffffffffffffffffffffffffffffffffffffffff168152602001908152602001600020839080600181540180825580915050906001820390600052602060002001600090919290919091505550612a32565b80806001019150506127f0565b5080806001019150506127dd565b5050565b6060600960008373ffffffffffffffffffffffffffffffffffffffff1673ffffffffffffffffffffffffffffffffffffffff168152602001908152602001600020805480602002602001604051908101604052809291908181526020018280548015612acf57602002820191906000526020600020905b815481526020019060010190808311612abb575b50505050509050919050565b600073ffffffffffffffffffffffffffffffffffffffff16600460003373ffffffffffffffffffffffffffffffffffffffff1673ffffffffffffffffffffffffffffffffffffffff16815260200190815260200160002060000160009054906101000a900473ffffffffffffffffffffffffffffffffffffffff1673ffffffffffffffffffffffffffffffffffffffff1614151515612baf576040517f08c379a0000000000000000000000000000000000000000000000000000000008152600401612ba690615c77565b60405180910390fd5b60008090505b600280549050811015612e185760008090505b60076000600284815481101515612bdb57fe5b9060005260206000200160009054906101000a900473ffffffffffffffffffffffffffffffffffffffff1673ffffffffffffffffffffffffffffffffffffffff1673ffffffffffffffffffffffffffffffffffffffff16815260200190815260200160002080549050811015612e0a578260076000600285815481101515612c5f57fe5b9060005260206000200160009054906101000a900473ffffffffffffffffffffffffffffffffffffffff1673ffffffffffffffffffffffffffffffffffffffff1673ffffffffffffffffffffffffffffffffffffffff16815260200190815260200160002082815481101515612cd157fe5b90600052602060002090600b0201600001541415612dfd5760076000600284815481101515612cfc57fe5b9060005260206000200160009054906101000a900473ffffffffffffffffffffffffffffffffffffffff1673ffffffffffffffffffffffffffffffffffffffff1673ffffffffffffffffffffffffffffffffffffffff16815260200190815260200160002081815481101515612d6e57fe5b90600052602060002090600b0201600a0160008154809291906001019190505550600960003373ffffffffffffffffffffffffffffffffffffffff1673ffffffffffffffffffffffffffffffffffffffff168152602001908152602001600020839080600181540180825580915050906001820390600052602060002001600090919290919091505550612e0a565b8080600101915050612bc8565b508080600101915050612bb5565b5050565b60008090505b6002805490508110156131ac5760008090505b60076000600284815481101515612e4857fe5b9060005260206000200160009054906101000a900473ffffffffffffffffffffffffffffffffffffffff1673ffffffffffffffffffffffffffffffffffffffff1673ffffffffffffffffffffffffffffffffffffffff1681526020019081526020016000208054905081101561319e578260076000600285815481101515612ecc57fe5b9060005260206000200160009054906101000a900473ffffffffffffffffffffffffffffffffffffffff1673ffffffffffffffffffffffffffffffffffffffff1673ffffffffffffffffffffffffffffffffffffffff16815260200190815260200160002082815481101515612f3e57fe5b90600052602060002090600b020160000154141561319157600060076000600285815481101515612f6b57fe5b9060005260206000200160009054906101000a900473ffffffffffffffffffffffffffffffffffffffff1673ffffffffffffffffffffffffffffffffffffffff1673ffffffffffffffffffffffffffffffffffffffff16815260200190815260200160002082815481101515612fdd57fe5b90600052602060002090600b020160010160009054906101000a900473ffffffffffffffffffffffffffffffffffffffff1690508073ffffffffffffffffffffffffffffffffffffffff166108fc349081150290604051600060405180830381858888f19350505050158015613057573d6000803e3d6000fd5b50346007600060028681548110151561306c57fe5b9060005260206000200160009054906101000a900473ffffffffffffffffffffffffffffffffffffffff1673ffffffffffffffffffffffffffffffffffffffff1673ffffffffffffffffffffffffffffffffffffffff168152602001908152602001600020838154811015156130de57fe5b90600052602060002090600b020160080154016007600060028681548110151561310457fe5b9060005260206000200160009054906101000a900473ffffffffffffffffffffffffffffffffffffffff1673ffffffffffffffffffffffffffffffffffffffff1673ffffffffffffffffffffffffffffffffffffffff1681526020019081526020016000208381548110151561317657fe5b90600052602060002090600b0201600801819055505061319e565b8080600101915050612e35565b508080600101915050612e22565b5050565b60008054600181600116156101000203166002900480601f0160208091040260200160405190810160405280929190818152602001828054600181600116156101000203166002900480156132465780601f1061321b57610100808354040283529160200191613246565b820191906000526020600020905b81548152906001019060200180831161322957829003601f168201915b505050505081565b600b5481565b6060600c805480602002602001604051908101604052809291908181526020016000905b8282101561351a578382906000526020600020906009020161012060405190810160405290816000820160009054906101000a900473ffffffffffffffffffffffffffffffffffffffff1673ffffffffffffffffffffffffffffffffffffffff1673ffffffffffffffffffffffffffffffffffffffff168152602001600182018054600181600116156101000203166002900480601f01602080910402602001604051908101604052809291908181526020018280546001816001161561010002031660029004801561338c5780601f106133615761010080835404028352916020019161338c565b820191906000526020600020905b81548152906001019060200180831161336f57829003601f168201915b50505050508152602001600282018054600181600116156101000203166002900480601f01602080910402602001604051908101604052809291908181526020018280546001816001161561010002031660029004801561342e5780601f106134035761010080835404028352916020019161342e565b820191906000526020600020905b81548152906001019060200180831161341157829003601f168201915b50505050508152602001600382018054600181600116156101000203166002900480601f0160208091040260200160405190810160405280929190818152602001828054600181600116156101000203166002900480156134d05780601f106134a5576101008083540402835291602001916134d0565b820191906000526020600020905b8154815290600101906020018083116134b357829003601f168201915b505050505081526020016004820154815260200160058201548152602001600682015481526020016007820154815260200160088201548152505081526020019060010190613278565b50505050905090565b606060028054806020026020016040519081016040528092919081815260200182805480156135a757602002820191906000526020600020905b8160009054906101000a900473ffffffffffffffffffffffffffffffffffffffff1673ffffffffffffffffffffffffffffffffffffffff168152602001906001019080831161355d575b5050505050905090565b6000600280549050905090565b60046020528060005260406000206000915090508060000160009054906101000a900473ffffffffffffffffffffffffffffffffffffffff1690806001018054600181600116156101000203166002900480601f0160208091040260200160405190810160405280929190818152602001828054600181600116156101000203166002900480156136905780601f1061366557610100808354040283529160200191613690565b820191906000526020600020905b81548152906001019060200180831161367357829003601f168201915b505050505090806002018054600181600116156101000203166002900480601f01602080910402602001604051908101604052809291908181526020018280546001816001161561010002031660029004801561372e5780601f106137035761010080835404028352916020019161372e565b820191906000526020600020905b81548152906001019060200180831161371157829003601f168201915b505050505090806003018054600181600116156101000203166002900480601f0160208091040260200160405190810160405280929190818152602001828054600181600116156101000203166002900480156137cc5780601f106137a1576101008083540402835291602001916137cc565b820191906000526020600020905b8154815290600101906020018083116137af57829003601f168201915b5050505050908060040154908060050154908060060154908060070154908060080154905089565b600073ffffffffffffffffffffffffffffffffffffffff16600460003373ffffffffffffffffffffffffffffffffffffffff1673ffffffffffffffffffffffffffffffffffffffff16815260200190815260200160002060000160009054906101000a900473ffffffffffffffffffffffffffffffffffffffff1673ffffffffffffffffffffffffffffffffffffffff161415156138c7576040517f08c379a00000000000000000000000000000000000000000000000000000000081526004016138be90615c57565b60405180910390fd5b600073ffffffffffffffffffffffffffffffffffffffff166003846040518082805190602001908083835b60208310151561391757805182526020820191506020810190506020830392506138f2565b6001836020036101000a038019825116818451168082178552505050505050905001915050908152602001604051809103902060009054906101000a900473ffffffffffffffffffffffffffffffffffffffff1673ffffffffffffffffffffffffffffffffffffffff161415156139c3576040517f08c379a00000000000000000000000000000000000000000000000000000000081526004016139ba90615cb7565b60405180910390fd5b600b600081548092919060010191905055506000600b549050336003856040518082805190602001908083835b602083101515613a1557805182526020820191506020810190506020830392506139f0565b6001836020036101000a038019825116818451168082178552505050505050905001915050908152602001604051809103902060006101000a81548173ffffffffffffffffffffffffffffffffffffffff021916908373ffffffffffffffffffffffffffffffffffffffff160217905550610160604051908101604052803373ffffffffffffffffffffffffffffffffffffffff1681526020018581526020018481526020018381526020014281526020018281526020016000815260200160008152602001600081526020016000604051908082528060200260200182016040528015613b125781602001602082028038833980820191505090505b5081526020016000604051908082528060200260200182016040528015613b485781602001602082028038833980820191505090505b50815250600460003373ffffffffffffffffffffffffffffffffffffffff1673ffffffffffffffffffffffffffffffffffffffff16815260200190815260200160002060008201518160000160006101000a81548173ffffffffffffffffffffffffffffffffffffffff021916908373ffffffffffffffffffffffffffffffffffffffff1602179055506020820151816001019080519060200190613bee92919061524e565b506040820151816002019080519060200190613c0b92919061524e565b506060820151816003019080519060200190613c2892919061524e565b506080820151816004015560a0820151816005015560c0820151816006015560e082015181600701556101008201518160080155610120820151816009019080519060200190613c799291906152ce565b5061014082015181600a019080519060200190613c979291906152ce565b5090505060023390806001815401808255809150509060018203906000526020600020016000909192909190916101000a81548173ffffffffffffffffffffffffffffffffffffffff021916908373ffffffffffffffffffffffffffffffffffffffff16021790555050600c610120604051908101604052803373ffffffffffffffffffffffffffffffffffffffff168152602001868152602001858152602001848152602001428152602001838152602001600081526020016000815260200160008152509080600181540180825580915050906001820390600052602060002090600902016000909192909190915060008201518160000160006101000a81548173ffffffffffffffffffffffffffffffffffffffff021916908373ffffffffffffffffffffffffffffffffffffffff1602179055506020820151816001019080519060200190613deb92919061524e565b506040820151816002019080519060200190613e0892919061524e565b506060820151816003019080519060200190613e2592919061524e565b506080820151816004015560a0820151816005015560c0820151816006015560e08201518160070155610100820151816008015550505050505050565b606081600073ffffffffffffffffffffffffffffffffffffffff16600460008373ffffffffffffffffffffffffffffffffffffffff1673ffffffffffffffffffffffffffffffffffffffff16815260200190815260200160002060000160009054906101000a900473ffffffffffffffffffffffffffffffffffffffff1673ffffffffffffffffffffffffffffffffffffffff1614151515613f39576040517f08c379a0000000000000000000000000000000000000000000000000000000008152600401613f3090615c97565b60405180910390fd5b600460008473ffffffffffffffffffffffffffffffffffffffff1673ffffffffffffffffffffffffffffffffffffffff168152602001908152602001600020600901805480602002602001604051908101604052809291908181526020018280548015613ffb57602002820191906000526020600020905b8160009054906101000a900473ffffffffffffffffffffffffffffffffffffffff1673ffffffffffffffffffffffffffffffffffffffff1681526020019060010190808311613fb1575b5050505050915050919050565b6060600460008373ffffffffffffffffffffffffffffffffffffffff1673ffffffffffffffffffffffffffffffffffffffff168152602001908152602001600020600a018054806020026020016040519081016040528092919081815260200182805480156140cc57602002820191906000526020600020905b8160009054906101000a900473ffffffffffffffffffffffffffffffffffffffff1673ffffffffffffffffffffffffffffffffffffffff1681526020019060010190808311614082575b50505050509050919050565b600073ffffffffffffffffffffffffffffffffffffffff16600460003373ffffffffffffffffffffffffffffffffffffffff1673ffffffffffffffffffffffffffffffffffffffff16815260200190815260200160002060000160009054906101000a900473ffffffffffffffffffffffffffffffffffffffff1673ffffffffffffffffffffffffffffffffffffffff16141515156141ac576040517f08c379a00000000000000000000000000000000000000000000000000000000081526004016141a390615c77565b60405180910390fd5b60008090505b6002805490508110156143ad5760008090505b600760006002848154811015156141d857fe5b9060005260206000200160009054906101000a900473ffffffffffffffffffffffffffffffffffffffff1673ffffffffffffffffffffffffffffffffffffffff1673ffffffffffffffffffffffffffffffffffffffff1681526020019081526020016000208054905081101561439f57826007600060028581548110151561425c57fe5b9060005260206000200160009054906101000a900473ffffffffffffffffffffffffffffffffffffffff1673ffffffffffffffffffffffffffffffffffffffff1673ffffffffffffffffffffffffffffffffffffffff168152602001908152602001600020828154811015156142ce57fe5b90600052602060002090600b020160000154141561439257600760006002848154811015156142f957fe5b9060005260206000200160009054906101000a900473ffffffffffffffffffffffffffffffffffffffff1673ffffffffffffffffffffffffffffffffffffffff1673ffffffffffffffffffffffffffffffffffffffff1681526020019081526020016000208181548110151561436b57fe5b90600052602060002090600b0201600a01600081548092919060019003919050555061439f565b80806001019150506141c5565b5080806001019150506141b2565b5060008090505b600960003373ffffffffffffffffffffffffffffffffffffffff1673ffffffffffffffffffffffffffffffffffffffff168152602001908152602001600020805490508110156145c457600960003373ffffffffffffffffffffffffffffffffffffffff1673ffffffffffffffffffffffffffffffffffffffff1681526020019081526020016000208181548110151561444a57fe5b90600052602060002001548214156145b757600960003373ffffffffffffffffffffffffffffffffffffffff1673ffffffffffffffffffffffffffffffffffffffff1681526020019081526020016000206001600960003373ffffffffffffffffffffffffffffffffffffffff1673ffffffffffffffffffffffffffffffffffffffff16815260200190815260200160002080549050038154811015156144ed57fe5b9060005260206000200154600960003373ffffffffffffffffffffffffffffffffffffffff1673ffffffffffffffffffffffffffffffffffffffff1681526020019081526020016000208281548110151561454457fe5b9060005260206000200181905550600960003373ffffffffffffffffffffffffffffffffffffffff1673ffffffffffffffffffffffffffffffffffffffff168152602001908152602001600020805480151561459c57fe5b600190038181906000526020600020016000905590556145c4565b80806001019150506143b4565b5050565b600073ffffffffffffffffffffffffffffffffffffffff16600460003373ffffffffffffffffffffffffffffffffffffffff1673ffffffffffffffffffffffffffffffffffffffff16815260200190815260200160002060000160009054906101000a900473ffffffffffffffffffffffffffffffffffffffff1673ffffffffffffffffffffffffffffffffffffffff161415151561469c576040517f08c379a000000000000000000000000000000000000000000000000000000000815260040161469390615c77565b60405180910390fd5b600a600081548092919060010191905055506000600a5490506146bd615358565b610160604051908101604052808381526020013373ffffffffffffffffffffffffffffffffffffffff168152602001600460003373ffffffffffffffffffffffffffffffffffffffff1673ffffffffffffffffffffffffffffffffffffffff1681526020019081526020016000206001018054600181600116156101000203166002900480601f0160208091040260200160405190810160405280929190818152602001828054600181600116156101000203166002900480156147c25780601f10614797576101008083540402835291602001916147c2565b820191906000526020600020905b8154815290600101906020018083116147a557829003601f168201915b50505050508152602001600460003373ffffffffffffffffffffffffffffffffffffffff1673ffffffffffffffffffffffffffffffffffffffff1681526020019081526020016000206003018054600181600116156101000203166002900480601f0160208091040260200160405190810160405280929190818152602001828054600181600116156101000203166002900480156148a25780601f10614877576101008083540402835291602001916148a2565b820191906000526020600020905b81548152906001019060200180831161488557829003601f168201915b5050505050815260200184815260200185815260200186815260200142815260200160008152602001600081526020016000815250905060076000826020015173ffffffffffffffffffffffffffffffffffffffff1673ffffffffffffffffffffffffffffffffffffffff168152602001908152602001600020819080600181540180825580915050906001820390600052602060002090600b0201600090919290919091506000820151816000015560208201518160010160006101000a81548173ffffffffffffffffffffffffffffffffffffffff021916908373ffffffffffffffffffffffffffffffffffffffff16021790555060408201518160020190805190602001906149b592919061524e565b5060608201518160030190805190602001906149d292919061524e565b5060808201518160040190805190602001906149ef92919061524e565b5060a0820151816005019080519060200190614a0c92919061524e565b5060c0820151816006019080519060200190614a2992919061524e565b5060e082015181600701556101008201518160080155610120820151816009015561014082015181600a015550505060046000826020015173ffffffffffffffffffffffffffffffffffffffff1673ffffffffffffffffffffffffffffffffffffffff1681526020019081526020016000206006016000815480929190600101919050555060008090505b600c80549050811015614b7757816020015173ffffffffffffffffffffffffffffffffffffffff16600c82815481101515614aeb57fe5b906000526020600020906009020160000160009054906101000a900473ffffffffffffffffffffffffffffffffffffffff1673ffffffffffffffffffffffffffffffffffffffff161415614b6a57600c81815481101515614b4857fe5b9060005260206000209060090201600601600081548092919060010191905055505b8080600101915050614ab4565b505050505050565b600a5481565b600160009054906101000a900473ffffffffffffffffffffffffffffffffffffffff1681565b600073ffffffffffffffffffffffffffffffffffffffff16600460003373ffffffffffffffffffffffffffffffffffffffff1673ffffffffffffffffffffffffffffffffffffffff16815260200190815260200160002060000160009054906101000a900473ffffffffffffffffffffffffffffffffffffffff1673ffffffffffffffffffffffffffffffffffffffff1614151515614c7f576040517f08c379a0000000000000000000000000000000000000000000000000000000008152600401614c7690615c77565b60405180910390fd5b60008090505b600280549050811015614e805760008090505b60076000600284815481101515614cab57fe5b9060005260206000200160009054906101000a900473ffffffffffffffffffffffffffffffffffffffff1673ffffffffffffffffffffffffffffffffffffffff1673ffffffffffffffffffffffffffffffffffffffff16815260200190815260200160002080549050811015614e72578260076000600285815481101515614d2f57fe5b9060005260206000200160009054906101000a900473ffffffffffffffffffffffffffffffffffffffff1673ffffffffffffffffffffffffffffffffffffffff1673ffffffffffffffffffffffffffffffffffffffff16815260200190815260200160002082815481101515614da157fe5b90600052602060002090600b0201600001541415614e655760076000600284815481101515614dcc57fe5b9060005260206000200160009054906101000a900473ffffffffffffffffffffffffffffffffffffffff1673ffffffffffffffffffffffffffffffffffffffff1673ffffffffffffffffffffffffffffffffffffffff16815260200190815260200160002081815481101515614e3e57fe5b90600052602060002090600b02016009016000815480929190600190039190505550614e72565b8080600101915050614c98565b508080600101915050614c85565b5060008090505b600860003373ffffffffffffffffffffffffffffffffffffffff1673ffffffffffffffffffffffffffffffffffffffff1681526020019081526020016000208054905081101561509757600860003373ffffffffffffffffffffffffffffffffffffffff1673ffffffffffffffffffffffffffffffffffffffff16815260200190815260200160002081815481101515614f1d57fe5b906000526020600020015482141561508a57600860003373ffffffffffffffffffffffffffffffffffffffff1673ffffffffffffffffffffffffffffffffffffffff1681526020019081526020016000206001600860003373ffffffffffffffffffffffffffffffffffffffff1673ffffffffffffffffffffffffffffffffffffffff1681526020019081526020016000208054905003815481101515614fc057fe5b9060005260206000200154600860003373ffffffffffffffffffffffffffffffffffffffff1673ffffffffffffffffffffffffffffffffffffffff1681526020019081526020016000208281548110151561501757fe5b9060005260206000200181905550600860003373ffffffffffffffffffffffffffffffffffffffff1673ffffffffffffffffffffffffffffffffffffffff168152602001908152602001600020805480151561506f57fe5b60019003818190600052602060002001600090559055615097565b8080600101915050614e87565b5050565b50805460018160011615610100020316600290046000825580601f106150c157506150e0565b601f0160209004906000526020600020908101906150df91906153c9565b5b50565b508054600082559060005260206000209081019061510191906153c9565b50565b6101606040519081016040528060008152602001600073ffffffffffffffffffffffffffffffffffffffff1681526020016060815260200160608152602001606081526020016060815260200160608152602001600081526020016000815260200160008152602001600081525090565b828054600181600116156101000203166002900490600052602060002090601f016020900481019282601f106151ae57805485556151eb565b828001600101855582156151eb57600052602060002091601f016020900482015b828111156151ea5782548255916001019190600101906151cf565b5b5090506151f891906153c9565b5090565b82805482825590600052602060002090810192821561523d5760005260206000209182015b8281111561523c578254825591600101919060010190615221565b5b50905061524a91906153ee565b5090565b828054600181600116156101000203166002900490600052602060002090601f016020900481019282601f1061528f57805160ff19168380011785556152bd565b828001600101855582156152bd579182015b828111156152bc5782518255916020019190600101906152a1565b5b5090506152ca91906153c9565b5090565b828054828255906000526020600020908101928215615347579160200282015b828111156153465782518260006101000a81548173ffffffffffffffffffffffffffffffffffffffff021916908373ffffffffffffffffffffffffffffffffffffffff160217905550916020019190600101906152ee565b5b50905061535491906153ee565b5090565b6101606040519081016040528060008152602001600073ffffffffffffffffffffffffffffffffffffffff1681526020016060815260200160608152602001606081526020016060815260200160608152602001600081526020016000815260200160008152602001600081525090565b6153eb91905b808211156153e75760008160009055506001016153cf565b5090565b90565b61542e91905b8082111561542a57600081816101000a81549073ffffffffffffffffffffffffffffffffffffffff0219169055506001016153f4565b5090565b90565b600061543d8235615e58565b905092915050565b600082601f830112151561545857600080fd5b813561546b61546682615d3f565b615d12565b9150808252602083016020830185838301111561548757600080fd5b615492838284615e74565b50505092915050565b60006154a78235615e6a565b905092915050565b6000602082840312156154c157600080fd5b60006154cf84828501615431565b91505092915050565b6000806000606084860312156154ed57600080fd5b600084013567ffffffffffffffff81111561550757600080fd5b61551386828701615445565b935050602084013567ffffffffffffffff81111561553057600080fd5b61553c86828701615445565b925050604084013567ffffffffffffffff81111561555957600080fd5b61556586828701615445565b9150509250925092565b60006020828403121561558157600080fd5b600061558f8482850161549b565b91505092915050565b6155a181615e1c565b82525050565b6155b081615e0a565b82525050565b60006155c182615d9f565b8084526020840193506155d383615d6b565b60005b82811015615605576155e98683516155a7565b6155f282615dd6565b91506020860195506001810190506155d6565b50849250505092915050565b600061561c82615daa565b8084526020840193508360208202850161563585615d78565b60005b8481101561566e578383038852615650838351615903565b925061565b82615de3565b9150602088019750600181019050615638565b508196508694505050505092915050565b600061568a82615db5565b808452602084019350836020820285016156a385615d85565b60005b848110156156dc5783830388526156be8383516159d6565b92506156c982615df0565b91506020880197506001810190506156a6565b508196508694505050505092915050565b60006156f882615dc0565b80845260208401935061570a83615d92565b60005b8281101561573c57615720868351615ae1565b61572982615dfd565b915060208601955060018101905061570d565b50849250505092915050565b600061575382615dcb565b808452615767816020860160208601615e83565b61577081615eb6565b602085010191505092915050565b6000602c82527f4552524f523a203c596f75206861766520616c7265616479206372656174656460208301527f20616e206163636f756e743e00000000000000000000000000000000000000006040830152606082019050919050565b6000603582527f4552524f523a203c4d7573742063726561746520612070726f66696c6520746f60208301527f20706572666f726d207468697320616374696f6e3e00000000000000000000006040830152606082019050919050565b6000601f82527f4552524f523a203c50726f66696c6520646f6573206e6f742065786973743e006020830152604082019050919050565b6000601782527f4552524f523a203c557365726e616d652074616b656e3e0000000000000000006020830152604082019050919050565b6000602a82527f4552524f52203c596f752063616e6e6f7420666f6c6c6f772f756e666f6c6c6f60208301527f7720796f757273656c66000000000000000000000000000000000000000000006040830152606082019050919050565b60006101208301600083015161591c60008601826155a7565b50602083015184820360208601526159348282615748565b9150506040830151848203604086015261594e8282615748565b915050606083015184820360608601526159688282615748565b915050608083015161597d6080860182615ae1565b5060a083015161599060a0860182615ae1565b5060c08301516159a360c0860182615ae1565b5060e08301516159b660e0860182615ae1565b506101008301516159cb610100860182615ae1565b508091505092915050565b6000610160830160008301516159ef6000860182615ae1565b506020830151615a026020860182615598565b5060408301518482036040860152615a1a8282615748565b91505060608301518482036060860152615a348282615748565b91505060808301518482036080860152615a4e8282615748565b91505060a083015184820360a0860152615a688282615748565b91505060c083015184820360c0860152615a828282615748565b91505060e0830151615a9760e0860182615ae1565b50610100830151615aac610100860182615ae1565b50610120830151615ac1610120860182615ae1565b50610140830151615ad6610140860182615ae1565b508091505092915050565b615aea81615e4e565b82525050565b6000602082019050615b0560008301846155a7565b92915050565b600061012082019050615b21600083018c6155a7565b8181036020830152615b33818b615748565b90508181036040830152615b47818a615748565b90508181036060830152615b5b8189615748565b9050615b6a6080830188615ae1565b615b7760a0830187615ae1565b615b8460c0830186615ae1565b615b9160e0830185615ae1565b615b9f610100830184615ae1565b9a9950505050505050505050565b60006020820190508181036000830152615bc781846155b6565b905092915050565b60006020820190508181036000830152615be98184615611565b905092915050565b60006020820190508181036000830152615c0b818461567f565b905092915050565b60006020820190508181036000830152615c2d81846156ed565b905092915050565b60006020820190508181036000830152615c4f8184615748565b905092915050565b60006020820190508181036000830152615c708161577e565b9050919050565b60006020820190508181036000830152615c90816157db565b9050919050565b60006020820190508181036000830152615cb081615838565b9050919050565b60006020820190508181036000830152615cd08161586f565b9050919050565b60006020820190508181036000830152615cf0816158a6565b9050919050565b6000602082019050615d0c6000830184615ae1565b92915050565b6000604051905081810181811067ffffffffffffffff82111715615d3557600080fd5b8060405250919050565b600067ffffffffffffffff821115615d5657600080fd5b601f19601f8301169050602081019050919050565b6000602082019050919050565b6000602082019050919050565b6000602082019050919050565b6000602082019050919050565b600081519050919050565b600081519050919050565b600081519050919050565b600081519050919050565b600081519050919050565b6000602082019050919050565b6000602082019050919050565b6000602082019050919050565b6000602082019050919050565b6000615e1582615e2e565b9050919050565b6000615e2782615e2e565b9050919050565b600073ffffffffffffffffffffffffffffffffffffffff82169050919050565b6000819050919050565b6000615e6382615e2e565b9050919050565b6000819050919050565b82818337600083830152505050565b60005b83811015615ea1578082015181840152602081019050615e86565b83811115615eb0576000848401525b50505050565b6000601f19601f830116905091905056fea265627a7a7230582038ac4b65b5ff92a8add38b558fda75e0b591bf2f316fe7a90a650a44ca1a9a976c6578706572696d656e74616cf50037",
  "source": "pragma solidity ^0.5.0;\npragma experimental ABIEncoderV2;\n\ncontract Decentragram {\n    string public contractName;\n    address public admin;\n    address[] internal addresses;\n    mapping(string => address) internal names;\n    // to map from the user account address to related profile struct\n    mapping(address => Profile) public profiles;\n    mapping(address => mapping(address => Profile)) internal followers;\n    mapping(address => mapping(address => Profile)) internal following;\n    // to map from the author's account address to the array of related posts created\n    mapping(address => Post[]) internal posts;\n    mapping(address => uint[]) internal likedPosts;\n    mapping(address => uint[]) internal dislikedPosts;\n\n    //GREATING DI\n    uint256 public _postID;\n    uint256 public _userID;\n\n    // Profile\n    struct Profile {\n        address owner;\n        string username;\n        string biography;\n        string profilePictureURL;\n        uint timeCreated;\n        uint id;\n        uint postCount;\n        uint followerCount;\n        uint followingCount;\n        address[] followers;\n        address[] following;\n    }\n\n    // struct User {\n    //     string username;\n    //     string biography;\n    //     string profilePictureURL;\n    //     Friend[] friends;\n    // }\n\n    // struct Friend {\n    //     address pubkey;\n    //     string username;\n    // }\n\n    struct Post {\n        uint postId;\n        address payable author;\n        string username;\n        string profilePictureURL;\n        string postType;\n        string postURL;\n        string postDescription;\n        uint timeCreated;\n        uint tipAmount;\n        uint likes;\n        uint dislikes;\n    }\n\n    struct AllUserStruct {\n        address owner;\n        string username;\n        string biography;\n        string profilePictureURL;\n        uint timeCreated;\n        uint id;\n        uint postCount;\n        uint followerCount;\n        uint followingCount;\n    }\n\n    AllUserStruct[] getAllUsers; // array to store all the registered users\n\n    // Check if message sender has a created profile\n    modifier senderHasProfile() {\n        require(\n            profiles[msg.sender].owner != address(0x0),\n            \"ERROR: <Must create a profile to perform this action>\"\n        );\n        _;\n    }\n\n    // Check if a specified address has created a profile\n    modifier profileExists(address _address) {\n        require(\n            profiles[_address].owner != address(0x0),\n            \"ERROR: <Profile does not exist>\"\n        );\n        _;\n    }\n\n    // Check that the message sender is not specifying an address that is itself\n    modifier notSelf(address _address) {\n        require(\n            msg.sender != _address,\n            \"ERROR <You cannot follow/unfollow yourself\"\n        );\n        _;\n    }\n\n    // Check that the input is not empty\n    // modifier nonEmptyInput(string memory _input) {\n    //     require(\n    //         keccak256(abi.encodePacked(_input)) !=\n    //             keccak256(abi.encodePacked(\"\")),\n    //         \"ERROR: <Input cannot be empty>\"\n    //     );\n    //     _;\n    // }\n\n    // events for contract\n\n    /*event UserCreated(string username, string biography, string profileImgHash);\n    event PostCreated(\n        uint id,\n        address payable postAuthor,\n        string imgHash,\n        string content,\n        uint timestamp,\n        uint tipAmount,\n        uint likes,\n        uint dislikes\n    );\n    event PostLiked(\n        address liker,\n        address postAuthor,\n        uint postid,\n        uint newLikeCount\n    );\n    event PostUnLiked(\n        address unliker,\n        address postAuthor,\n        uint postid,\n        uint newLikeCount\n    );\n    event PostDisliked(\n        address disliker,\n        address postAuthor,\n        uint postid,\n        uint newDislikeCount\n    );\n    event PostUnDisliked(\n        address unDisliker,\n        address postAuthor,\n        uint postid,\n        uint newDislikeCount\n    );\n\n    event ImageCreated(\n        uint id,\n        string hash,\n        string description,\n        uint tipAmount,\n        address payable author\n    );\n\n    event ImageTipped(\n        uint id,\n        string hash,\n        string description,\n        uint tipAmount,\n        address payable author\n    );\n    */\n    constructor() public {\n        contractName = \"Decentragram\";\n        admin = msg.sender;\n    }\n\n    // Create a new profile from a given username\n    function createAccount(\n        string memory _username,\n        string memory _biography,\n        string memory _profilePictureURL\n    ) public {\n        // Checks that the current account did not already make a profile and did not choose a taken username\n        require(\n            profiles[msg.sender].owner == address(0x0),\n            \"ERROR: <You have already created an account>\"\n        );\n        require(names[_username] == address(0x0), \"ERROR: <Username taken>\");\n        //Increment User ID\n        _userID++;\n        uint256 userID = _userID;\n\n        // Updates username list\n        names[_username] = msg.sender;\n\n        // Create the new profile object and add it to \"profiles\" mapping\n        profiles[msg.sender] = Profile({\n            owner: msg.sender,\n            username: _username,\n            biography: _biography,\n            profilePictureURL: _profilePictureURL,\n            timeCreated: block.timestamp,\n            id: userID,\n            postCount: 0,\n            followerCount: 0,\n            followingCount: 0,\n            followers: new address[](0x0),\n            following: new address[](0x0)\n        });\n\n        // Add address to list of global addresses\n        addresses.push(msg.sender);\n\n        // users[msg.sender].username = _username;\n        // users[msg.sender].biography = _biography;\n        // users[msg.sender].profilePictureHash = _profilePictureHash;\n\n        getAllUsers.push(\n            AllUserStruct(\n                msg.sender,\n                _username,\n                _biography,\n                _profilePictureURL,\n                block.timestamp,\n                userID,\n                0,\n                0,\n                0\n            )\n        );\n    }\n\n    // Follow a new profile\n    function follow(\n        address _address\n    ) external senderHasProfile profileExists(_address) notSelf(_address) {\n        // Add entry to \"followers\" and \"following\" mappings\n        followers[_address][msg.sender] = profiles[msg.sender];\n        following[msg.sender][_address] = profiles[_address];\n\n        // Add element to \"followers\" and \"following\" arrays in both Profile objects\n        profiles[_address].followers.push(msg.sender);\n        profiles[msg.sender].following.push(_address);\n\n        // Increment \"followerCount\" and \"followingCount\" in both Profile objects\n        profiles[_address].followerCount++;\n        profiles[msg.sender].followingCount++;\n\n        // Increment \"followerCount\" and \"followingCount\" in both All Users objects\n        for (uint256 i = 0; i < getAllUsers.length; i++) {\n            if (getAllUsers[i].owner == _address) {\n                getAllUsers[i].followerCount++;\n            }\n            if (getAllUsers[i].owner == msg.sender) {\n                getAllUsers[i].followingCount++;\n            }\n        }\n    }\n\n    // Unfollow a profile\n    // This deletion operation has a time complexity of O(N), is there a better way to do this?\n    function unfollow(\n        address _address\n    ) external senderHasProfile profileExists(_address) notSelf(_address) {\n        // Delete entry from \"followers\" and \"following\" mappings\n        delete followers[_address][msg.sender];\n        delete following[msg.sender][_address];\n\n        // Delete element from \"followers\" array in Profile object and decrement followerCount\n        for (uint i = 0; i < profiles[_address].followerCount; i++) {\n            if (profiles[_address].followers[i] == msg.sender) {\n                profiles[_address].followers[i] = profiles[_address].followers[\n                    profiles[_address].followers.length - 1\n                ];\n                profiles[_address].followers.pop();\n                profiles[_address].followerCount--;\n                break;\n            }\n        }\n\n        // Delete element from \"following\" array in Profile object and decrement followingCount\n        for (uint i = 0; i < profiles[msg.sender].followingCount; i++) {\n            if (profiles[msg.sender].following[i] == _address) {\n                profiles[msg.sender].following[i] = profiles[msg.sender]\n                    .following[profiles[msg.sender].following.length - 1];\n                profiles[msg.sender].following.pop();\n                profiles[msg.sender].followingCount--;\n                break;\n            }\n        }\n\n        // Decrement \"followerCount\" and \"followingCount\" in both All Users objects\n        for (uint256 i = 0; i < getAllUsers.length; i++) {\n            if (getAllUsers[i].owner == _address) {\n                getAllUsers[i].followerCount--;\n            }\n            if (getAllUsers[i].owner == msg.sender) {\n                getAllUsers[i].followingCount--;\n            }\n        }\n    }\n\n    //Create a Post\n    function createPost(\n        string memory _postDescription,\n        string memory _postURL,\n        string memory _postType\n    ) public senderHasProfile {\n        _postID++;\n        uint256 postID = _postID;\n\n        Post memory newPost = Post({\n            postId: postID,\n            author: msg.sender,\n            username: profiles[msg.sender].username,\n            profilePictureURL: profiles[msg.sender].profilePictureURL,\n            postType: _postType,\n            postURL: _postURL,\n            postDescription: _postDescription,\n            timeCreated: block.timestamp,\n            tipAmount: 0,\n            likes: 0,\n            dislikes: 0\n        });\n\n        // Add entry to \"posts\" mappings\n        posts[newPost.author].push(newPost);\n\n        // Increment \"postCount\" in Profile object\n        profiles[newPost.author].postCount++;\n        // Increment \"postCount\" in All User object\n        for (uint256 i = 0; i < getAllUsers.length; i++) {\n            if (getAllUsers[i].owner == newPost.author) {\n                getAllUsers[i].postCount++;\n            }\n        }\n    }\n\n    // like post\n    function likePost(uint256 _postId) external senderHasProfile {\n        for (uint i = 0; i < addresses.length; i++) {\n            for (uint j = 0; j < posts[addresses[i]].length; j++) {\n                if (posts[addresses[i]][j].postId == _postId) {\n                    posts[addresses[i]][j].likes++;\n                    likedPosts[msg.sender].push(_postId);\n                    break;\n                }\n            }\n        }\n    }\n    // Unlike post\n    function unlikePost(uint256 _postId) external senderHasProfile {\n        for (uint i = 0; i < addresses.length; i++) {\n            for (uint j = 0; j < posts[addresses[i]].length; j++) {\n                if (posts[addresses[i]][j].postId == _postId) {\n                    posts[addresses[i]][j].likes--;\n                    break;\n                }\n            }\n        }\n        for (uint i = 0; i < likedPosts[msg.sender].length; i++) {\n            if (_postId == likedPosts[msg.sender][i]) {\n                likedPosts[msg.sender][i] = likedPosts[msg.sender][\n                    likedPosts[msg.sender].length - 1\n                ];\n                likedPosts[msg.sender].pop();\n                break;\n            }\n        }\n    }\n\n    // dislike post\n    function dislikePost(uint256 _postId) external senderHasProfile {\n        for (uint i = 0; i < addresses.length; i++) {\n            for (uint j = 0; j < posts[addresses[i]].length; j++) {\n                if (posts[addresses[i]][j].postId == _postId) {\n                    posts[addresses[i]][j].dislikes++;\n                    dislikedPosts[msg.sender].push(_postId);\n                    break;\n                }\n            }\n        }\n    }\n\n    // undislike post\n    function undislikePost(uint256 _postId) external senderHasProfile {\n        for (uint i = 0; i < addresses.length; i++) {\n            for (uint j = 0; j < posts[addresses[i]].length; j++) {\n                if (posts[addresses[i]][j].postId == _postId) {\n                    posts[addresses[i]][j].dislikes--;\n                    break;\n                }\n            }\n        }\n        for (uint i = 0; i < dislikedPosts[msg.sender].length; i++) {\n            if (_postId == dislikedPosts[msg.sender][i]) {\n                dislikedPosts[msg.sender][i] = dislikedPosts[msg.sender][\n                    dislikedPosts[msg.sender].length - 1\n                ];\n                dislikedPosts[msg.sender].pop();\n                break;\n            }\n        }\n    }\n\n    // tip post\n    function tipPost(uint256 _postId) external payable {\n        for (uint i = 0; i < addresses.length; i++) {\n            for (uint j = 0; j < posts[addresses[i]].length; j++) {\n                if (posts[addresses[i]][j].postId == _postId) {\n                    address payable _author = posts[addresses[i]][j].author;\n                    address(_author).transfer(msg.value);\n                    posts[addresses[i]][j].tipAmount =\n                        posts[addresses[i]][j].tipAmount +\n                        msg.value;\n                    break;\n                }\n            }\n        }\n    }\n\n    // tip post\n    /*function tipImageOwner(uint256 _postId) external payable {\n        for (uint i = 0; i < addresses.length; i++) {\n            for (uint j = 0; j < posts[addresses[i]].length; j++) {\n                if (posts[addresses[i]][j].postId == _postId) {\n                    address payable _author = posts[addresses[i]][j].author;\n                    address(_author).transfer(msg.value);\n                    posts[addresses[i]][j].tipAmount =\n                        posts[addresses[i]][j].tipAmount +\n                        msg.value;\n                    break;\n                }\n            }\n        }\n        // Make sure the id is valid\n        require(_id > 0 && _id <= imageCount);\n        // Fetch the image\n        Image memory _image = images[_id];\n        // Fetch the author\n        address payable _author = _image.author;\n        // Pay the author by sending them Ether\n        address(_author).transfer(msg.value);\n        // Increment the tip amount\n        _image.tipAmount = _image.tipAmount + msg.value;\n        // Update the image\n        images[_id] = _image;\n        // Trigger an event\n        emit ImageTipped(\n            _id,\n            _image.hash,\n            _image.description,\n            _image.tipAmount,\n            _author\n        );\n    }*/\n\n    // Return all registered users\n    function getAllAppUser() public view returns (AllUserStruct[] memory) {\n        return getAllUsers;\n    }\n\n    // Returns all posts from a given address\n    function getPosts(\n        address _address\n    ) external view profileExists(_address) returns (Post[] memory) {\n        return posts[_address];\n    }\n\n    function getLikedPostIDs(\n        address _address\n    ) external view returns (uint[] memory) {\n        return likedPosts[_address];\n    }\n\n    function getDislikedPostIDs(\n        address _address\n    ) external view returns (uint[] memory) {\n        return dislikedPosts[_address];\n    }\n\n    // Returns total user count\n    function getUserCount() external view returns (uint) {\n        return addresses.length;\n    }\n\n    // Returns all registered addresses\n    function getAddresses() external view returns (address[] memory) {\n        return addresses;\n    }\n\n    // Get all followers of a specific address\n    function getFollowers(\n        address _address\n    ) external view profileExists(_address) returns (address[] memory) {\n        return profiles[_address].followers;\n    }\n\n    // Get all followed accounts of a specific address\n    function getFollowing(\n        address _address\n    ) external view returns (address[] memory) {\n        return profiles[_address].following;\n    }\n\n    function getAllPosts() public view returns (Post[] memory) {\n        uint256 itemCount = 0;\n        for (uint256 i = 0; i < addresses.length; i++) {\n            itemCount += posts[addresses[i]].length;\n        }\n\n        Post[] memory items = new Post[](itemCount);\n        uint256 currentIndex = 0;\n\n        for (uint256 i = 0; i < addresses.length; i++) {\n            for (uint j = 0; j < posts[addresses[i]].length; j++) {\n                items[currentIndex] = posts[addresses[i]][j];\n                currentIndex += 1;\n            }\n        }\n        return items;\n    }\n\n    // GET SINGLE POST\n    // function getSinglePost(\n    //     uint256 _postId\n    // )\n    //     external\n    //     view\n    //     returns (\n    //         address,\n    //         string memory,\n    //         string memory,\n    //         string memory,\n    //         string memory,\n    //         string memory,\n    //         uint,\n    //         uint,\n    //         uint,\n    //         uint\n    //     )\n    // {\n    //     for (uint i = 0; i < addresses.length; i++) {\n    //         for (uint j = 0; j < posts[addresses[i]].length; j++) {\n    //             if (posts[addresses[i]][j].postId == _postId) {\n    //                 return (\n    //                     posts[addresses[i]][j].author,\n    //                     posts[addresses[i]][j].username,\n    //                     posts[addresses[i]][j].profilePictureURL,\n    //                     posts[addresses[i]][j].postType,\n    //                     posts[addresses[i]][j].postURL,\n    //                     posts[addresses[i]][j].postDescription,\n    //                     posts[addresses[i]][j].timeCreated,\n    //                     posts[addresses[i]][j].tipAmount,\n    //                     posts[addresses[i]][j].likes,\n    //                     posts[addresses[i]][j].dislikes\n    //                 );\n    //             }\n    //         }\n    //     }\n    // }\n\n    /*uint public imageCount = 0;\n\n    mapping(address => Image) public statuses;\n    mapping(uint => Image) public images;\n\n    struct Image {\n        uint id;\n        string hash;\n        string description;\n        uint tipAmount;\n        address payable author;\n    }*/\n}\n",
  "sourcePath": "/Users/myothiha/Dev/projects/dapp_final_year/src/contracts/Decentragram.sol",
  "compiler": {
    "name": "solc",
    "version": "0.5.0+commit.1d4f565a.Emscripten.clang"
  },
  "schemaVersion": "3.0.2",
  "updatedAt": "2024-04-13T11:40:48.413Z",
  "devdoc": {
    "methods": {}
  },
  "userdoc": {
    "methods": {}
  }
}