{
  "contractName": "Decentragram",
  "abi": [
    {
      "constant": true,
      "inputs": [],
      "name": "name",
      "outputs": [
        {
          "name": "",
          "type": "string"
        }
      ],
      "payable": false,
      "stateMutability": "view",
      "type": "function",
      "signature": "0x06fdde03"
    },
    {
      "constant": true,
      "inputs": [
        {
          "name": "",
          "type": "address"
        },
        {
          "name": "",
          "type": "uint256"
        }
      ],
      "name": "posts",
      "outputs": [
        {
          "name": "id",
          "type": "uint256"
        },
        {
          "name": "author",
          "type": "address"
        },
        {
          "name": "username",
          "type": "string"
        },
        {
          "name": "profilePictureHash",
          "type": "string"
        },
        {
          "name": "imgHash",
          "type": "string"
        },
        {
          "name": "content",
          "type": "string"
        },
        {
          "name": "timestamp",
          "type": "uint256"
        },
        {
          "name": "tipAmount",
          "type": "uint256"
        },
        {
          "name": "likes",
          "type": "uint256"
        },
        {
          "name": "dislikes",
          "type": "uint256"
        }
      ],
      "payable": false,
      "stateMutability": "view",
      "type": "function",
      "signature": "0x5c538df3"
    },
    {
      "constant": true,
      "inputs": [
        {
          "name": "",
          "type": "uint256"
        }
      ],
      "name": "images",
      "outputs": [
        {
          "name": "id",
          "type": "uint256"
        },
        {
          "name": "hash",
          "type": "string"
        },
        {
          "name": "description",
          "type": "string"
        },
        {
          "name": "tipAmount",
          "type": "uint256"
        },
        {
          "name": "author",
          "type": "address"
        }
      ],
      "payable": false,
      "stateMutability": "view",
      "type": "function",
      "signature": "0x84856482"
    },
    {
      "constant": true,
      "inputs": [],
      "name": "imageCount",
      "outputs": [
        {
          "name": "",
          "type": "uint256"
        }
      ],
      "payable": false,
      "stateMutability": "view",
      "type": "function",
      "signature": "0x92053b63"
    },
    {
      "constant": true,
      "inputs": [
        {
          "name": "",
          "type": "address"
        }
      ],
      "name": "users",
      "outputs": [
        {
          "name": "username",
          "type": "string"
        },
        {
          "name": "biography",
          "type": "string"
        },
        {
          "name": "profilePictureHash",
          "type": "string"
        }
      ],
      "payable": false,
      "stateMutability": "view",
      "type": "function",
      "signature": "0xa87430ba"
    },
    {
      "constant": true,
      "inputs": [
        {
          "name": "",
          "type": "address"
        }
      ],
      "name": "statuses",
      "outputs": [
        {
          "name": "id",
          "type": "uint256"
        },
        {
          "name": "hash",
          "type": "string"
        },
        {
          "name": "description",
          "type": "string"
        },
        {
          "name": "tipAmount",
          "type": "uint256"
        },
        {
          "name": "author",
          "type": "address"
        }
      ],
      "payable": false,
      "stateMutability": "view",
      "type": "function",
      "signature": "0xaf11c1f0"
    },
    {
      "inputs": [],
      "payable": false,
      "stateMutability": "nonpayable",
      "type": "constructor",
      "signature": "constructor"
    },
    {
      "anonymous": false,
      "inputs": [
        {
          "indexed": false,
          "name": "username",
          "type": "string"
        },
        {
          "indexed": false,
          "name": "biography",
          "type": "string"
        },
        {
          "indexed": false,
          "name": "profileImgHash",
          "type": "string"
        }
      ],
      "name": "UserCreated",
      "type": "event",
      "signature": "0xdd75d3192535501dcaeaed99fb80f0f968daa8fb6d037d943472244718aa4290"
    },
    {
      "anonymous": false,
      "inputs": [
        {
          "indexed": false,
          "name": "id",
          "type": "uint256"
        },
        {
          "indexed": false,
          "name": "postAuthor",
          "type": "address"
        },
        {
          "indexed": false,
          "name": "imgHash",
          "type": "string"
        },
        {
          "indexed": false,
          "name": "content",
          "type": "string"
        },
        {
          "indexed": false,
          "name": "timestamp",
          "type": "uint256"
        },
        {
          "indexed": false,
          "name": "tipAmount",
          "type": "uint256"
        },
        {
          "indexed": false,
          "name": "likes",
          "type": "uint256"
        },
        {
          "indexed": false,
          "name": "dislikes",
          "type": "uint256"
        }
      ],
      "name": "PostCreated",
      "type": "event",
      "signature": "0xc32946133e0082f97370480cc5ce7b8f2d522c969b79d7e0c443bf3a670d44fb"
    },
    {
      "anonymous": false,
      "inputs": [
        {
          "indexed": false,
          "name": "liker",
          "type": "address"
        },
        {
          "indexed": false,
          "name": "postAuthor",
          "type": "address"
        },
        {
          "indexed": false,
          "name": "postid",
          "type": "uint256"
        },
        {
          "indexed": false,
          "name": "newLikeCount",
          "type": "uint256"
        }
      ],
      "name": "PostLiked",
      "type": "event",
      "signature": "0xa45ac97c876c5149e459c3e9d800d879c4e27b0c3f74ece37d29c256eaa75f45"
    },
    {
      "anonymous": false,
      "inputs": [
        {
          "indexed": false,
          "name": "unliker",
          "type": "address"
        },
        {
          "indexed": false,
          "name": "postAuthor",
          "type": "address"
        },
        {
          "indexed": false,
          "name": "postid",
          "type": "uint256"
        },
        {
          "indexed": false,
          "name": "newLikeCount",
          "type": "uint256"
        }
      ],
      "name": "PostUnLiked",
      "type": "event",
      "signature": "0x28a3f8436a24c53c21f045990050cacab3012b9a1e28c29e600afe2855b7c84a"
    },
    {
      "anonymous": false,
      "inputs": [
        {
          "indexed": false,
          "name": "disliker",
          "type": "address"
        },
        {
          "indexed": false,
          "name": "postAuthor",
          "type": "address"
        },
        {
          "indexed": false,
          "name": "postid",
          "type": "uint256"
        },
        {
          "indexed": false,
          "name": "newDislikeCount",
          "type": "uint256"
        }
      ],
      "name": "PostDisliked",
      "type": "event",
      "signature": "0x437718af43c1c5c815e6691b3a09f18a6ca882c6af6830c5bc973e51576c12bf"
    },
    {
      "anonymous": false,
      "inputs": [
        {
          "indexed": false,
          "name": "unDisliker",
          "type": "address"
        },
        {
          "indexed": false,
          "name": "postAuthor",
          "type": "address"
        },
        {
          "indexed": false,
          "name": "postid",
          "type": "uint256"
        },
        {
          "indexed": false,
          "name": "newDislikeCount",
          "type": "uint256"
        }
      ],
      "name": "PostUnDisliked",
      "type": "event",
      "signature": "0x7d88ba04cd0d9172d80faae19ef4578d0bf5119f55940accc435849ef631492b"
    },
    {
      "anonymous": false,
      "inputs": [
        {
          "indexed": false,
          "name": "id",
          "type": "uint256"
        },
        {
          "indexed": false,
          "name": "hash",
          "type": "string"
        },
        {
          "indexed": false,
          "name": "description",
          "type": "string"
        },
        {
          "indexed": false,
          "name": "tipAmount",
          "type": "uint256"
        },
        {
          "indexed": false,
          "name": "author",
          "type": "address"
        }
      ],
      "name": "ImageCreated",
      "type": "event",
      "signature": "0xc1d8dfa99b3f84f95d3f0bc4a768addeb97b83b20aef7f9cb6729e126bafd2f9"
    },
    {
      "anonymous": false,
      "inputs": [
        {
          "indexed": false,
          "name": "id",
          "type": "uint256"
        },
        {
          "indexed": false,
          "name": "hash",
          "type": "string"
        },
        {
          "indexed": false,
          "name": "description",
          "type": "string"
        },
        {
          "indexed": false,
          "name": "tipAmount",
          "type": "uint256"
        },
        {
          "indexed": false,
          "name": "author",
          "type": "address"
        }
      ],
      "name": "ImageTipped",
      "type": "event",
      "signature": "0x1be5317bca8d3f70dc1efe89958be71bff36cdca33fc00a6423e25eb2f1d492f"
    },
    {
      "constant": true,
      "inputs": [
        {
          "name": "_pubkey",
          "type": "address"
        }
      ],
      "name": "checkUserExists",
      "outputs": [
        {
          "name": "",
          "type": "bool"
        }
      ],
      "payable": false,
      "stateMutability": "view",
      "type": "function",
      "signature": "0x133f50f5"
    },
    {
      "constant": false,
      "inputs": [
        {
          "name": "_username",
          "type": "string"
        },
        {
          "name": "_biography",
          "type": "string"
        },
        {
          "name": "_profilePictureHash",
          "type": "string"
        }
      ],
      "name": "createAccount",
      "outputs": [],
      "payable": false,
      "stateMutability": "nonpayable",
      "type": "function",
      "signature": "0xbc53c0c4"
    },
    {
      "constant": true,
      "inputs": [
        {
          "name": "_pubkey",
          "type": "address"
        }
      ],
      "name": "getUsername",
      "outputs": [
        {
          "name": "",
          "type": "string"
        }
      ],
      "payable": false,
      "stateMutability": "view",
      "type": "function",
      "signature": "0xce43c032"
    },
    {
      "constant": true,
      "inputs": [
        {
          "name": "_pubkey",
          "type": "address"
        }
      ],
      "name": "getUser",
      "outputs": [
        {
          "components": [
            {
              "name": "username",
              "type": "string"
            },
            {
              "name": "biography",
              "type": "string"
            },
            {
              "name": "profilePictureHash",
              "type": "string"
            },
            {
              "components": [
                {
                  "name": "pubkey",
                  "type": "address"
                },
                {
                  "name": "username",
                  "type": "string"
                }
              ],
              "name": "friends",
              "type": "tuple[]"
            }
          ],
          "name": "",
          "type": "tuple"
        }
      ],
      "payable": false,
      "stateMutability": "view",
      "type": "function",
      "signature": "0x6f77926b"
    },
    {
      "constant": false,
      "inputs": [
        {
          "name": "_imgHash",
          "type": "string"
        },
        {
          "name": "_description",
          "type": "string"
        }
      ],
      "name": "uploadImage",
      "outputs": [],
      "payable": false,
      "stateMutability": "nonpayable",
      "type": "function",
      "signature": "0xa91b8314"
    },
    {
      "constant": false,
      "inputs": [
        {
          "name": "_content",
          "type": "string"
        },
        {
          "name": "_imgHash",
          "type": "string"
        }
      ],
      "name": "createPost",
      "outputs": [],
      "payable": false,
      "stateMutability": "nonpayable",
      "type": "function",
      "signature": "0x392338f5"
    },
    {
      "constant": false,
      "inputs": [
        {
          "name": "_author",
          "type": "address"
        },
        {
          "name": "_id",
          "type": "uint256"
        }
      ],
      "name": "likePost",
      "outputs": [],
      "payable": false,
      "stateMutability": "nonpayable",
      "type": "function",
      "signature": "0x48351529"
    },
    {
      "constant": false,
      "inputs": [
        {
          "name": "_author",
          "type": "address"
        },
        {
          "name": "_id",
          "type": "uint256"
        }
      ],
      "name": "unlikePost",
      "outputs": [],
      "payable": false,
      "stateMutability": "nonpayable",
      "type": "function",
      "signature": "0x756f7730"
    },
    {
      "constant": false,
      "inputs": [
        {
          "name": "_author",
          "type": "address"
        },
        {
          "name": "_id",
          "type": "uint256"
        }
      ],
      "name": "dislikePost",
      "outputs": [],
      "payable": false,
      "stateMutability": "nonpayable",
      "type": "function",
      "signature": "0xfa00eb8d"
    },
    {
      "constant": false,
      "inputs": [
        {
          "name": "_author",
          "type": "address"
        },
        {
          "name": "_id",
          "type": "uint256"
        }
      ],
      "name": "unDislikePost",
      "outputs": [],
      "payable": false,
      "stateMutability": "nonpayable",
      "type": "function",
      "signature": "0xc04bc4a3"
    },
    {
      "constant": false,
      "inputs": [
        {
          "name": "_id",
          "type": "uint256"
        }
      ],
      "name": "tipImageOwner",
      "outputs": [],
      "payable": true,
      "stateMutability": "payable",
      "type": "function",
      "signature": "0x8567ade8"
    },
    {
      "constant": false,
      "inputs": [
        {
          "name": "friend_key",
          "type": "address"
        },
        {
          "name": "_username",
          "type": "string"
        }
      ],
      "name": "addFriend",
      "outputs": [],
      "payable": false,
      "stateMutability": "nonpayable",
      "type": "function",
      "signature": "0x3b9f708d"
    },
    {
      "constant": true,
      "inputs": [],
      "name": "getMyFriendList",
      "outputs": [
        {
          "components": [
            {
              "name": "pubkey",
              "type": "address"
            },
            {
              "name": "username",
              "type": "string"
            }
          ],
          "name": "",
          "type": "tuple[]"
        }
      ],
      "payable": false,
      "stateMutability": "view",
      "type": "function",
      "signature": "0xbd0f4d0d"
    },
    {
      "constant": true,
      "inputs": [],
      "name": "getAllAppUser",
      "outputs": [
        {
          "components": [
            {
              "name": "username",
              "type": "string"
            },
            {
              "name": "biography",
              "type": "string"
            },
            {
              "name": "profilePictureHash",
              "type": "string"
            },
            {
              "name": "accountAddress",
              "type": "address"
            }
          ],
          "name": "",
          "type": "tuple[]"
        }
      ],
      "payable": false,
      "stateMutability": "view",
      "type": "function",
      "signature": "0xa24d41de"
    },
    {
      "constant": true,
      "inputs": [
        {
          "name": "_id",
          "type": "uint256"
        }
      ],
      "name": "getPost",
      "outputs": [
        {
          "components": [
            {
              "name": "id",
              "type": "uint256"
            },
            {
              "name": "author",
              "type": "address"
            },
            {
              "name": "username",
              "type": "string"
            },
            {
              "name": "profilePictureHash",
              "type": "string"
            },
            {
              "name": "imgHash",
              "type": "string"
            },
            {
              "name": "content",
              "type": "string"
            },
            {
              "name": "timestamp",
              "type": "uint256"
            },
            {
              "name": "tipAmount",
              "type": "uint256"
            },
            {
              "name": "likes",
              "type": "uint256"
            },
            {
              "name": "dislikes",
              "type": "uint256"
            }
          ],
          "name": "",
          "type": "tuple"
        }
      ],
      "payable": false,
      "stateMutability": "view",
      "type": "function",
      "signature": "0x40731c24"
    },
    {
      "constant": true,
      "inputs": [
        {
          "name": "_owner",
          "type": "address"
        }
      ],
      "name": "getAllUserPosts",
      "outputs": [
        {
          "components": [
            {
              "name": "id",
              "type": "uint256"
            },
            {
              "name": "author",
              "type": "address"
            },
            {
              "name": "username",
              "type": "string"
            },
            {
              "name": "profilePictureHash",
              "type": "string"
            },
            {
              "name": "imgHash",
              "type": "string"
            },
            {
              "name": "content",
              "type": "string"
            },
            {
              "name": "timestamp",
              "type": "uint256"
            },
            {
              "name": "tipAmount",
              "type": "uint256"
            },
            {
              "name": "likes",
              "type": "uint256"
            },
            {
              "name": "dislikes",
              "type": "uint256"
            }
          ],
          "name": "",
          "type": "tuple[]"
        }
      ],
      "payable": false,
      "stateMutability": "view",
      "type": "function",
      "signature": "0x948f04f4"
    },
    {
      "constant": true,
      "inputs": [],
      "name": "getAllFeedPosts",
      "outputs": [
        {
          "components": [
            {
              "name": "id",
              "type": "uint256"
            },
            {
              "name": "author",
              "type": "address"
            },
            {
              "name": "username",
              "type": "string"
            },
            {
              "name": "profilePictureHash",
              "type": "string"
            },
            {
              "name": "imgHash",
              "type": "string"
            },
            {
              "name": "content",
              "type": "string"
            },
            {
              "name": "timestamp",
              "type": "uint256"
            },
            {
              "name": "tipAmount",
              "type": "uint256"
            },
            {
              "name": "likes",
              "type": "uint256"
            },
            {
              "name": "dislikes",
              "type": "uint256"
            }
          ],
          "name": "",
          "type": "tuple[]"
        }
      ],
      "payable": false,
      "stateMutability": "view",
      "type": "function",
      "signature": "0x54f35b93"
    }
  ],
  "bytecode": "0x608060405260006005553480156200001657600080fd5b506040805190810160405280600c81526020017f446563656e7472616772616d000000000000000000000000000000000000000081525060009080519060200190620000649291906200006b565b506200011a565b828054600181600116156101000203166002900490600052602060002090601f016020900481019282601f10620000ae57805160ff1916838001178555620000df565b82800160010185558215620000df579182015b82811115620000de578251825591602001919060010190620000c1565b5b509050620000ee9190620000f2565b5090565b6200011791905b8082111562000113576000816000905550600101620000f9565b5090565b90565b614c80806200012a6000396000f3fe608060405260043610610133576000357c0100000000000000000000000000000000000000000000000000000000900463ffffffff16806306fdde0314610138578063133f50f514610163578063392338f5146101a05780633b9f708d146101c957806340731c24146101f2578063483515291461022f57806354f35b93146102585780635c538df3146102835780636f77926b146102c9578063756f773014610306578063848564821461032f5780638567ade81461037057806392053b631461038c578063948f04f4146103b7578063a24d41de146103f4578063a87430ba1461041f578063a91b83141461045e578063af11c1f014610487578063bc53c0c4146104c8578063bd0f4d0d146104f1578063c04bc4a31461051c578063ce43c03214610545578063fa00eb8d14610582575b600080fd5b34801561014457600080fd5b5061014d6105ab565b60405161015a919061471f565b60405180910390f35b34801561016f57600080fd5b5061018a60048036036101859190810190613d9f565b610649565b6040516101979190614704565b60405180910390f35b3480156101ac57600080fd5b506101c760048036036101c29190810190613e58565b6106ab565b005b3480156101d557600080fd5b506101f060048036036101eb9190810190613dc8565b610bd7565b005b3480156101fe57600080fd5b5061021960048036036102149190810190613f5b565b610e22565b604051610226919061488f565b60405180910390f35b34801561023b57600080fd5b5061025660048036036102519190810190613e1c565b6111a8565b005b34801561026457600080fd5b5061026d611304565b60405161027a91906146e2565b60405180910390f35b34801561028f57600080fd5b506102aa60048036036102a59190810190613e1c565b611675565b6040516102c09a999897969594939291906148ee565b60405180910390f35b3480156102d557600080fd5b506102f060048036036102eb9190810190613d9f565b611965565b6040516102fd91906148b1565b60405180910390f35b34801561031257600080fd5b5061032d60048036036103289190810190613e1c565b611d46565b005b34801561033b57600080fd5b5061035660048036036103519190810190613f5b565b611f45565b604051610367959493929190614a07565b60405180910390f35b61038a60048036036103859190810190613f5b565b6120cb565b005b34801561039857600080fd5b506103a161241b565b6040516103ae91906148d3565b60405180910390f35b3480156103c357600080fd5b506103de60048036036103d99190810190613d9f565b612421565b6040516103eb91906146e2565b60405180910390f35b34801561040057600080fd5b506104096127d1565b604051610416919061469e565b60405180910390f35b34801561042b57600080fd5b5061044660048036036104419190810190613d9f565b612a6d565b60405161045593929190614763565b60405180910390f35b34801561046a57600080fd5b5061048560048036036104809190810190613e58565b612c5f565b005b34801561049357600080fd5b506104ae60048036036104a99190810190613d9f565b612e01565b6040516104bf959493929190614a07565b60405180910390f35b3480156104d457600080fd5b506104ef60048036036104ea9190810190613ec4565b612f87565b005b3480156104fd57600080fd5b506105066131f8565b60405161051391906146c0565b60405180910390f35b34801561052857600080fd5b50610543600480360361053e9190810190613e1c565b61338f565b005b34801561055157600080fd5b5061056c60048036036105679190810190613d9f565b61358e565b6040516105799190614741565b60405180910390f35b34801561058e57600080fd5b506105a960048036036105a49190810190613e1c565b6136bc565b005b60008054600181600116156101000203166002900480601f0160208091040260200160405190810160405280929190818152602001828054600181600116156101000203166002900480156106415780601f1061061657610100808354040283529160200191610641565b820191906000526020600020905b81548152906001019060200180831161062457829003601f168201915b505050505081565b600080600360008473ffffffffffffffffffffffffffffffffffffffff1673ffffffffffffffffffffffffffffffffffffffff168152602001908152602001600020600001805460018160011615610100020316600290049050119050919050565b6106b433610649565b15156106f5576040517f08c379a00000000000000000000000000000000000000000000000000000000081526004016106ec906147cf565b60405180910390fd5b6106fd613af3565b61014060405190810160405280600460003373ffffffffffffffffffffffffffffffffffffffff1673ffffffffffffffffffffffffffffffffffffffff1681526020019081526020016000208054905081526020013373ffffffffffffffffffffffffffffffffffffffff168152602001600360003373ffffffffffffffffffffffffffffffffffffffff1673ffffffffffffffffffffffffffffffffffffffff1681526020019081526020016000206000018054600181600116156101000203166002900480601f0160208091040260200160405190810160405280929190818152602001828054600181600116156101000203166002900480156108445780601f1061081957610100808354040283529160200191610844565b820191906000526020600020905b81548152906001019060200180831161082757829003601f168201915b50505050508152602001600360003373ffffffffffffffffffffffffffffffffffffffff1673ffffffffffffffffffffffffffffffffffffffff1681526020019081526020016000206002018054600181600116156101000203166002900480601f0160208091040260200160405190810160405280929190818152602001828054600181600116156101000203166002900480156109245780601f106108f957610100808354040283529160200191610924565b820191906000526020600020905b81548152906001019060200180831161090757829003601f168201915b50505050508152602001838152602001848152602001428152602001600081526020016000815260200160008152509050600460003373ffffffffffffffffffffffffffffffffffffffff1673ffffffffffffffffffffffffffffffffffffffff168152602001908152602001600020819080600181540180825580915050906001820390600052602060002090600a0201600090919290919091506000820151816000015560208201518160010160006101000a81548173ffffffffffffffffffffffffffffffffffffffff021916908373ffffffffffffffffffffffffffffffffffffffff1602179055506040820151816002019080519060200190610a2d929190613b5d565b506060820151816003019080519060200190610a4a929190613b5d565b506080820151816004019080519060200190610a67929190613b5d565b5060a0820151816005019080519060200190610a84929190613b5d565b5060c0820151816006015560e08201518160070155610100820151816008015561012082015181600901555050506002819080600181540180825580915050906001820390600052602060002090600a0201600090919290919091506000820151816000015560208201518160010160006101000a81548173ffffffffffffffffffffffffffffffffffffffff021916908373ffffffffffffffffffffffffffffffffffffffff1602179055506040820151816002019080519060200190610b4d929190613b5d565b506060820151816003019080519060200190610b6a929190613b5d565b506080820151816004019080519060200190610b87929190613b5d565b5060a0820151816005019080519060200190610ba4929190613b5d565b5060c0820151816006015560e0820151816007015561010082015181600801556101208201518160090155505050505050565b610be033610649565b1515610c21576040517f08c379a0000000000000000000000000000000000000000000000000000000008152600401610c18906147cf565b60405180910390fd5b610c2a82610649565b1515610c6b576040517f08c379a0000000000000000000000000000000000000000000000000000000008152600401610c629061482f565b60405180910390fd5b8173ffffffffffffffffffffffffffffffffffffffff163373ffffffffffffffffffffffffffffffffffffffff1614151515610cdc576040517f08c379a0000000000000000000000000000000000000000000000000000000008152600401610cd3906147ef565b60405180910390fd5b60001515610cea3384613818565b1515141515610d2e576040517f08c379a0000000000000000000000000000000000000000000000000000000008152600401610d25906147af565b60405180910390fd5b610d393383836139e3565b610e1e8233600360003373ffffffffffffffffffffffffffffffffffffffff1673ffffffffffffffffffffffffffffffffffffffff1681526020019081526020016000206000018054600181600116156101000203166002900480601f016020809104026020016040519081016040528092919081815260200182805460018160011615610100020316600290048015610e145780601f10610de957610100808354040283529160200191610e14565b820191906000526020600020905b815481529060010190602001808311610df757829003601f168201915b50505050506139e3565b5050565b610e2a613af3565b600460003373ffffffffffffffffffffffffffffffffffffffff1673ffffffffffffffffffffffffffffffffffffffff16815260200190815260200160002082815481101515610e7657fe5b90600052602060002090600a02016101406040519081016040529081600082015481526020016001820160009054906101000a900473ffffffffffffffffffffffffffffffffffffffff1673ffffffffffffffffffffffffffffffffffffffff1673ffffffffffffffffffffffffffffffffffffffff168152602001600282018054600181600116156101000203166002900480601f016020809104026020016040519081016040528092919081815260200182805460018160011615610100020316600290048015610f8a5780601f10610f5f57610100808354040283529160200191610f8a565b820191906000526020600020905b815481529060010190602001808311610f6d57829003601f168201915b50505050508152602001600382018054600181600116156101000203166002900480601f01602080910402602001604051908101604052809291908181526020018280546001816001161561010002031660029004801561102c5780601f106110015761010080835404028352916020019161102c565b820191906000526020600020905b81548152906001019060200180831161100f57829003601f168201915b50505050508152602001600482018054600181600116156101000203166002900480601f0160208091040260200160405190810160405280929190818152602001828054600181600116156101000203166002900480156110ce5780601f106110a3576101008083540402835291602001916110ce565b820191906000526020600020905b8154815290600101906020018083116110b157829003601f168201915b50505050508152602001600582018054600181600116156101000203166002900480601f0160208091040260200160405190810160405280929190818152602001828054600181600116156101000203166002900480156111705780601f1061114557610100808354040283529160200191611170565b820191906000526020600020905b81548152906001019060200180831161115357829003601f168201915b505050505081526020016006820154815260200160078201548152602001600882015481526020016009820154815250509050919050565b6111b133610649565b15156111f2576040517f08c379a00000000000000000000000000000000000000000000000000000000081526004016111e9906147cf565b60405180910390fd5b80600460008473ffffffffffffffffffffffffffffffffffffffff1673ffffffffffffffffffffffffffffffffffffffff1681526020019081526020016000208281548110151561123f57fe5b90600052602060002090600a020160000154141515611293576040517f08c379a000000000000000000000000000000000000000000000000000000000815260040161128a9061486f565b60405180910390fd5b600460008373ffffffffffffffffffffffffffffffffffffffff1673ffffffffffffffffffffffffffffffffffffffff168152602001908152602001600020818154811015156112df57fe5b90600052602060002090600a0201600801600081548092919060010191905055505050565b60606002805480602002602001604051908101604052809291908181526020016000905b8282101561166c57838290600052602060002090600a02016101406040519081016040529081600082015481526020016001820160009054906101000a900473ffffffffffffffffffffffffffffffffffffffff1673ffffffffffffffffffffffffffffffffffffffff1673ffffffffffffffffffffffffffffffffffffffff168152602001600282018054600181600116156101000203166002900480601f0160208091040260200160405190810160405280929190818152602001828054600181600116156101000203166002900480156114465780601f1061141b57610100808354040283529160200191611446565b820191906000526020600020905b81548152906001019060200180831161142957829003601f168201915b50505050508152602001600382018054600181600116156101000203166002900480601f0160208091040260200160405190810160405280929190818152602001828054600181600116156101000203166002900480156114e85780601f106114bd576101008083540402835291602001916114e8565b820191906000526020600020905b8154815290600101906020018083116114cb57829003601f168201915b50505050508152602001600482018054600181600116156101000203166002900480601f01602080910402602001604051908101604052809291908181526020018280546001816001161561010002031660029004801561158a5780601f1061155f5761010080835404028352916020019161158a565b820191906000526020600020905b81548152906001019060200180831161156d57829003601f168201915b50505050508152602001600582018054600181600116156101000203166002900480601f01602080910402602001604051908101604052809291908181526020018280546001816001161561010002031660029004801561162c5780601f106116015761010080835404028352916020019161162c565b820191906000526020600020905b81548152906001019060200180831161160f57829003601f168201915b5050505050815260200160068201548152602001600782015481526020016008820154815260200160098201548152505081526020019060010190611328565b50505050905090565b60046020528160005260406000208181548110151561169057fe5b90600052602060002090600a0201600091509150508060000154908060010160009054906101000a900473ffffffffffffffffffffffffffffffffffffffff1690806002018054600181600116156101000203166002900480601f0160208091040260200160405190810160405280929190818152602001828054600181600116156101000203166002900480156117695780601f1061173e57610100808354040283529160200191611769565b820191906000526020600020905b81548152906001019060200180831161174c57829003601f168201915b505050505090806003018054600181600116156101000203166002900480601f0160208091040260200160405190810160405280929190818152602001828054600181600116156101000203166002900480156118075780601f106117dc57610100808354040283529160200191611807565b820191906000526020600020905b8154815290600101906020018083116117ea57829003601f168201915b505050505090806004018054600181600116156101000203166002900480601f0160208091040260200160405190810160405280929190818152602001828054600181600116156101000203166002900480156118a55780601f1061187a576101008083540402835291602001916118a5565b820191906000526020600020905b81548152906001019060200180831161188857829003601f168201915b505050505090806005018054600181600116156101000203166002900480601f0160208091040260200160405190810160405280929190818152602001828054600181600116156101000203166002900480156119435780601f1061191857610100808354040283529160200191611943565b820191906000526020600020905b81548152906001019060200180831161192657829003601f168201915b505050505090806006015490806007015490806008015490806009015490508a565b61196d613bdd565b61197682610649565b15156119b7576040517f08c379a00000000000000000000000000000000000000000000000000000000081526004016119ae9061482f565b60405180910390fd5b600360008373ffffffffffffffffffffffffffffffffffffffff1673ffffffffffffffffffffffffffffffffffffffff16815260200190815260200160002060806040519081016040529081600082018054600181600116156101000203166002900480601f016020809104026020016040519081016040528092919081815260200182805460018160011615610100020316600290048015611a9b5780601f10611a7057610100808354040283529160200191611a9b565b820191906000526020600020905b815481529060010190602001808311611a7e57829003601f168201915b50505050508152602001600182018054600181600116156101000203166002900480601f016020809104026020016040519081016040528092919081815260200182805460018160011615610100020316600290048015611b3d5780601f10611b1257610100808354040283529160200191611b3d565b820191906000526020600020905b815481529060010190602001808311611b2057829003601f168201915b50505050508152602001600282018054600181600116156101000203166002900480601f016020809104026020016040519081016040528092919081815260200182805460018160011615610100020316600290048015611bdf5780601f10611bb457610100808354040283529160200191611bdf565b820191906000526020600020905b815481529060010190602001808311611bc257829003601f168201915b5050505050815260200160038201805480602002602001604051908101604052809291908181526020016000905b82821015611d3757838290600052602060002090600202016040805190810160405290816000820160009054906101000a900473ffffffffffffffffffffffffffffffffffffffff1673ffffffffffffffffffffffffffffffffffffffff1673ffffffffffffffffffffffffffffffffffffffff168152602001600182018054600181600116156101000203166002900480601f016020809104026020016040519081016040528092919081815260200182805460018160011615610100020316600290048015611d1f5780601f10611cf457610100808354040283529160200191611d1f565b820191906000526020600020905b815481529060010190602001808311611d0257829003601f168201915b50505050508152505081526020019060010190611c0d565b50505050815250509050919050565b611d4f33610649565b1515611d90576040517f08c379a0000000000000000000000000000000000000000000000000000000008152600401611d87906147cf565b60405180910390fd5b80600460008473ffffffffffffffffffffffffffffffffffffffff1673ffffffffffffffffffffffffffffffffffffffff16815260200190815260200160002082815481101515611ddd57fe5b90600052602060002090600a020160000154141515611e31576040517f08c379a0000000000000000000000000000000000000000000000000000000008152600401611e289061486f565b60405180910390fd5b6000600460008473ffffffffffffffffffffffffffffffffffffffff1673ffffffffffffffffffffffffffffffffffffffff16815260200190815260200160002082815481101515611e7f57fe5b90600052602060002090600a020160080154111515611ed3576040517f08c379a0000000000000000000000000000000000000000000000000000000008152600401611eca9061484f565b60405180910390fd5b600460008373ffffffffffffffffffffffffffffffffffffffff1673ffffffffffffffffffffffffffffffffffffffff16815260200190815260200160002081815481101515611f1f57fe5b90600052602060002090600a020160080160008154809291906001900391905055505050565b6007602052806000526040600020600091509050806000015490806001018054600181600116156101000203166002900480601f016020809104026020016040519081016040528092919081815260200182805460018160011615610100020316600290048015611ff75780601f10611fcc57610100808354040283529160200191611ff7565b820191906000526020600020905b815481529060010190602001808311611fda57829003601f168201915b505050505090806002018054600181600116156101000203166002900480601f0160208091040260200160405190810160405280929190818152602001828054600181600116156101000203166002900480156120955780601f1061206a57610100808354040283529160200191612095565b820191906000526020600020905b81548152906001019060200180831161207857829003601f168201915b5050505050908060030154908060040160009054906101000a900473ffffffffffffffffffffffffffffffffffffffff16905085565b6000811180156120dd57506005548111155b15156120e857600080fd5b6120f0613c06565b6007600083815260200190815260200160002060a0604051908101604052908160008201548152602001600182018054600181600116156101000203166002900480601f0160208091040260200160405190810160405280929190818152602001828054600181600116156101000203166002900480156121b25780601f10612187576101008083540402835291602001916121b2565b820191906000526020600020905b81548152906001019060200180831161219557829003601f168201915b50505050508152602001600282018054600181600116156101000203166002900480601f0160208091040260200160405190810160405280929190818152602001828054600181600116156101000203166002900480156122545780601f1061222957610100808354040283529160200191612254565b820191906000526020600020905b81548152906001019060200180831161223757829003601f168201915b50505050508152602001600382015481526020016004820160009054906101000a900473ffffffffffffffffffffffffffffffffffffffff1673ffffffffffffffffffffffffffffffffffffffff1673ffffffffffffffffffffffffffffffffffffffff168152505090506000816080015190508073ffffffffffffffffffffffffffffffffffffffff166108fc349081150290604051600060405180830381858888f1935050505015801561230e573d6000803e3d6000fd5b50348260600151018260600181815250508160076000858152602001908152602001600020600082015181600001556020820151816001019080519060200190612359929190613b5d565b506040820151816002019080519060200190612376929190613b5d565b506060820151816003015560808201518160040160006101000a81548173ffffffffffffffffffffffffffffffffffffffff021916908373ffffffffffffffffffffffffffffffffffffffff1602179055509050507f1be5317bca8d3f70dc1efe89958be71bff36cdca33fc00a6423e25eb2f1d492f838360200151846040015185606001518560405161240e959493929190614a07565b60405180910390a1505050565b60055481565b6060600460008373ffffffffffffffffffffffffffffffffffffffff1673ffffffffffffffffffffffffffffffffffffffff168152602001908152602001600020805480602002602001604051908101604052809291908181526020016000905b828210156127c657838290600052602060002090600a02016101406040519081016040529081600082015481526020016001820160009054906101000a900473ffffffffffffffffffffffffffffffffffffffff1673ffffffffffffffffffffffffffffffffffffffff1673ffffffffffffffffffffffffffffffffffffffff168152602001600282018054600181600116156101000203166002900480601f0160208091040260200160405190810160405280929190818152602001828054600181600116156101000203166002900480156125a05780601f10612575576101008083540402835291602001916125a0565b820191906000526020600020905b81548152906001019060200180831161258357829003601f168201915b50505050508152602001600382018054600181600116156101000203166002900480601f0160208091040260200160405190810160405280929190818152602001828054600181600116156101000203166002900480156126425780601f1061261757610100808354040283529160200191612642565b820191906000526020600020905b81548152906001019060200180831161262557829003601f168201915b50505050508152602001600482018054600181600116156101000203166002900480601f0160208091040260200160405190810160405280929190818152602001828054600181600116156101000203166002900480156126e45780601f106126b9576101008083540402835291602001916126e4565b820191906000526020600020905b8154815290600101906020018083116126c757829003601f168201915b50505050508152602001600582018054600181600116156101000203166002900480601f0160208091040260200160405190810160405280929190818152602001828054600181600116156101000203166002900480156127865780601f1061275b57610100808354040283529160200191612786565b820191906000526020600020905b81548152906001019060200180831161276957829003601f168201915b5050505050815260200160068201548152602001600782015481526020016008820154815260200160098201548152505081526020019060010190612482565b505050509050919050565b60606001805480602002602001604051908101604052809291908181526020016000905b82821015612a64578382906000526020600020906004020160806040519081016040529081600082018054600181600116156101000203166002900480601f0160208091040260200160405190810160405280929190818152602001828054600181600116156101000203166002900480156128b25780601f10612887576101008083540402835291602001916128b2565b820191906000526020600020905b81548152906001019060200180831161289557829003601f168201915b50505050508152602001600182018054600181600116156101000203166002900480601f0160208091040260200160405190810160405280929190818152602001828054600181600116156101000203166002900480156129545780601f1061292957610100808354040283529160200191612954565b820191906000526020600020905b81548152906001019060200180831161293757829003601f168201915b50505050508152602001600282018054600181600116156101000203166002900480601f0160208091040260200160405190810160405280929190818152602001828054600181600116156101000203166002900480156129f65780601f106129cb576101008083540402835291602001916129f6565b820191906000526020600020905b8154815290600101906020018083116129d957829003601f168201915b505050505081526020016003820160009054906101000a900473ffffffffffffffffffffffffffffffffffffffff1673ffffffffffffffffffffffffffffffffffffffff1673ffffffffffffffffffffffffffffffffffffffff1681525050815260200190600101906127f5565b50505050905090565b6003602052806000526040600020600091509050806000018054600181600116156101000203166002900480601f016020809104026020016040519081016040528092919081815260200182805460018160011615610100020316600290048015612b195780601f10612aee57610100808354040283529160200191612b19565b820191906000526020600020905b815481529060010190602001808311612afc57829003601f168201915b505050505090806001018054600181600116156101000203166002900480601f016020809104026020016040519081016040528092919081815260200182805460018160011615610100020316600290048015612bb75780601f10612b8c57610100808354040283529160200191612bb7565b820191906000526020600020905b815481529060010190602001808311612b9a57829003601f168201915b505050505090806002018054600181600116156101000203166002900480601f016020809104026020016040519081016040528092919081815260200182805460018160011615610100020316600290048015612c555780601f10612c2a57610100808354040283529160200191612c55565b820191906000526020600020905b815481529060010190602001808311612c3857829003601f168201915b5050505050905083565b60008251111515612c6f57600080fd5b60008151111515612c7f57600080fd5b600073ffffffffffffffffffffffffffffffffffffffff163373ffffffffffffffffffffffffffffffffffffffff1614151515612cbb57600080fd5b60056000815480929190600101919050555060a0604051908101604052806005548152602001838152602001828152602001600081526020013373ffffffffffffffffffffffffffffffffffffffff16815250600760006005548152602001908152602001600020600082015181600001556020820151816001019080519060200190612d49929190613b5d565b506040820151816002019080519060200190612d66929190613b5d565b506060820151816003015560808201518160040160006101000a81548173ffffffffffffffffffffffffffffffffffffffff021916908373ffffffffffffffffffffffffffffffffffffffff1602179055509050507fc1d8dfa99b3f84f95d3f0bc4a768addeb97b83b20aef7f9cb6729e126bafd2f96005548383600033604051612df59594939291906149a6565b60405180910390a15050565b6006602052806000526040600020600091509050806000015490806001018054600181600116156101000203166002900480601f016020809104026020016040519081016040528092919081815260200182805460018160011615610100020316600290048015612eb35780601f10612e8857610100808354040283529160200191612eb3565b820191906000526020600020905b815481529060010190602001808311612e9657829003601f168201915b505050505090806002018054600181600116156101000203166002900480601f016020809104026020016040519081016040528092919081815260200182805460018160011615610100020316600290048015612f515780601f10612f2657610100808354040283529160200191612f51565b820191906000526020600020905b815481529060010190602001808311612f3457829003601f168201915b5050505050908060030154908060040160009054906101000a900473ffffffffffffffffffffffffffffffffffffffff16905085565b60001515612f9433610649565b1515141515612fd8576040517f08c379a0000000000000000000000000000000000000000000000000000000008152600401612fcf9061480f565b60405180910390fd5b60008351111515612fe857600080fd5b82600360003373ffffffffffffffffffffffffffffffffffffffff1673ffffffffffffffffffffffffffffffffffffffff168152602001908152602001600020600001908051906020019061303e929190613c4c565b5081600360003373ffffffffffffffffffffffffffffffffffffffff1673ffffffffffffffffffffffffffffffffffffffff1681526020019081526020016000206001019080519060200190613095929190613c4c565b5080600360003373ffffffffffffffffffffffffffffffffffffffff1673ffffffffffffffffffffffffffffffffffffffff16815260200190815260200160002060020190805190602001906130ec929190613c4c565b5060016080604051908101604052808581526020018481526020018381526020013373ffffffffffffffffffffffffffffffffffffffff1681525090806001815401808255809150509060018203906000526020600020906004020160009091929091909150600082015181600001908051906020019061316e929190613b5d565b50602082015181600101908051906020019061318b929190613b5d565b5060408201518160020190805190602001906131a8929190613b5d565b5060608201518160030160006101000a81548173ffffffffffffffffffffffffffffffffffffffff021916908373ffffffffffffffffffffffffffffffffffffffff160217905550505050505050565b6060600360003373ffffffffffffffffffffffffffffffffffffffff1673ffffffffffffffffffffffffffffffffffffffff168152602001908152602001600020600301805480602002602001604051908101604052809291908181526020016000905b8282101561338657838290600052602060002090600202016040805190810160405290816000820160009054906101000a900473ffffffffffffffffffffffffffffffffffffffff1673ffffffffffffffffffffffffffffffffffffffff1673ffffffffffffffffffffffffffffffffffffffff168152602001600182018054600181600116156101000203166002900480601f01602080910402602001604051908101604052809291908181526020018280546001816001161561010002031660029004801561336e5780601f106133435761010080835404028352916020019161336e565b820191906000526020600020905b81548152906001019060200180831161335157829003601f168201915b5050505050815250508152602001906001019061325c565b50505050905090565b61339833610649565b15156133d9576040517f08c379a00000000000000000000000000000000000000000000000000000000081526004016133d0906147cf565b60405180910390fd5b80600460008473ffffffffffffffffffffffffffffffffffffffff1673ffffffffffffffffffffffffffffffffffffffff1681526020019081526020016000208281548110151561342657fe5b90600052602060002090600a02016000015414151561347a576040517f08c379a00000000000000000000000000000000000000000000000000000000081526004016134719061486f565b60405180910390fd5b6000600460008473ffffffffffffffffffffffffffffffffffffffff1673ffffffffffffffffffffffffffffffffffffffff168152602001908152602001600020828154811015156134c857fe5b90600052602060002090600a02016009015411151561351c576040517f08c379a00000000000000000000000000000000000000000000000000000000081526004016135139061484f565b60405180910390fd5b600460008373ffffffffffffffffffffffffffffffffffffffff1673ffffffffffffffffffffffffffffffffffffffff1681526020019081526020016000208181548110151561356857fe5b90600052602060002090600a020160090160008154809291906001900391905055505050565b606061359982610649565b15156135da576040517f08c379a00000000000000000000000000000000000000000000000000000000081526004016135d19061482f565b60405180910390fd5b600360008373ffffffffffffffffffffffffffffffffffffffff1673ffffffffffffffffffffffffffffffffffffffff1681526020019081526020016000206000018054600181600116156101000203166002900480601f0160208091040260200160405190810160405280929190818152602001828054600181600116156101000203166002900480156136b05780601f10613685576101008083540402835291602001916136b0565b820191906000526020600020905b81548152906001019060200180831161369357829003601f168201915b50505050509050919050565b6136c533610649565b1515613706576040517f08c379a00000000000000000000000000000000000000000000000000000000081526004016136fd906147cf565b60405180910390fd5b80600460008473ffffffffffffffffffffffffffffffffffffffff1673ffffffffffffffffffffffffffffffffffffffff1681526020019081526020016000208281548110151561375357fe5b90600052602060002090600a0201600001541415156137a7576040517f08c379a000000000000000000000000000000000000000000000000000000000815260040161379e9061486f565b60405180910390fd5b600460008373ffffffffffffffffffffffffffffffffffffffff1673ffffffffffffffffffffffffffffffffffffffff168152602001908152602001600020818154811015156137f357fe5b90600052602060002090600a0201600901600081548092919060010191905055505050565b6000600360008373ffffffffffffffffffffffffffffffffffffffff1673ffffffffffffffffffffffffffffffffffffffff16815260200190815260200160002060030180549050600360008573ffffffffffffffffffffffffffffffffffffffff1673ffffffffffffffffffffffffffffffffffffffff1681526020019081526020016000206003018054905011156138b9576000839050829350809250505b60008090505b600360008573ffffffffffffffffffffffffffffffffffffffff1673ffffffffffffffffffffffffffffffffffffffff168152602001908152602001600020600301805490508110156139d7578273ffffffffffffffffffffffffffffffffffffffff16600360008673ffffffffffffffffffffffffffffffffffffffff1673ffffffffffffffffffffffffffffffffffffffff1681526020019081526020016000206003018281548110151561397257fe5b906000526020600020906002020160000160009054906101000a900473ffffffffffffffffffffffffffffffffffffffff1673ffffffffffffffffffffffffffffffffffffffff1614156139ca5760019150506139dd565b80806001019150506138bf565b50600090505b92915050565b6139eb613ccc565b60408051908101604052808473ffffffffffffffffffffffffffffffffffffffff168152602001838152509050600360008573ffffffffffffffffffffffffffffffffffffffff1673ffffffffffffffffffffffffffffffffffffffff168152602001908152602001600020600301819080600181540180825580915050906001820390600052602060002090600202016000909192909190915060008201518160000160006101000a81548173ffffffffffffffffffffffffffffffffffffffff021916908373ffffffffffffffffffffffffffffffffffffffff1602179055506020820151816001019080519060200190613ae9929190613b5d565b5050505050505050565b6101406040519081016040528060008152602001600073ffffffffffffffffffffffffffffffffffffffff16815260200160608152602001606081526020016060815260200160608152602001600081526020016000815260200160008152602001600081525090565b828054600181600116156101000203166002900490600052602060002090601f016020900481019282601f10613b9e57805160ff1916838001178555613bcc565b82800160010185558215613bcc579182015b82811115613bcb578251825591602001919060010190613bb0565b5b509050613bd99190613cfc565b5090565b608060405190810160405280606081526020016060815260200160608152602001606081525090565b60a06040519081016040528060008152602001606081526020016060815260200160008152602001600073ffffffffffffffffffffffffffffffffffffffff1681525090565b828054600181600116156101000203166002900490600052602060002090601f016020900481019282601f10613c8d57805160ff1916838001178555613cbb565b82800160010185558215613cbb579182015b82811115613cba578251825591602001919060010190613c9f565b5b509050613cc89190613cfc565b5090565b6040805190810160405280600073ffffffffffffffffffffffffffffffffffffffff168152602001606081525090565b613d1e91905b80821115613d1a576000816000905550600101613d02565b5090565b90565b6000613d2d8235614bc5565b905092915050565b600082601f8301121515613d4857600080fd5b8135613d5b613d5682614a95565b614a68565b91508082526020830160208301858383011115613d7757600080fd5b613d82838284614bf3565b50505092915050565b6000613d978235614bd7565b905092915050565b600060208284031215613db157600080fd5b6000613dbf84828501613d21565b91505092915050565b60008060408385031215613ddb57600080fd5b6000613de985828601613d21565b925050602083013567ffffffffffffffff811115613e0657600080fd5b613e1285828601613d35565b9150509250929050565b60008060408385031215613e2f57600080fd5b6000613e3d85828601613d21565b9250506020613e4e85828601613d8b565b9150509250929050565b60008060408385031215613e6b57600080fd5b600083013567ffffffffffffffff811115613e8557600080fd5b613e9185828601613d35565b925050602083013567ffffffffffffffff811115613eae57600080fd5b613eba85828601613d35565b9150509250929050565b600080600060608486031215613ed957600080fd5b600084013567ffffffffffffffff811115613ef357600080fd5b613eff86828701613d35565b935050602084013567ffffffffffffffff811115613f1c57600080fd5b613f2886828701613d35565b925050604084013567ffffffffffffffff811115613f4557600080fd5b613f5186828701613d35565b9150509250925092565b600060208284031215613f6d57600080fd5b6000613f7b84828501613d8b565b91505092915050565b613f8d81614b7d565b82525050565b613f9c81614b6b565b82525050565b6000613fad82614af5565b80845260208401935083602082028501613fc685614ac1565b60005b84811015613fff578383038852613fe183835161438b565b9250613fec82614b37565b9150602088019750600181019050613fc9565b508196508694505050505092915050565b600061401b82614b0b565b8084526020840193508360208202850161403485614adb565b60005b8481101561406d57838303885261404f8383516143fc565b925061405a82614b51565b9150602088019750600181019050614037565b508196508694505050505092915050565b600061408982614b00565b808452602084019350836020820285016140a285614ace565b60005b848110156140db5783830388526140bd8383516143fc565b92506140c882614b44565b91506020880197506001810190506140a5565b508196508694505050505092915050565b60006140f782614b16565b8084526020840193508360208202850161411085614ae8565b60005b8481101561414957838303885261412b838351614528565b925061413682614b5e565b9150602088019750600181019050614113565b508196508694505050505092915050565b61416381614b8f565b82525050565b61417281614be1565b82525050565b600061418382614b2c565b808452614197816020860160208601614c02565b6141a081614c35565b602085010191505092915050565b60006141b982614b21565b8084526141cd816020860160208601614c02565b6141d681614c35565b602085010191505092915050565b6000601f82527f54686573652075736572732061726520616c726561647920667269656e6473006020830152604082019050919050565b6000601782527f43726561746520616e206163636f756e742066697273740000000000000000006020830152604082019050919050565b6000602682527f55736572732063616e6e6f7420616464207468656d73656c766573206173206660208301527f7269656e647300000000000000000000000000000000000000000000000000006040830152606082019050919050565b6000601382527f5573657220616c726561647920657869737473000000000000000000000000006020830152604082019050919050565b6000601682527f55736572206973206e6f742072656769737465726564000000000000000000006020830152604082019050919050565b6000601182527f506f737420686173206e6f206c696b65730000000000000000000000000000006020830152604082019050919050565b6000601382527f506f737420646f6573206e6f74206578697374000000000000000000000000006020830152604082019050919050565b600060808301600083015184820360008601526143a882826141ae565b915050602083015184820360208601526143c282826141ae565b915050604083015184820360408601526143dc82826141ae565b91505060608301516143f16060860182613f93565b508091505092915050565b60006040830160008301516144146000860182613f93565b506020830151848203602086015261442c82826141ae565b9150508091505092915050565b600061014083016000830151614452600086018261468f565b5060208301516144656020860182613f84565b506040830151848203604086015261447d82826141ae565b9150506060830151848203606086015261449782826141ae565b915050608083015184820360808601526144b182826141ae565b91505060a083015184820360a08601526144cb82826141ae565b91505060c08301516144e060c086018261468f565b5060e08301516144f360e086018261468f565b5061010083015161450861010086018261468f565b5061012083015161451d61012086018261468f565b508091505092915050565b600061014083016000830151614541600086018261468f565b5060208301516145546020860182613f84565b506040830151848203604086015261456c82826141ae565b9150506060830151848203606086015261458682826141ae565b915050608083015184820360808601526145a082826141ae565b91505060a083015184820360a08601526145ba82826141ae565b91505060c08301516145cf60c086018261468f565b5060e08301516145e260e086018261468f565b506101008301516145f761010086018261468f565b5061012083015161460c61012086018261468f565b508091505092915050565b6000608083016000830151848203600086015261463482826141ae565b9150506020830151848203602086015261464e82826141ae565b9150506040830151848203604086015261466882826141ae565b91505060608301518482036060860152614682828261407e565b9150508091505092915050565b61469881614bbb565b82525050565b600060208201905081810360008301526146b88184613fa2565b905092915050565b600060208201905081810360008301526146da8184614010565b905092915050565b600060208201905081810360008301526146fc81846140ec565b905092915050565b6000602082019050614719600083018461415a565b92915050565b6000602082019050818103600083015261473981846141ae565b905092915050565b6000602082019050818103600083015261475b8184614178565b905092915050565b6000606082019050818103600083015261477d81866141ae565b9050818103602083015261479181856141ae565b905081810360408301526147a581846141ae565b9050949350505050565b600060208201905081810360008301526147c8816141e4565b9050919050565b600060208201905081810360008301526147e88161421b565b9050919050565b6000602082019050818103600083015261480881614252565b9050919050565b60006020820190508181036000830152614828816142af565b9050919050565b60006020820190508181036000830152614848816142e6565b9050919050565b600060208201905081810360008301526148688161431d565b9050919050565b6000602082019050818103600083015261488881614354565b9050919050565b600060208201905081810360008301526148a98184614439565b905092915050565b600060208201905081810360008301526148cb8184614617565b905092915050565b60006020820190506148e8600083018461468f565b92915050565b600061014082019050614904600083018d61468f565b614911602083018c613f84565b8181036040830152614923818b6141ae565b90508181036060830152614937818a6141ae565b9050818103608083015261494b81896141ae565b905081810360a083015261495f81886141ae565b905061496e60c083018761468f565b61497b60e083018661468f565b61498961010083018561468f565b61499761012083018461468f565b9b9a5050505050505050505050565b600060a0820190506149bb600083018861468f565b81810360208301526149cd8187614178565b905081810360408301526149e18186614178565b90506149f06060830185614169565b6149fd6080830184613f84565b9695505050505050565b600060a082019050614a1c600083018861468f565b8181036020830152614a2e81876141ae565b90508181036040830152614a4281866141ae565b9050614a51606083018561468f565b614a5e6080830184613f84565b9695505050505050565b6000604051905081810181811067ffffffffffffffff82111715614a8b57600080fd5b8060405250919050565b600067ffffffffffffffff821115614aac57600080fd5b601f19601f8301169050602081019050919050565b6000602082019050919050565b6000602082019050919050565b6000602082019050919050565b6000602082019050919050565b600081519050919050565b600081519050919050565b600081519050919050565b600081519050919050565b600081519050919050565b600081519050919050565b6000602082019050919050565b6000602082019050919050565b6000602082019050919050565b6000602082019050919050565b6000614b7682614b9b565b9050919050565b6000614b8882614b9b565b9050919050565b60008115159050919050565b600073ffffffffffffffffffffffffffffffffffffffff82169050919050565b6000819050919050565b6000614bd082614b9b565b9050919050565b6000819050919050565b6000614bec82614bbb565b9050919050565b82818337600083830152505050565b60005b83811015614c20578082015181840152602081019050614c05565b83811115614c2f576000848401525b50505050565b6000601f19601f830116905091905056fea265627a7a72305820af56c771f58b0bc1d34a5b690357c4db9592bad15cc9b053565a47a866bcb47b6c6578706572696d656e74616cf50037",
  "source": "pragma solidity ^0.5.0;\npragma experimental ABIEncoderV2;\n\ncontract Decentragram {\n    string public name;\n\n    struct User {\n        string username;\n        string biography;\n        string profilePictureHash;\n        Friend[] friends;\n    }\n\n    struct Friend {\n        address pubkey;\n        string username;\n    }\n\n    struct Post {\n        uint id;\n        address payable author;\n        string username;\n        string profilePictureHash;\n        string imgHash;\n        string content;\n        uint timestamp;\n        uint tipAmount;\n        uint likes;\n        uint dislikes;\n    }\n\n    struct AllUserStruct {\n        string username;\n        string biography;\n        string profilePictureHash;\n        address accountAddress;\n    }\n\n    AllUserStruct[] getAllUsers; // array to store all the registered users\n    Post[] allPosts; // array to store all posts created in the application\n\n    // to map from the user account address to related User struct\n    mapping(address => User) public users;\n\n    // to map from the author's account address to the array of related posts created\n    mapping(address => Post[]) public posts;\n\n    // events for contract\n\n    event UserCreated(string username, string biography, string profileImgHash);\n    event PostCreated(\n        uint id,\n        address payable postAuthor,\n        string imgHash,\n        string content,\n        uint timestamp,\n        uint tipAmount,\n        uint likes,\n        uint dislikes\n    );\n    event PostLiked(\n        address liker,\n        address postAuthor,\n        uint postid,\n        uint newLikeCount\n    );\n    event PostUnLiked(\n        address unliker,\n        address postAuthor,\n        uint postid,\n        uint newLikeCount\n    );\n    event PostDisliked(\n        address disliker,\n        address postAuthor,\n        uint postid,\n        uint newDislikeCount\n    );\n    event PostUnDisliked(\n        address unDisliker,\n        address postAuthor,\n        uint postid,\n        uint newDislikeCount\n    );\n\n    event ImageCreated(\n        uint id,\n        string hash,\n        string description,\n        uint tipAmount,\n        address payable author\n    );\n\n    event ImageTipped(\n        uint id,\n        string hash,\n        string description,\n        uint tipAmount,\n        address payable author\n    );\n\n    constructor() public {\n        name = \"Decentragram\";\n    }\n\n    function checkUserExists(address _pubkey) public view returns (bool) {\n        return bytes(users[_pubkey].username).length > 0;\n    }\n\n    function createAccount(\n        string memory _username,\n        string memory _biography,\n        string memory _profilePictureHash\n    ) public {\n        require(checkUserExists(msg.sender) == false, \"User already exists\");\n        require(bytes(_username).length > 0);\n\n        users[msg.sender].username = _username;\n        users[msg.sender].biography = _biography;\n        users[msg.sender].profilePictureHash = _profilePictureHash;\n        getAllUsers.push(\n            AllUserStruct(\n                _username,\n                _biography,\n                _profilePictureHash,\n                msg.sender\n            )\n        );\n    }\n\n    function getUsername(address _pubkey) public view returns (string memory) {\n        require(checkUserExists(_pubkey), \"User is not registered\");\n        return users[_pubkey].username;\n    }\n\n    function getUser(address _pubkey) public view returns (User memory) {\n        require(checkUserExists(_pubkey), \"User is not registered\");\n        return users[_pubkey];\n    }\n\n    function uploadImage(\n        string memory _imgHash,\n        string memory _description\n    ) public {\n        // Make sure the image hash exists\n        require(bytes(_imgHash).length > 0);\n        // Make sure image description exists\n        require(bytes(_description).length > 0);\n        // Make sure uploader address exists\n        require(msg.sender != address(0));\n\n        // Increment image id\n        imageCount++;\n\n        // Add Image to the contract\n        images[imageCount] = Image(\n            imageCount,\n            _imgHash,\n            _description,\n            0,\n            msg.sender\n        );\n        // Trigger an event\n        emit ImageCreated(imageCount, _imgHash, _description, 0, msg.sender);\n    }\n\n    function createPost(string memory _content, string memory _imgHash) public {\n        require(checkUserExists(msg.sender), \"Create an account first\");\n\n        Post memory newPost = Post({\n            id: posts[msg.sender].length,\n            author: msg.sender,\n            username: users[msg.sender].username,\n            profilePictureHash: users[msg.sender].profilePictureHash,\n            content: _content,\n            imgHash: _imgHash,\n            timestamp: block.timestamp,\n            likes: 0,\n            dislikes: 0,\n            tipAmount: 0\n        });\n\n        posts[msg.sender].push(newPost);\n        allPosts.push(newPost);\n    }\n\n    function likePost(address _author, uint _id) external {\n        require(checkUserExists(msg.sender), \"Create an account first\");\n        require(posts[_author][_id].id == _id, \"Post does not exist\");\n        posts[_author][_id].likes++;\n\n        // Emit the PostLiked event\n    }\n\n    function unlikePost(address _author, uint _id) external {\n        require(checkUserExists(msg.sender), \"Create an account first\");\n        require(posts[_author][_id].id == _id, \"Post does not exist\");\n        require(posts[_author][_id].likes > 0, \"Post has no likes\");\n        posts[_author][_id].likes--;\n\n        // Emit the PostUnliked event\n    }\n\n    function dislikePost(address _author, uint _id) external {\n        require(checkUserExists(msg.sender), \"Create an account first\");\n        require(posts[_author][_id].id == _id, \"Post does not exist\");\n        posts[_author][_id].dislikes++;\n\n        // Emit the PostDisliked event\n    }\n\n    function unDislikePost(address _author, uint _id) external {\n        require(checkUserExists(msg.sender), \"Create an account first\");\n        require(posts[_author][_id].id == _id, \"Post does not exist\");\n        require(posts[_author][_id].dislikes > 0, \"Post has no likes\");\n        posts[_author][_id].dislikes--;\n\n        // Emit the PostUnDisliked event\n    }\n\n    function tipImageOwner(uint _id) public payable {\n        // Make sure the id is valid\n        require(_id > 0 && _id <= imageCount);\n        // Fetch the image\n        Image memory _image = images[_id];\n        // Fetch the author\n        address payable _author = _image.author;\n        // Pay the author by sending them Ether\n        address(_author).transfer(msg.value);\n        // Increment the tip amount\n        _image.tipAmount = _image.tipAmount + msg.value;\n        // Update the image\n        images[_id] = _image;\n        // Trigger an event\n        emit ImageTipped(\n            _id,\n            _image.hash,\n            _image.description,\n            _image.tipAmount,\n            _author\n        );\n    }\n\n    function addFriend(address friend_key, string memory _username) public {\n        require(checkUserExists(msg.sender), \"Create an account first\");\n        require(checkUserExists(friend_key), \"User is not registered\");\n        require(\n            msg.sender != friend_key,\n            \"Users cannot add themselves as friends\"\n        );\n        require(\n            checkAlreadyFriends(msg.sender, friend_key) == false,\n            \"These users are already friends\"\n        );\n        _addFriend(msg.sender, friend_key, _username);\n        _addFriend(friend_key, msg.sender, users[msg.sender].username);\n    }\n\n    function checkAlreadyFriends(\n        address _pubkey1,\n        address _pubkey2\n    ) internal view returns (bool) {\n        if (users[_pubkey1].friends.length > users[_pubkey2].friends.length) {\n            address temp = _pubkey1;\n            _pubkey1 = _pubkey2;\n            _pubkey2 = temp;\n        }\n\n        for (uint i = 0; i < users[_pubkey1].friends.length; i++) {\n            if (users[_pubkey1].friends[i].pubkey == _pubkey2) return true;\n        }\n\n        return false;\n    }\n\n    function _addFriend(\n        address _me,\n        address friend_key,\n        string memory _username\n    ) internal {\n        Friend memory newFriend = Friend(friend_key, _username);\n        users[_me].friends.push(newFriend);\n    }\n\n    function getMyFriendList() external view returns (Friend[] memory) {\n        return users[msg.sender].friends;\n    }\n\n    function getAllAppUser() public view returns (AllUserStruct[] memory) {\n        return getAllUsers;\n    }\n\n    function getPost(uint _id) public view returns (Post memory) {\n        return posts[msg.sender][_id];\n    }\n\n    function getAllUserPosts(\n        address _owner\n    ) public view returns (Post[] memory) {\n        return posts[_owner];\n    }\n\n    function getAllFeedPosts() public view returns (Post[] memory) {\n        return allPosts;\n    }\n\n    uint public imageCount = 0;\n\n    mapping(address => Image) public statuses;\n    mapping(uint => Image) public images;\n\n    struct Image {\n        uint id;\n        string hash;\n        string description;\n        uint tipAmount;\n        address payable author;\n    }\n}\n",
  "sourcePath": "/Users/myothiha/Dev/projects/dapp_final_year/src/contracts/Decentragram.sol",
  "compiler": {
    "name": "solc",
    "version": "0.5.0+commit.1d4f565a.Emscripten.clang"
  },
  "schemaVersion": "3.0.2",
  "updatedAt": "2024-02-26T20:36:10.152Z",
  "devdoc": {
    "methods": {}
  },
  "userdoc": {
    "methods": {}
  }
}