{
  "contractName": "Decentragram",
  "abi": [
    {
      "constant": true,
      "inputs": [],
      "name": "contractName",
      "outputs": [
        {
          "name": "",
          "type": "string"
        }
      ],
      "payable": false,
      "stateMutability": "view",
      "type": "function",
      "signature": "0x75d0c0dc"
    },
    {
      "constant": true,
      "inputs": [],
      "name": "_userID",
      "outputs": [
        {
          "name": "",
          "type": "uint256"
        }
      ],
      "payable": false,
      "stateMutability": "view",
      "type": "function",
      "signature": "0x8865fb75"
    },
    {
      "constant": true,
      "inputs": [
        {
          "name": "",
          "type": "address"
        }
      ],
      "name": "profiles",
      "outputs": [
        {
          "name": "owner",
          "type": "address"
        },
        {
          "name": "username",
          "type": "string"
        },
        {
          "name": "biography",
          "type": "string"
        },
        {
          "name": "profilePictureURL",
          "type": "string"
        },
        {
          "name": "timeCreated",
          "type": "uint256"
        },
        {
          "name": "id",
          "type": "uint256"
        },
        {
          "name": "postCount",
          "type": "uint256"
        },
        {
          "name": "followerCount",
          "type": "uint256"
        },
        {
          "name": "followingCount",
          "type": "uint256"
        }
      ],
      "payable": false,
      "stateMutability": "view",
      "type": "function",
      "signature": "0xbbe15627"
    },
    {
      "constant": true,
      "inputs": [],
      "name": "_postID",
      "outputs": [
        {
          "name": "",
          "type": "uint256"
        }
      ],
      "payable": false,
      "stateMutability": "view",
      "type": "function",
      "signature": "0xeea3ae91"
    },
    {
      "constant": true,
      "inputs": [],
      "name": "admin",
      "outputs": [
        {
          "name": "",
          "type": "address"
        }
      ],
      "payable": false,
      "stateMutability": "view",
      "type": "function",
      "signature": "0xf851a440"
    },
    {
      "inputs": [],
      "payable": false,
      "stateMutability": "nonpayable",
      "type": "constructor",
      "signature": "constructor"
    },
    {
      "constant": false,
      "inputs": [
        {
          "name": "_username",
          "type": "string"
        },
        {
          "name": "_biography",
          "type": "string"
        },
        {
          "name": "_profilePictureURL",
          "type": "string"
        }
      ],
      "name": "createAccount",
      "outputs": [],
      "payable": false,
      "stateMutability": "nonpayable",
      "type": "function",
      "signature": "0xbc53c0c4"
    },
    {
      "constant": false,
      "inputs": [
        {
          "name": "_address",
          "type": "address"
        }
      ],
      "name": "follow",
      "outputs": [],
      "payable": false,
      "stateMutability": "nonpayable",
      "type": "function",
      "signature": "0x4dbf27cc"
    },
    {
      "constant": false,
      "inputs": [
        {
          "name": "_address",
          "type": "address"
        }
      ],
      "name": "unfollow",
      "outputs": [],
      "payable": false,
      "stateMutability": "nonpayable",
      "type": "function",
      "signature": "0x015a4ead"
    },
    {
      "constant": false,
      "inputs": [
        {
          "name": "_postDescription",
          "type": "string"
        },
        {
          "name": "_postURL",
          "type": "string"
        },
        {
          "name": "_postType",
          "type": "string"
        }
      ],
      "name": "createPost",
      "outputs": [],
      "payable": false,
      "stateMutability": "nonpayable",
      "type": "function",
      "signature": "0xe8a4a1eb"
    },
    {
      "constant": false,
      "inputs": [
        {
          "name": "_postId",
          "type": "uint256"
        }
      ],
      "name": "likePost",
      "outputs": [],
      "payable": false,
      "stateMutability": "nonpayable",
      "type": "function",
      "signature": "0x725009d3"
    },
    {
      "constant": false,
      "inputs": [
        {
          "name": "_postId",
          "type": "uint256"
        }
      ],
      "name": "unlikePost",
      "outputs": [],
      "payable": false,
      "stateMutability": "nonpayable",
      "type": "function",
      "signature": "0xfa188de9"
    },
    {
      "constant": false,
      "inputs": [
        {
          "name": "_postId",
          "type": "uint256"
        }
      ],
      "name": "dislikePost",
      "outputs": [],
      "payable": false,
      "stateMutability": "nonpayable",
      "type": "function",
      "signature": "0x732fa7c7"
    },
    {
      "constant": false,
      "inputs": [
        {
          "name": "_postId",
          "type": "uint256"
        }
      ],
      "name": "undislikePost",
      "outputs": [],
      "payable": false,
      "stateMutability": "nonpayable",
      "type": "function",
      "signature": "0xe1354a9d"
    },
    {
      "constant": false,
      "inputs": [
        {
          "name": "_postId",
          "type": "uint256"
        }
      ],
      "name": "tipPost",
      "outputs": [],
      "payable": true,
      "stateMutability": "payable",
      "type": "function",
      "signature": "0x74d3c1f8"
    },
    {
      "constant": true,
      "inputs": [],
      "name": "getAllAppUser",
      "outputs": [
        {
          "components": [
            {
              "name": "owner",
              "type": "address"
            },
            {
              "name": "username",
              "type": "string"
            },
            {
              "name": "biography",
              "type": "string"
            },
            {
              "name": "profilePictureURL",
              "type": "string"
            },
            {
              "name": "timeCreated",
              "type": "uint256"
            },
            {
              "name": "id",
              "type": "uint256"
            },
            {
              "name": "postCount",
              "type": "uint256"
            },
            {
              "name": "followerCount",
              "type": "uint256"
            },
            {
              "name": "followingCount",
              "type": "uint256"
            }
          ],
          "name": "",
          "type": "tuple[]"
        }
      ],
      "payable": false,
      "stateMutability": "view",
      "type": "function",
      "signature": "0xa24d41de"
    },
    {
      "constant": true,
      "inputs": [
        {
          "name": "_address",
          "type": "address"
        }
      ],
      "name": "getPosts",
      "outputs": [
        {
          "components": [
            {
              "name": "postId",
              "type": "uint256"
            },
            {
              "name": "author",
              "type": "address"
            },
            {
              "name": "username",
              "type": "string"
            },
            {
              "name": "profilePictureURL",
              "type": "string"
            },
            {
              "name": "postType",
              "type": "string"
            },
            {
              "name": "postURL",
              "type": "string"
            },
            {
              "name": "postDescription",
              "type": "string"
            },
            {
              "name": "timeCreated",
              "type": "uint256"
            },
            {
              "name": "tipAmount",
              "type": "uint256"
            },
            {
              "name": "likes",
              "type": "uint256"
            },
            {
              "name": "dislikes",
              "type": "uint256"
            }
          ],
          "name": "",
          "type": "tuple[]"
        }
      ],
      "payable": false,
      "stateMutability": "view",
      "type": "function",
      "signature": "0x4caf9d0b"
    },
    {
      "constant": true,
      "inputs": [
        {
          "name": "_address",
          "type": "address"
        }
      ],
      "name": "getLikedPostIDs",
      "outputs": [
        {
          "name": "",
          "type": "uint256[]"
        }
      ],
      "payable": false,
      "stateMutability": "view",
      "type": "function",
      "signature": "0x3a8d9962"
    },
    {
      "constant": true,
      "inputs": [
        {
          "name": "_address",
          "type": "address"
        }
      ],
      "name": "getDislikedPostIDs",
      "outputs": [
        {
          "name": "",
          "type": "uint256[]"
        }
      ],
      "payable": false,
      "stateMutability": "view",
      "type": "function",
      "signature": "0x730f04ae"
    },
    {
      "constant": true,
      "inputs": [],
      "name": "getUserCount",
      "outputs": [
        {
          "name": "",
          "type": "uint256"
        }
      ],
      "payable": false,
      "stateMutability": "view",
      "type": "function",
      "signature": "0xb5cb15f7"
    },
    {
      "constant": true,
      "inputs": [],
      "name": "getAddresses",
      "outputs": [
        {
          "name": "",
          "type": "address[]"
        }
      ],
      "payable": false,
      "stateMutability": "view",
      "type": "function",
      "signature": "0xa39fac12"
    },
    {
      "constant": true,
      "inputs": [
        {
          "name": "_address",
          "type": "address"
        }
      ],
      "name": "getFollowers",
      "outputs": [
        {
          "name": "",
          "type": "address[]"
        }
      ],
      "payable": false,
      "stateMutability": "view",
      "type": "function",
      "signature": "0xc2fe2022"
    },
    {
      "constant": true,
      "inputs": [
        {
          "name": "_address",
          "type": "address"
        }
      ],
      "name": "getFollowing",
      "outputs": [
        {
          "name": "",
          "type": "address[]"
        }
      ],
      "payable": false,
      "stateMutability": "view",
      "type": "function",
      "signature": "0xd8236dff"
    },
    {
      "constant": true,
      "inputs": [],
      "name": "getAllPosts",
      "outputs": [
        {
          "components": [
            {
              "name": "postId",
              "type": "uint256"
            },
            {
              "name": "author",
              "type": "address"
            },
            {
              "name": "username",
              "type": "string"
            },
            {
              "name": "profilePictureURL",
              "type": "string"
            },
            {
              "name": "postType",
              "type": "string"
            },
            {
              "name": "postURL",
              "type": "string"
            },
            {
              "name": "postDescription",
              "type": "string"
            },
            {
              "name": "timeCreated",
              "type": "uint256"
            },
            {
              "name": "tipAmount",
              "type": "uint256"
            },
            {
              "name": "likes",
              "type": "uint256"
            },
            {
              "name": "dislikes",
              "type": "uint256"
            }
          ],
          "name": "",
          "type": "tuple[]"
        }
      ],
      "payable": false,
      "stateMutability": "view",
      "type": "function",
      "signature": "0x30561100"
    }
  ],
  "bytecode": "0x60806040523480156200001157600080fd5b506040805190810160405280600c81526020017f446563656e7472616772616d0000000000000000000000000000000000000000815250600090805190602001906200005f929190620000a7565b5033600160006101000a81548173ffffffffffffffffffffffffffffffffffffffff021916908373ffffffffffffffffffffffffffffffffffffffff16021790555062000156565b828054600181600116156101000203166002900490600052602060002090601f016020900481019282601f10620000ea57805160ff19168380011785556200011b565b828001600101855582156200011b579182015b828111156200011a578251825591602001919060010190620000fd565b5b5090506200012a91906200012e565b5090565b6200015391905b808211156200014f57600081600090555060010162000135565b5090565b90565b615cee80620001666000396000f3fe608060405260043610610133576000357c0100000000000000000000000000000000000000000000000000000000900463ffffffff168063015a4ead1461013857806330561100146101615780633a8d99621461018c5780634caf9d0b146101c95780634dbf27cc14610206578063725009d31461022f578063730f04ae14610258578063732fa7c71461029557806374d3c1f8146102be57806375d0c0dc146102da5780638865fb7514610305578063a24d41de14610330578063a39fac121461035b578063b5cb15f714610386578063bbe15627146103b1578063bc53c0c4146103f6578063c2fe20221461041f578063d8236dff1461045c578063e1354a9d14610499578063e8a4a1eb146104c2578063eea3ae91146104eb578063f851a44014610516578063fa188de914610541575b600080fd5b34801561014457600080fd5b5061015f600480360361015a919081019061514b565b61056a565b005b34801561016d57600080fd5b50610176610e95565b604051610183919061597e565b60405180910390f35b34801561019857600080fd5b506101b360048036036101ae919081019061514b565b6114b5565b6040516101c091906159a0565b60405180910390f35b3480156101d557600080fd5b506101f060048036036101eb919081019061514b565b61154c565b6040516101fd919061597e565b60405180910390f35b34801561021257600080fd5b5061022d6004803603610228919081019061514b565b611a74565b005b34801561023b57600080fd5b506102566004803603610251919081019061520b565b61238e565b005b34801561026457600080fd5b5061027f600480360361027a919081019061514b565b6126cf565b60405161028c91906159a0565b60405180910390f35b3480156102a157600080fd5b506102bc60048036036102b7919081019061520b565b612766565b005b6102d860048036036102d3919081019061520b565b612aa7565b005b3480156102e657600080fd5b506102ef612e3b565b6040516102fc91906159c2565b60405180910390f35b34801561031157600080fd5b5061031a612ed9565b6040516103279190615ae4565b60405180910390f35b34801561033c57600080fd5b50610345612edf565b604051610352919061595c565b60405180910390f35b34801561036757600080fd5b506103706131ae565b60405161037d919061593a565b60405180910390f35b34801561039257600080fd5b5061039b61323c565b6040516103a89190615ae4565b60405180910390f35b3480156103bd57600080fd5b506103d860048036036103d3919081019061514b565b613249565b6040516103ed99989796959493929190615898565b60405180910390f35b34801561040257600080fd5b5061041d60048036036104189190810190615174565b61347f565b005b34801561042b57600080fd5b506104466004803603610441919081019061514b565b613bc8565b604051610453919061593a565b60405180910390f35b34801561046857600080fd5b50610483600480360361047e919081019061514b565b613d6e565b604051610490919061593a565b60405180910390f35b3480156104a557600080fd5b506104c060048036036104bb919081019061520b565b613e3e565b005b3480156104ce57600080fd5b506104e960048036036104e49190810190615174565b61432e565b005b3480156104f757600080fd5b5061050061481b565b60405161050d9190615ae4565b60405180910390f35b34801561052257600080fd5b5061052b614821565b604051610538919061587d565b60405180910390f35b34801561054d57600080fd5b506105686004803603610563919081019061520b565b614847565b005b600073ffffffffffffffffffffffffffffffffffffffff16600460003373ffffffffffffffffffffffffffffffffffffffff1673ffffffffffffffffffffffffffffffffffffffff16815260200190815260200160002060000160009054906101000a900473ffffffffffffffffffffffffffffffffffffffff1673ffffffffffffffffffffffffffffffffffffffff161415151561063e576040517f08c379a000000000000000000000000000000000000000000000000000000000815260040161063590615a24565b60405180910390fd5b80600073ffffffffffffffffffffffffffffffffffffffff16600460008373ffffffffffffffffffffffffffffffffffffffff1673ffffffffffffffffffffffffffffffffffffffff16815260200190815260200160002060000160009054906101000a900473ffffffffffffffffffffffffffffffffffffffff1673ffffffffffffffffffffffffffffffffffffffff1614151515610713576040517f08c379a000000000000000000000000000000000000000000000000000000000815260040161070a90615a44565b60405180910390fd5b818073ffffffffffffffffffffffffffffffffffffffff163373ffffffffffffffffffffffffffffffffffffffff1614151515610785576040517f08c379a000000000000000000000000000000000000000000000000000000000815260040161077c90615ac4565b60405180910390fd5b600073ffffffffffffffffffffffffffffffffffffffff16600660003373ffffffffffffffffffffffffffffffffffffffff1673ffffffffffffffffffffffffffffffffffffffff16815260200190815260200160002060008573ffffffffffffffffffffffffffffffffffffffff1673ffffffffffffffffffffffffffffffffffffffff16815260200190815260200160002060000160009054906101000a900473ffffffffffffffffffffffffffffffffffffffff1673ffffffffffffffffffffffffffffffffffffffff1614151515610896576040517f08c379a000000000000000000000000000000000000000000000000000000000815260040161088d90615a64565b60405180910390fd5b600560008473ffffffffffffffffffffffffffffffffffffffff1673ffffffffffffffffffffffffffffffffffffffff16815260200190815260200160002060003373ffffffffffffffffffffffffffffffffffffffff1673ffffffffffffffffffffffffffffffffffffffff168152602001908152602001600020600080820160006101000a81549073ffffffffffffffffffffffffffffffffffffffff021916905560018201600061094a9190614d37565b60028201600061095a9190614d37565b60038201600061096a9190614d37565b600482016000905560058201600090556006820160009055600782016000905560088201600090556009820160006109a29190614d7f565b600a820160006109b29190614d7f565b5050600660003373ffffffffffffffffffffffffffffffffffffffff1673ffffffffffffffffffffffffffffffffffffffff16815260200190815260200160002060008473ffffffffffffffffffffffffffffffffffffffff1673ffffffffffffffffffffffffffffffffffffffff168152602001908152602001600020600080820160006101000a81549073ffffffffffffffffffffffffffffffffffffffff0219169055600182016000610a689190614d37565b600282016000610a789190614d37565b600382016000610a889190614d37565b60048201600090556005820160009055600682016000905560078201600090556008820160009055600982016000610ac09190614d7f565b600a82016000610ad09190614d7f565b505060008090505b600460008573ffffffffffffffffffffffffffffffffffffffff1673ffffffffffffffffffffffffffffffffffffffff16815260200190815260200160002060070154811015610cb0573373ffffffffffffffffffffffffffffffffffffffff16600460008673ffffffffffffffffffffffffffffffffffffffff1673ffffffffffffffffffffffffffffffffffffffff16815260200190815260200160002060090182815481101515610b8857fe5b9060005260206000200160009054906101000a900473ffffffffffffffffffffffffffffffffffffffff1673ffffffffffffffffffffffffffffffffffffffff161415610ca357600460008573ffffffffffffffffffffffffffffffffffffffff1673ffffffffffffffffffffffffffffffffffffffff16815260200190815260200160002060090181815481101515610c1e57fe5b9060005260206000200160006101000a81549073ffffffffffffffffffffffffffffffffffffffff0219169055600460008573ffffffffffffffffffffffffffffffffffffffff1673ffffffffffffffffffffffffffffffffffffffff1681526020019081526020016000206007016000815480929190600190039190505550610cb0565b8080600101915050610ad8565b5060008090505b600460003373ffffffffffffffffffffffffffffffffffffffff1673ffffffffffffffffffffffffffffffffffffffff16815260200190815260200160002060080154811015610e8f578373ffffffffffffffffffffffffffffffffffffffff16600460003373ffffffffffffffffffffffffffffffffffffffff1673ffffffffffffffffffffffffffffffffffffffff168152602001908152602001600020600a0182815481101515610d6757fe5b9060005260206000200160009054906101000a900473ffffffffffffffffffffffffffffffffffffffff1673ffffffffffffffffffffffffffffffffffffffff161415610e8257600460003373ffffffffffffffffffffffffffffffffffffffff1673ffffffffffffffffffffffffffffffffffffffff168152602001908152602001600020600a0181815481101515610dfd57fe5b9060005260206000200160006101000a81549073ffffffffffffffffffffffffffffffffffffffff0219169055600460003373ffffffffffffffffffffffffffffffffffffffff1673ffffffffffffffffffffffffffffffffffffffff1681526020019081526020016000206008016000815480929190600190039190505550610e8f565b8080600101915050610cb7565b50505050565b6060600080905060008090505b600280549050811015610f3c5760076000600283815481101515610ec257fe5b9060005260206000200160009054906101000a900473ffffffffffffffffffffffffffffffffffffffff1673ffffffffffffffffffffffffffffffffffffffff1673ffffffffffffffffffffffffffffffffffffffff16815260200190815260200160002080549050820191508080600101915050610ea2565b50606081604051908082528060200260200182016040528015610f7957816020015b610f66614da0565b815260200190600190039081610f5e5790505b509050600080905060008090505b6002805490508110156114ab5760008090505b60076000600284815481101515610fad57fe5b9060005260206000200160009054906101000a900473ffffffffffffffffffffffffffffffffffffffff1673ffffffffffffffffffffffffffffffffffffffff1673ffffffffffffffffffffffffffffffffffffffff1681526020019081526020016000208054905081101561149d576007600060028481548110151561103057fe5b9060005260206000200160009054906101000a900473ffffffffffffffffffffffffffffffffffffffff1673ffffffffffffffffffffffffffffffffffffffff1673ffffffffffffffffffffffffffffffffffffffff168152602001908152602001600020818154811015156110a257fe5b90600052602060002090600b02016101606040519081016040529081600082015481526020016001820160009054906101000a900473ffffffffffffffffffffffffffffffffffffffff1673ffffffffffffffffffffffffffffffffffffffff1673ffffffffffffffffffffffffffffffffffffffff168152602001600282018054600181600116156101000203166002900480601f0160208091040260200160405190810160405280929190818152602001828054600181600116156101000203166002900480156111b65780601f1061118b576101008083540402835291602001916111b6565b820191906000526020600020905b81548152906001019060200180831161119957829003601f168201915b50505050508152602001600382018054600181600116156101000203166002900480601f0160208091040260200160405190810160405280929190818152602001828054600181600116156101000203166002900480156112585780601f1061122d57610100808354040283529160200191611258565b820191906000526020600020905b81548152906001019060200180831161123b57829003601f168201915b50505050508152602001600482018054600181600116156101000203166002900480601f0160208091040260200160405190810160405280929190818152602001828054600181600116156101000203166002900480156112fa5780601f106112cf576101008083540402835291602001916112fa565b820191906000526020600020905b8154815290600101906020018083116112dd57829003601f168201915b50505050508152602001600582018054600181600116156101000203166002900480601f01602080910402602001604051908101604052809291908181526020018280546001816001161561010002031660029004801561139c5780601f106113715761010080835404028352916020019161139c565b820191906000526020600020905b81548152906001019060200180831161137f57829003601f168201915b50505050508152602001600682018054600181600116156101000203166002900480601f01602080910402602001604051908101604052809291908181526020018280546001816001161561010002031660029004801561143e5780601f106114135761010080835404028352916020019161143e565b820191906000526020600020905b81548152906001019060200180831161142157829003601f168201915b50505050508152602001600782015481526020016008820154815260200160098201548152602001600a82015481525050848481518110151561147d57fe5b906020019060200201819052506001830192508080600101915050610f9a565b508080600101915050610f87565b5081935050505090565b6060600860008373ffffffffffffffffffffffffffffffffffffffff1673ffffffffffffffffffffffffffffffffffffffff16815260200190815260200160002080548060200260200160405190810160405280929190818152602001828054801561154057602002820191906000526020600020905b81548152602001906001019080831161152c575b50505050509050919050565b606081600073ffffffffffffffffffffffffffffffffffffffff16600460008373ffffffffffffffffffffffffffffffffffffffff1673ffffffffffffffffffffffffffffffffffffffff16815260200190815260200160002060000160009054906101000a900473ffffffffffffffffffffffffffffffffffffffff1673ffffffffffffffffffffffffffffffffffffffff1614151515611623576040517f08c379a000000000000000000000000000000000000000000000000000000000815260040161161a90615a44565b60405180910390fd5b600760008473ffffffffffffffffffffffffffffffffffffffff1673ffffffffffffffffffffffffffffffffffffffff168152602001908152602001600020805480602002602001604051908101604052809291908181526020016000905b82821015611a6857838290600052602060002090600b02016101606040519081016040529081600082015481526020016001820160009054906101000a900473ffffffffffffffffffffffffffffffffffffffff1673ffffffffffffffffffffffffffffffffffffffff1673ffffffffffffffffffffffffffffffffffffffff168152602001600282018054600181600116156101000203166002900480601f0160208091040260200160405190810160405280929190818152602001828054600181600116156101000203166002900480156117a05780601f10611775576101008083540402835291602001916117a0565b820191906000526020600020905b81548152906001019060200180831161178357829003601f168201915b50505050508152602001600382018054600181600116156101000203166002900480601f0160208091040260200160405190810160405280929190818152602001828054600181600116156101000203166002900480156118425780601f1061181757610100808354040283529160200191611842565b820191906000526020600020905b81548152906001019060200180831161182557829003601f168201915b50505050508152602001600482018054600181600116156101000203166002900480601f0160208091040260200160405190810160405280929190818152602001828054600181600116156101000203166002900480156118e45780601f106118b9576101008083540402835291602001916118e4565b820191906000526020600020905b8154815290600101906020018083116118c757829003601f168201915b50505050508152602001600582018054600181600116156101000203166002900480601f0160208091040260200160405190810160405280929190818152602001828054600181600116156101000203166002900480156119865780601f1061195b57610100808354040283529160200191611986565b820191906000526020600020905b81548152906001019060200180831161196957829003601f168201915b50505050508152602001600682018054600181600116156101000203166002900480601f016020809104026020016040519081016040528092919081815260200182805460018160011615610100020316600290048015611a285780601f106119fd57610100808354040283529160200191611a28565b820191906000526020600020905b815481529060010190602001808311611a0b57829003601f168201915b50505050508152602001600782015481526020016008820154815260200160098201548152602001600a8201548152505081526020019060010190611682565b50505050915050919050565b600073ffffffffffffffffffffffffffffffffffffffff16600460003373ffffffffffffffffffffffffffffffffffffffff1673ffffffffffffffffffffffffffffffffffffffff16815260200190815260200160002060000160009054906101000a900473ffffffffffffffffffffffffffffffffffffffff1673ffffffffffffffffffffffffffffffffffffffff1614151515611b48576040517f08c379a0000000000000000000000000000000000000000000000000000000008152600401611b3f90615a24565b60405180910390fd5b80600073ffffffffffffffffffffffffffffffffffffffff16600460008373ffffffffffffffffffffffffffffffffffffffff1673ffffffffffffffffffffffffffffffffffffffff16815260200190815260200160002060000160009054906101000a900473ffffffffffffffffffffffffffffffffffffffff1673ffffffffffffffffffffffffffffffffffffffff1614151515611c1d576040517f08c379a0000000000000000000000000000000000000000000000000000000008152600401611c1490615a44565b60405180910390fd5b818073ffffffffffffffffffffffffffffffffffffffff163373ffffffffffffffffffffffffffffffffffffffff1614151515611c8f576040517f08c379a0000000000000000000000000000000000000000000000000000000008152600401611c8690615ac4565b60405180910390fd5b600073ffffffffffffffffffffffffffffffffffffffff16600660003373ffffffffffffffffffffffffffffffffffffffff1673ffffffffffffffffffffffffffffffffffffffff16815260200190815260200160002060008573ffffffffffffffffffffffffffffffffffffffff1673ffffffffffffffffffffffffffffffffffffffff16815260200190815260200160002060000160009054906101000a900473ffffffffffffffffffffffffffffffffffffffff1673ffffffffffffffffffffffffffffffffffffffff16141515611d9f576040517f08c379a0000000000000000000000000000000000000000000000000000000008152600401611d9690615aa4565b60405180910390fd5b600460003373ffffffffffffffffffffffffffffffffffffffff1673ffffffffffffffffffffffffffffffffffffffff168152602001908152602001600020600560008573ffffffffffffffffffffffffffffffffffffffff1673ffffffffffffffffffffffffffffffffffffffff16815260200190815260200160002060003373ffffffffffffffffffffffffffffffffffffffff1673ffffffffffffffffffffffffffffffffffffffff1681526020019081526020016000206000820160009054906101000a900473ffffffffffffffffffffffffffffffffffffffff168160000160006101000a81548173ffffffffffffffffffffffffffffffffffffffff021916908373ffffffffffffffffffffffffffffffffffffffff16021790555060018201816001019080546001816001161561010002031660029004611ee8929190614e11565b5060028201816002019080546001816001161561010002031660029004611f10929190614e11565b5060038201816003019080546001816001161561010002031660029004611f38929190614e11565b5060048201548160040155600582015481600501556006820154816006015560078201548160070155600882015481600801556009820181600901908054611f81929190614e98565b50600a820181600a01908054611f98929190614e98565b50905050600460008473ffffffffffffffffffffffffffffffffffffffff1673ffffffffffffffffffffffffffffffffffffffff168152602001908152602001600020600660003373ffffffffffffffffffffffffffffffffffffffff1673ffffffffffffffffffffffffffffffffffffffff16815260200190815260200160002060008573ffffffffffffffffffffffffffffffffffffffff1673ffffffffffffffffffffffffffffffffffffffff1681526020019081526020016000206000820160009054906101000a900473ffffffffffffffffffffffffffffffffffffffff168160000160006101000a81548173ffffffffffffffffffffffffffffffffffffffff021916908373ffffffffffffffffffffffffffffffffffffffff160217905550600182018160010190805460018160011615610100020316600290046120e5929190614e11565b506002820181600201908054600181600116156101000203166002900461210d929190614e11565b5060038201816003019080546001816001161561010002031660029004612135929190614e11565b506004820154816004015560058201548160050155600682015481600601556007820154816007015560088201548160080155600982018160090190805461217e929190614e98565b50600a820181600a01908054612195929190614e98565b50905050600460008473ffffffffffffffffffffffffffffffffffffffff1673ffffffffffffffffffffffffffffffffffffffff1681526020019081526020016000206009013390806001815401808255809150509060018203906000526020600020016000909192909190916101000a81548173ffffffffffffffffffffffffffffffffffffffff021916908373ffffffffffffffffffffffffffffffffffffffff16021790555050600460003373ffffffffffffffffffffffffffffffffffffffff1673ffffffffffffffffffffffffffffffffffffffff168152602001908152602001600020600a018390806001815401808255809150509060018203906000526020600020016000909192909190916101000a81548173ffffffffffffffffffffffffffffffffffffffff021916908373ffffffffffffffffffffffffffffffffffffffff16021790555050600460008473ffffffffffffffffffffffffffffffffffffffff1673ffffffffffffffffffffffffffffffffffffffff16815260200190815260200160002060070160008154809291906001019190505550600460003373ffffffffffffffffffffffffffffffffffffffff1673ffffffffffffffffffffffffffffffffffffffff16815260200190815260200160002060080160008154809291906001019190505550505050565b600073ffffffffffffffffffffffffffffffffffffffff16600460003373ffffffffffffffffffffffffffffffffffffffff1673ffffffffffffffffffffffffffffffffffffffff16815260200190815260200160002060000160009054906101000a900473ffffffffffffffffffffffffffffffffffffffff1673ffffffffffffffffffffffffffffffffffffffff1614151515612462576040517f08c379a000000000000000000000000000000000000000000000000000000000815260040161245990615a24565b60405180910390fd5b60008090505b6002805490508110156126cb5760008090505b6007600060028481548110151561248e57fe5b9060005260206000200160009054906101000a900473ffffffffffffffffffffffffffffffffffffffff1673ffffffffffffffffffffffffffffffffffffffff1673ffffffffffffffffffffffffffffffffffffffff168152602001908152602001600020805490508110156126bd57826007600060028581548110151561251257fe5b9060005260206000200160009054906101000a900473ffffffffffffffffffffffffffffffffffffffff1673ffffffffffffffffffffffffffffffffffffffff1673ffffffffffffffffffffffffffffffffffffffff1681526020019081526020016000208281548110151561258457fe5b90600052602060002090600b02016000015414156126b057600760006002848154811015156125af57fe5b9060005260206000200160009054906101000a900473ffffffffffffffffffffffffffffffffffffffff1673ffffffffffffffffffffffffffffffffffffffff1673ffffffffffffffffffffffffffffffffffffffff1681526020019081526020016000208181548110151561262157fe5b90600052602060002090600b020160090160008154809291906001019190505550600860003373ffffffffffffffffffffffffffffffffffffffff1673ffffffffffffffffffffffffffffffffffffffff1681526020019081526020016000208390806001815401808255809150509060018203906000526020600020016000909192909190915055506126bd565b808060010191505061247b565b508080600101915050612468565b5050565b6060600960008373ffffffffffffffffffffffffffffffffffffffff1673ffffffffffffffffffffffffffffffffffffffff16815260200190815260200160002080548060200260200160405190810160405280929190818152602001828054801561275a57602002820191906000526020600020905b815481526020019060010190808311612746575b50505050509050919050565b600073ffffffffffffffffffffffffffffffffffffffff16600460003373ffffffffffffffffffffffffffffffffffffffff1673ffffffffffffffffffffffffffffffffffffffff16815260200190815260200160002060000160009054906101000a900473ffffffffffffffffffffffffffffffffffffffff1673ffffffffffffffffffffffffffffffffffffffff161415151561283a576040517f08c379a000000000000000000000000000000000000000000000000000000000815260040161283190615a24565b60405180910390fd5b60008090505b600280549050811015612aa35760008090505b6007600060028481548110151561286657fe5b9060005260206000200160009054906101000a900473ffffffffffffffffffffffffffffffffffffffff1673ffffffffffffffffffffffffffffffffffffffff1673ffffffffffffffffffffffffffffffffffffffff16815260200190815260200160002080549050811015612a955782600760006002858154811015156128ea57fe5b9060005260206000200160009054906101000a900473ffffffffffffffffffffffffffffffffffffffff1673ffffffffffffffffffffffffffffffffffffffff1673ffffffffffffffffffffffffffffffffffffffff1681526020019081526020016000208281548110151561295c57fe5b90600052602060002090600b0201600001541415612a88576007600060028481548110151561298757fe5b9060005260206000200160009054906101000a900473ffffffffffffffffffffffffffffffffffffffff1673ffffffffffffffffffffffffffffffffffffffff1673ffffffffffffffffffffffffffffffffffffffff168152602001908152602001600020818154811015156129f957fe5b90600052602060002090600b0201600a0160008154809291906001019190505550600960003373ffffffffffffffffffffffffffffffffffffffff1673ffffffffffffffffffffffffffffffffffffffff168152602001908152602001600020839080600181540180825580915050906001820390600052602060002001600090919290919091505550612a95565b8080600101915050612853565b508080600101915050612840565b5050565b60008090505b600280549050811015612e375760008090505b60076000600284815481101515612ad357fe5b9060005260206000200160009054906101000a900473ffffffffffffffffffffffffffffffffffffffff1673ffffffffffffffffffffffffffffffffffffffff1673ffffffffffffffffffffffffffffffffffffffff16815260200190815260200160002080549050811015612e29578260076000600285815481101515612b5757fe5b9060005260206000200160009054906101000a900473ffffffffffffffffffffffffffffffffffffffff1673ffffffffffffffffffffffffffffffffffffffff1673ffffffffffffffffffffffffffffffffffffffff16815260200190815260200160002082815481101515612bc957fe5b90600052602060002090600b0201600001541415612e1c57600060076000600285815481101515612bf657fe5b9060005260206000200160009054906101000a900473ffffffffffffffffffffffffffffffffffffffff1673ffffffffffffffffffffffffffffffffffffffff1673ffffffffffffffffffffffffffffffffffffffff16815260200190815260200160002082815481101515612c6857fe5b90600052602060002090600b020160010160009054906101000a900473ffffffffffffffffffffffffffffffffffffffff1690508073ffffffffffffffffffffffffffffffffffffffff166108fc349081150290604051600060405180830381858888f19350505050158015612ce2573d6000803e3d6000fd5b503460076000600286815481101515612cf757fe5b9060005260206000200160009054906101000a900473ffffffffffffffffffffffffffffffffffffffff1673ffffffffffffffffffffffffffffffffffffffff1673ffffffffffffffffffffffffffffffffffffffff16815260200190815260200160002083815481101515612d6957fe5b90600052602060002090600b0201600801540160076000600286815481101515612d8f57fe5b9060005260206000200160009054906101000a900473ffffffffffffffffffffffffffffffffffffffff1673ffffffffffffffffffffffffffffffffffffffff1673ffffffffffffffffffffffffffffffffffffffff16815260200190815260200160002083815481101515612e0157fe5b90600052602060002090600b02016008018190555050612e29565b8080600101915050612ac0565b508080600101915050612aad565b5050565b60008054600181600116156101000203166002900480601f016020809104026020016040519081016040528092919081815260200182805460018160011615610100020316600290048015612ed15780601f10612ea657610100808354040283529160200191612ed1565b820191906000526020600020905b815481529060010190602001808311612eb457829003601f168201915b505050505081565b600b5481565b6060600c805480602002602001604051908101604052809291908181526020016000905b828210156131a5578382906000526020600020906009020161012060405190810160405290816000820160009054906101000a900473ffffffffffffffffffffffffffffffffffffffff1673ffffffffffffffffffffffffffffffffffffffff1673ffffffffffffffffffffffffffffffffffffffff168152602001600182018054600181600116156101000203166002900480601f0160208091040260200160405190810160405280929190818152602001828054600181600116156101000203166002900480156130175780601f10612fec57610100808354040283529160200191613017565b820191906000526020600020905b815481529060010190602001808311612ffa57829003601f168201915b50505050508152602001600282018054600181600116156101000203166002900480601f0160208091040260200160405190810160405280929190818152602001828054600181600116156101000203166002900480156130b95780601f1061308e576101008083540402835291602001916130b9565b820191906000526020600020905b81548152906001019060200180831161309c57829003601f168201915b50505050508152602001600382018054600181600116156101000203166002900480601f01602080910402602001604051908101604052809291908181526020018280546001816001161561010002031660029004801561315b5780601f106131305761010080835404028352916020019161315b565b820191906000526020600020905b81548152906001019060200180831161313e57829003601f168201915b505050505081526020016004820154815260200160058201548152602001600682015481526020016007820154815260200160088201548152505081526020019060010190612f03565b50505050905090565b6060600280548060200260200160405190810160405280929190818152602001828054801561323257602002820191906000526020600020905b8160009054906101000a900473ffffffffffffffffffffffffffffffffffffffff1673ffffffffffffffffffffffffffffffffffffffff16815260200190600101908083116131e8575b5050505050905090565b6000600280549050905090565b60046020528060005260406000206000915090508060000160009054906101000a900473ffffffffffffffffffffffffffffffffffffffff1690806001018054600181600116156101000203166002900480601f01602080910402602001604051908101604052809291908181526020018280546001816001161561010002031660029004801561331b5780601f106132f05761010080835404028352916020019161331b565b820191906000526020600020905b8154815290600101906020018083116132fe57829003601f168201915b505050505090806002018054600181600116156101000203166002900480601f0160208091040260200160405190810160405280929190818152602001828054600181600116156101000203166002900480156133b95780601f1061338e576101008083540402835291602001916133b9565b820191906000526020600020905b81548152906001019060200180831161339c57829003601f168201915b505050505090806003018054600181600116156101000203166002900480601f0160208091040260200160405190810160405280929190818152602001828054600181600116156101000203166002900480156134575780601f1061342c57610100808354040283529160200191613457565b820191906000526020600020905b81548152906001019060200180831161343a57829003601f168201915b5050505050908060040154908060050154908060060154908060070154908060080154905089565b8260405160200180600001905060405160208183030381529060405280519060200120816040516020018082805190602001908083835b6020831015156134db57805182526020820191506020810190506020830392506134b6565b6001836020036101000a0380198251168184511680821785525050505050509050019150506040516020818303038152906040528051906020012014151515613559576040517f08c379a0000000000000000000000000000000000000000000000000000000008152600401613550906159e4565b60405180910390fd5b600073ffffffffffffffffffffffffffffffffffffffff16600460003373ffffffffffffffffffffffffffffffffffffffff1673ffffffffffffffffffffffffffffffffffffffff16815260200190815260200160002060000160009054906101000a900473ffffffffffffffffffffffffffffffffffffffff1673ffffffffffffffffffffffffffffffffffffffff1614151561362c576040517f08c379a000000000000000000000000000000000000000000000000000000000815260040161362390615a04565b60405180910390fd5b600073ffffffffffffffffffffffffffffffffffffffff166003856040518082805190602001908083835b60208310151561367c5780518252602082019150602081019050602083039250613657565b6001836020036101000a038019825116818451168082178552505050505050905001915050908152602001604051809103902060009054906101000a900473ffffffffffffffffffffffffffffffffffffffff1673ffffffffffffffffffffffffffffffffffffffff16141515613728576040517f08c379a000000000000000000000000000000000000000000000000000000000815260040161371f90615a84565b60405180910390fd5b600b600081548092919060010191905055506000600b549050336003866040518082805190602001908083835b60208310151561377a5780518252602082019150602081019050602083039250613755565b6001836020036101000a038019825116818451168082178552505050505050905001915050908152602001604051809103902060006101000a81548173ffffffffffffffffffffffffffffffffffffffff021916908373ffffffffffffffffffffffffffffffffffffffff160217905550610160604051908101604052803373ffffffffffffffffffffffffffffffffffffffff16815260200186815260200185815260200184815260200142815260200182815260200160008152602001600081526020016000815260200160006040519080825280602002602001820160405280156138775781602001602082028038833980820191505090505b50815260200160006040519080825280602002602001820160405280156138ad5781602001602082028038833980820191505090505b50815250600460003373ffffffffffffffffffffffffffffffffffffffff1673ffffffffffffffffffffffffffffffffffffffff16815260200190815260200160002060008201518160000160006101000a81548173ffffffffffffffffffffffffffffffffffffffff021916908373ffffffffffffffffffffffffffffffffffffffff1602179055506020820151816001019080519060200190613953929190614eea565b506040820151816002019080519060200190613970929190614eea565b50606082015181600301908051906020019061398d929190614eea565b506080820151816004015560a0820151816005015560c0820151816006015560e0820151816007015561010082015181600801556101208201518160090190805190602001906139de929190614f6a565b5061014082015181600a0190805190602001906139fc929190614f6a565b5090505060023390806001815401808255809150509060018203906000526020600020016000909192909190916101000a81548173ffffffffffffffffffffffffffffffffffffffff021916908373ffffffffffffffffffffffffffffffffffffffff16021790555050600c610120604051908101604052803373ffffffffffffffffffffffffffffffffffffffff168152602001878152602001868152602001858152602001428152602001838152602001600081526020016000815260200160008152509080600181540180825580915050906001820390600052602060002090600902016000909192909190915060008201518160000160006101000a81548173ffffffffffffffffffffffffffffffffffffffff021916908373ffffffffffffffffffffffffffffffffffffffff1602179055506020820151816001019080519060200190613b50929190614eea565b506040820151816002019080519060200190613b6d929190614eea565b506060820151816003019080519060200190613b8a929190614eea565b506080820151816004015560a0820151816005015560c0820151816006015560e0820151816007015561010082015181600801555050505050505050565b606081600073ffffffffffffffffffffffffffffffffffffffff16600460008373ffffffffffffffffffffffffffffffffffffffff1673ffffffffffffffffffffffffffffffffffffffff16815260200190815260200160002060000160009054906101000a900473ffffffffffffffffffffffffffffffffffffffff1673ffffffffffffffffffffffffffffffffffffffff1614151515613c9f576040517f08c379a0000000000000000000000000000000000000000000000000000000008152600401613c9690615a44565b60405180910390fd5b600460008473ffffffffffffffffffffffffffffffffffffffff1673ffffffffffffffffffffffffffffffffffffffff168152602001908152602001600020600901805480602002602001604051908101604052809291908181526020018280548015613d6157602002820191906000526020600020905b8160009054906101000a900473ffffffffffffffffffffffffffffffffffffffff1673ffffffffffffffffffffffffffffffffffffffff1681526020019060010190808311613d17575b5050505050915050919050565b6060600460008373ffffffffffffffffffffffffffffffffffffffff1673ffffffffffffffffffffffffffffffffffffffff168152602001908152602001600020600a01805480602002602001604051908101604052809291908181526020018280548015613e3257602002820191906000526020600020905b8160009054906101000a900473ffffffffffffffffffffffffffffffffffffffff1673ffffffffffffffffffffffffffffffffffffffff1681526020019060010190808311613de8575b50505050509050919050565b600073ffffffffffffffffffffffffffffffffffffffff16600460003373ffffffffffffffffffffffffffffffffffffffff1673ffffffffffffffffffffffffffffffffffffffff16815260200190815260200160002060000160009054906101000a900473ffffffffffffffffffffffffffffffffffffffff1673ffffffffffffffffffffffffffffffffffffffff1614151515613f12576040517f08c379a0000000000000000000000000000000000000000000000000000000008152600401613f0990615a24565b60405180910390fd5b60008090505b6002805490508110156141135760008090505b60076000600284815481101515613f3e57fe5b9060005260206000200160009054906101000a900473ffffffffffffffffffffffffffffffffffffffff1673ffffffffffffffffffffffffffffffffffffffff1673ffffffffffffffffffffffffffffffffffffffff16815260200190815260200160002080549050811015614105578260076000600285815481101515613fc257fe5b9060005260206000200160009054906101000a900473ffffffffffffffffffffffffffffffffffffffff1673ffffffffffffffffffffffffffffffffffffffff1673ffffffffffffffffffffffffffffffffffffffff1681526020019081526020016000208281548110151561403457fe5b90600052602060002090600b02016000015414156140f8576007600060028481548110151561405f57fe5b9060005260206000200160009054906101000a900473ffffffffffffffffffffffffffffffffffffffff1673ffffffffffffffffffffffffffffffffffffffff1673ffffffffffffffffffffffffffffffffffffffff168152602001908152602001600020818154811015156140d157fe5b90600052602060002090600b0201600a016000815480929190600190039190505550614105565b8080600101915050613f2b565b508080600101915050613f18565b5060008090505b600960003373ffffffffffffffffffffffffffffffffffffffff1673ffffffffffffffffffffffffffffffffffffffff1681526020019081526020016000208054905081101561432a57600960003373ffffffffffffffffffffffffffffffffffffffff1673ffffffffffffffffffffffffffffffffffffffff168152602001908152602001600020818154811015156141b057fe5b906000526020600020015482141561431d57600960003373ffffffffffffffffffffffffffffffffffffffff1673ffffffffffffffffffffffffffffffffffffffff1681526020019081526020016000206001600960003373ffffffffffffffffffffffffffffffffffffffff1673ffffffffffffffffffffffffffffffffffffffff168152602001908152602001600020805490500381548110151561425357fe5b9060005260206000200154600960003373ffffffffffffffffffffffffffffffffffffffff1673ffffffffffffffffffffffffffffffffffffffff168152602001908152602001600020828154811015156142aa57fe5b9060005260206000200181905550600960003373ffffffffffffffffffffffffffffffffffffffff1673ffffffffffffffffffffffffffffffffffffffff168152602001908152602001600020805480151561430257fe5b6001900381819060005260206000200160009055905561432a565b808060010191505061411a565b5050565b600073ffffffffffffffffffffffffffffffffffffffff16600460003373ffffffffffffffffffffffffffffffffffffffff1673ffffffffffffffffffffffffffffffffffffffff16815260200190815260200160002060000160009054906101000a900473ffffffffffffffffffffffffffffffffffffffff1673ffffffffffffffffffffffffffffffffffffffff1614151515614402576040517f08c379a00000000000000000000000000000000000000000000000000000000081526004016143f990615a24565b60405180910390fd5b600a600081548092919060010191905055506000600a549050614423614ff4565b610160604051908101604052808381526020013373ffffffffffffffffffffffffffffffffffffffff168152602001600460003373ffffffffffffffffffffffffffffffffffffffff1673ffffffffffffffffffffffffffffffffffffffff1681526020019081526020016000206001018054600181600116156101000203166002900480601f0160208091040260200160405190810160405280929190818152602001828054600181600116156101000203166002900480156145285780601f106144fd57610100808354040283529160200191614528565b820191906000526020600020905b81548152906001019060200180831161450b57829003601f168201915b50505050508152602001600460003373ffffffffffffffffffffffffffffffffffffffff1673ffffffffffffffffffffffffffffffffffffffff1681526020019081526020016000206003018054600181600116156101000203166002900480601f0160208091040260200160405190810160405280929190818152602001828054600181600116156101000203166002900480156146085780601f106145dd57610100808354040283529160200191614608565b820191906000526020600020905b8154815290600101906020018083116145eb57829003601f168201915b5050505050815260200184815260200185815260200186815260200142815260200160008152602001600081526020016000815250905060076000826020015173ffffffffffffffffffffffffffffffffffffffff1673ffffffffffffffffffffffffffffffffffffffff168152602001908152602001600020819080600181540180825580915050906001820390600052602060002090600b0201600090919290919091506000820151816000015560208201518160010160006101000a81548173ffffffffffffffffffffffffffffffffffffffff021916908373ffffffffffffffffffffffffffffffffffffffff160217905550604082015181600201908051906020019061471b929190614eea565b506060820151816003019080519060200190614738929190614eea565b506080820151816004019080519060200190614755929190614eea565b5060a0820151816005019080519060200190614772929190614eea565b5060c082015181600601908051906020019061478f929190614eea565b5060e082015181600701556101008201518160080155610120820151816009015561014082015181600a015550505060046000826020015173ffffffffffffffffffffffffffffffffffffffff1673ffffffffffffffffffffffffffffffffffffffff168152602001908152602001600020600601600081548092919060010191905055505050505050565b600a5481565b600160009054906101000a900473ffffffffffffffffffffffffffffffffffffffff1681565b600073ffffffffffffffffffffffffffffffffffffffff16600460003373ffffffffffffffffffffffffffffffffffffffff1673ffffffffffffffffffffffffffffffffffffffff16815260200190815260200160002060000160009054906101000a900473ffffffffffffffffffffffffffffffffffffffff1673ffffffffffffffffffffffffffffffffffffffff161415151561491b576040517f08c379a000000000000000000000000000000000000000000000000000000000815260040161491290615a24565b60405180910390fd5b60008090505b600280549050811015614b1c5760008090505b6007600060028481548110151561494757fe5b9060005260206000200160009054906101000a900473ffffffffffffffffffffffffffffffffffffffff1673ffffffffffffffffffffffffffffffffffffffff1673ffffffffffffffffffffffffffffffffffffffff16815260200190815260200160002080549050811015614b0e5782600760006002858154811015156149cb57fe5b9060005260206000200160009054906101000a900473ffffffffffffffffffffffffffffffffffffffff1673ffffffffffffffffffffffffffffffffffffffff1673ffffffffffffffffffffffffffffffffffffffff16815260200190815260200160002082815481101515614a3d57fe5b90600052602060002090600b0201600001541415614b015760076000600284815481101515614a6857fe5b9060005260206000200160009054906101000a900473ffffffffffffffffffffffffffffffffffffffff1673ffffffffffffffffffffffffffffffffffffffff1673ffffffffffffffffffffffffffffffffffffffff16815260200190815260200160002081815481101515614ada57fe5b90600052602060002090600b02016009016000815480929190600190039190505550614b0e565b8080600101915050614934565b508080600101915050614921565b5060008090505b600860003373ffffffffffffffffffffffffffffffffffffffff1673ffffffffffffffffffffffffffffffffffffffff16815260200190815260200160002080549050811015614d3357600860003373ffffffffffffffffffffffffffffffffffffffff1673ffffffffffffffffffffffffffffffffffffffff16815260200190815260200160002081815481101515614bb957fe5b9060005260206000200154821415614d2657600860003373ffffffffffffffffffffffffffffffffffffffff1673ffffffffffffffffffffffffffffffffffffffff1681526020019081526020016000206001600860003373ffffffffffffffffffffffffffffffffffffffff1673ffffffffffffffffffffffffffffffffffffffff1681526020019081526020016000208054905003815481101515614c5c57fe5b9060005260206000200154600860003373ffffffffffffffffffffffffffffffffffffffff1673ffffffffffffffffffffffffffffffffffffffff16815260200190815260200160002082815481101515614cb357fe5b9060005260206000200181905550600860003373ffffffffffffffffffffffffffffffffffffffff1673ffffffffffffffffffffffffffffffffffffffff1681526020019081526020016000208054801515614d0b57fe5b60019003818190600052602060002001600090559055614d33565b8080600101915050614b23565b5050565b50805460018160011615610100020316600290046000825580601f10614d5d5750614d7c565b601f016020900490600052602060002090810190614d7b9190615065565b5b50565b5080546000825590600052602060002090810190614d9d9190615065565b50565b6101606040519081016040528060008152602001600073ffffffffffffffffffffffffffffffffffffffff1681526020016060815260200160608152602001606081526020016060815260200160608152602001600081526020016000815260200160008152602001600081525090565b828054600181600116156101000203166002900490600052602060002090601f016020900481019282601f10614e4a5780548555614e87565b82800160010185558215614e8757600052602060002091601f016020900482015b82811115614e86578254825591600101919060010190614e6b565b5b509050614e949190615065565b5090565b828054828255906000526020600020908101928215614ed95760005260206000209182015b82811115614ed8578254825591600101919060010190614ebd565b5b509050614ee6919061508a565b5090565b828054600181600116156101000203166002900490600052602060002090601f016020900481019282601f10614f2b57805160ff1916838001178555614f59565b82800160010185558215614f59579182015b82811115614f58578251825591602001919060010190614f3d565b5b509050614f669190615065565b5090565b828054828255906000526020600020908101928215614fe3579160200282015b82811115614fe25782518260006101000a81548173ffffffffffffffffffffffffffffffffffffffff021916908373ffffffffffffffffffffffffffffffffffffffff16021790555091602001919060010190614f8a565b5b509050614ff0919061508a565b5090565b6101606040519081016040528060008152602001600073ffffffffffffffffffffffffffffffffffffffff1681526020016060815260200160608152602001606081526020016060815260200160608152602001600081526020016000815260200160008152602001600081525090565b61508791905b8082111561508357600081600090555060010161506b565b5090565b90565b6150ca91905b808211156150c657600081816101000a81549073ffffffffffffffffffffffffffffffffffffffff021916905550600101615090565b5090565b90565b60006150d98235615c45565b905092915050565b600082601f83011215156150f457600080fd5b813561510761510282615b2c565b615aff565b9150808252602083016020830185838301111561512357600080fd5b61512e838284615c61565b50505092915050565b60006151438235615c57565b905092915050565b60006020828403121561515d57600080fd5b600061516b848285016150cd565b91505092915050565b60008060006060848603121561518957600080fd5b600084013567ffffffffffffffff8111156151a357600080fd5b6151af868287016150e1565b935050602084013567ffffffffffffffff8111156151cc57600080fd5b6151d8868287016150e1565b925050604084013567ffffffffffffffff8111156151f557600080fd5b615201868287016150e1565b9150509250925092565b60006020828403121561521d57600080fd5b600061522b84828501615137565b91505092915050565b61523d81615c09565b82525050565b61524c81615bf7565b82525050565b600061525d82615b8c565b80845260208401935061526f83615b58565b60005b828110156152a157615285868351615243565b61528e82615bc3565b9150602086019550600181019050615272565b50849250505092915050565b60006152b882615b97565b808452602084019350836020820285016152d185615b65565b60005b8481101561530a5783830388526152ec838351615690565b92506152f782615bd0565b91506020880197506001810190506152d4565b508196508694505050505092915050565b600061532682615ba2565b8084526020840193508360208202850161533f85615b72565b60005b8481101561537857838303885261535a838351615763565b925061536582615bdd565b9150602088019750600181019050615342565b508196508694505050505092915050565b600061539482615bad565b8084526020840193506153a683615b7f565b60005b828110156153d8576153bc86835161586e565b6153c582615bea565b91506020860195506001810190506153a9565b50849250505092915050565b60006153ef82615bb8565b808452615403816020860160208601615c70565b61540c81615ca3565b602085010191505092915050565b6000601e82527f4552524f523a203c496e7075742063616e6e6f7420626520656d7074793e00006020830152604082019050919050565b6000602c82527f4552524f523a203c596f75206861766520616c7265616479206372656174656460208301527f20616e206163636f756e743e00000000000000000000000000000000000000006040830152606082019050919050565b6000603582527f4552524f523a203c4d7573742063726561746520612070726f66696c6520746f60208301527f20706572666f726d207468697320616374696f6e3e00000000000000000000006040830152606082019050919050565b6000601f82527f4552524f523a203c50726f66696c6520646f6573206e6f742065786973743e006020830152604082019050919050565b6000602f82527f4552524f523a203c596f7520616c726561647920646f206e6f7420666f6c6c6f60208301527f7720746869732070726f66696c653e00000000000000000000000000000000006040830152606082019050919050565b6000601782527f4552524f523a203c557365726e616d652074616b656e3e0000000000000000006020830152604082019050919050565b6000602882527f4552524f523a203c596f7520616c726561647920666f6c6c6f7720746869732060208301527f70726f66696c653e0000000000000000000000000000000000000000000000006040830152606082019050919050565b6000602a82527f4552524f52203c596f752063616e6e6f7420666f6c6c6f772f756e666f6c6c6f60208301527f7720796f757273656c66000000000000000000000000000000000000000000006040830152606082019050919050565b6000610120830160008301516156a96000860182615243565b50602083015184820360208601526156c182826153e4565b915050604083015184820360408601526156db82826153e4565b915050606083015184820360608601526156f582826153e4565b915050608083015161570a608086018261586e565b5060a083015161571d60a086018261586e565b5060c083015161573060c086018261586e565b5060e083015161574360e086018261586e565b5061010083015161575861010086018261586e565b508091505092915050565b60006101608301600083015161577c600086018261586e565b50602083015161578f6020860182615234565b50604083015184820360408601526157a782826153e4565b915050606083015184820360608601526157c182826153e4565b915050608083015184820360808601526157db82826153e4565b91505060a083015184820360a08601526157f582826153e4565b91505060c083015184820360c086015261580f82826153e4565b91505060e083015161582460e086018261586e565b5061010083015161583961010086018261586e565b5061012083015161584e61012086018261586e565b5061014083015161586361014086018261586e565b508091505092915050565b61587781615c3b565b82525050565b60006020820190506158926000830184615243565b92915050565b6000610120820190506158ae600083018c615243565b81810360208301526158c0818b6153e4565b905081810360408301526158d4818a6153e4565b905081810360608301526158e881896153e4565b90506158f7608083018861586e565b61590460a083018761586e565b61591160c083018661586e565b61591e60e083018561586e565b61592c61010083018461586e565b9a9950505050505050505050565b600060208201905081810360008301526159548184615252565b905092915050565b6000602082019050818103600083015261597681846152ad565b905092915050565b60006020820190508181036000830152615998818461531b565b905092915050565b600060208201905081810360008301526159ba8184615389565b905092915050565b600060208201905081810360008301526159dc81846153e4565b905092915050565b600060208201905081810360008301526159fd8161541a565b9050919050565b60006020820190508181036000830152615a1d81615451565b9050919050565b60006020820190508181036000830152615a3d816154ae565b9050919050565b60006020820190508181036000830152615a5d8161550b565b9050919050565b60006020820190508181036000830152615a7d81615542565b9050919050565b60006020820190508181036000830152615a9d8161559f565b9050919050565b60006020820190508181036000830152615abd816155d6565b9050919050565b60006020820190508181036000830152615add81615633565b9050919050565b6000602082019050615af9600083018461586e565b92915050565b6000604051905081810181811067ffffffffffffffff82111715615b2257600080fd5b8060405250919050565b600067ffffffffffffffff821115615b4357600080fd5b601f19601f8301169050602081019050919050565b6000602082019050919050565b6000602082019050919050565b6000602082019050919050565b6000602082019050919050565b600081519050919050565b600081519050919050565b600081519050919050565b600081519050919050565b600081519050919050565b6000602082019050919050565b6000602082019050919050565b6000602082019050919050565b6000602082019050919050565b6000615c0282615c1b565b9050919050565b6000615c1482615c1b565b9050919050565b600073ffffffffffffffffffffffffffffffffffffffff82169050919050565b6000819050919050565b6000615c5082615c1b565b9050919050565b6000819050919050565b82818337600083830152505050565b60005b83811015615c8e578082015181840152602081019050615c73565b83811115615c9d576000848401525b50505050565b6000601f19601f830116905091905056fea265627a7a72305820a47c40a9842e836a72f7fbb3eca102f84114f10e7bbe16ddeef191e85f4bc1f76c6578706572696d656e74616cf50037",
  "source": "pragma solidity ^0.5.0;\npragma experimental ABIEncoderV2;\n\ncontract Decentragram {\n    string public contractName;\n    address public admin;\n    address[] internal addresses;\n    mapping(string => address) internal names;\n    // to map from the user account address to related profile struct\n    mapping(address => Profile) public profiles;\n    mapping(address => mapping(address => Profile)) internal followers;\n    mapping(address => mapping(address => Profile)) internal following;\n    // to map from the author's account address to the array of related posts created\n    mapping(address => Post[]) internal posts;\n    mapping(address => uint[]) internal likedPosts;\n    mapping(address => uint[]) internal dislikedPosts;\n\n    //GREATING DI\n    uint256 public _postID;\n    uint256 public _userID;\n\n    // Profile\n    struct Profile {\n        address owner;\n        string username;\n        string biography;\n        string profilePictureURL;\n        uint timeCreated;\n        uint id;\n        uint postCount;\n        uint followerCount;\n        uint followingCount;\n        address[] followers;\n        address[] following;\n    }\n\n    // struct User {\n    //     string username;\n    //     string biography;\n    //     string profilePictureURL;\n    //     Friend[] friends;\n    // }\n\n    // struct Friend {\n    //     address pubkey;\n    //     string username;\n    // }\n\n    struct Post {\n        uint postId;\n        address payable author;\n        string username;\n        string profilePictureURL;\n        string postType;\n        string postURL;\n        string postDescription;\n        uint timeCreated;\n        uint tipAmount;\n        uint likes;\n        uint dislikes;\n    }\n\n    struct AllUserStruct {\n        address owner;\n        string username;\n        string biography;\n        string profilePictureURL;\n        uint timeCreated;\n        uint id;\n        uint postCount;\n        uint followerCount;\n        uint followingCount;\n    }\n\n    AllUserStruct[] getAllUsers; // array to store all the registered users\n\n    // Check if message sender has a created profile\n    modifier senderHasProfile() {\n        require(\n            profiles[msg.sender].owner != address(0x0),\n            \"ERROR: <Must create a profile to perform this action>\"\n        );\n        _;\n    }\n\n    // Check if a specified address has created a profile\n    modifier profileExists(address _address) {\n        require(\n            profiles[_address].owner != address(0x0),\n            \"ERROR: <Profile does not exist>\"\n        );\n        _;\n    }\n\n    // Check that the message sender is not specifying an address that is itself\n    modifier notSelf(address _address) {\n        require(\n            msg.sender != _address,\n            \"ERROR <You cannot follow/unfollow yourself\"\n        );\n        _;\n    }\n\n    // Check that the input is not empty\n    modifier nonEmptyInput(string memory _input) {\n        require(\n            keccak256(abi.encodePacked(_input)) !=\n                keccak256(abi.encodePacked(\"\")),\n            \"ERROR: <Input cannot be empty>\"\n        );\n        _;\n    }\n\n    // events for contract\n\n    /*event UserCreated(string username, string biography, string profileImgHash);\n    event PostCreated(\n        uint id,\n        address payable postAuthor,\n        string imgHash,\n        string content,\n        uint timestamp,\n        uint tipAmount,\n        uint likes,\n        uint dislikes\n    );\n    event PostLiked(\n        address liker,\n        address postAuthor,\n        uint postid,\n        uint newLikeCount\n    );\n    event PostUnLiked(\n        address unliker,\n        address postAuthor,\n        uint postid,\n        uint newLikeCount\n    );\n    event PostDisliked(\n        address disliker,\n        address postAuthor,\n        uint postid,\n        uint newDislikeCount\n    );\n    event PostUnDisliked(\n        address unDisliker,\n        address postAuthor,\n        uint postid,\n        uint newDislikeCount\n    );\n\n    event ImageCreated(\n        uint id,\n        string hash,\n        string description,\n        uint tipAmount,\n        address payable author\n    );\n\n    event ImageTipped(\n        uint id,\n        string hash,\n        string description,\n        uint tipAmount,\n        address payable author\n    );\n    */\n    constructor() public {\n        contractName = \"Decentragram\";\n        admin = msg.sender;\n    }\n\n    // Create a new profile from a given username\n    function createAccount(\n        string memory _username,\n        string memory _biography,\n        string memory _profilePictureURL\n    ) public nonEmptyInput(_username) {\n        // Checks that the current account did not already make a profile and did not choose a taken username\n        require(\n            profiles[msg.sender].owner == address(0x0),\n            \"ERROR: <You have already created an account>\"\n        );\n        require(names[_username] == address(0x0), \"ERROR: <Username taken>\");\n        //Increment User ID\n        _userID++;\n        uint256 userID = _userID;\n\n        // Updates username list\n        names[_username] = msg.sender;\n\n        // Create the new profile object and add it to \"profiles\" mapping\n        profiles[msg.sender] = Profile({\n            owner: msg.sender,\n            username: _username,\n            biography: _biography,\n            profilePictureURL: _profilePictureURL,\n            timeCreated: block.timestamp,\n            id: userID,\n            postCount: 0,\n            followerCount: 0,\n            followingCount: 0,\n            followers: new address[](0x0),\n            following: new address[](0x0)\n        });\n\n        // Add address to list of global addresses\n        addresses.push(msg.sender);\n\n        // users[msg.sender].username = _username;\n        // users[msg.sender].biography = _biography;\n        // users[msg.sender].profilePictureHash = _profilePictureHash;\n\n        getAllUsers.push(\n            AllUserStruct(\n                msg.sender,\n                _username,\n                _biography,\n                _profilePictureURL,\n                block.timestamp,\n                userID,\n                0,\n                0,\n                0\n            )\n        );\n    }\n\n    // Follow a new profile\n    function follow(\n        address _address\n    ) external senderHasProfile profileExists(_address) notSelf(_address) {\n        require(\n            following[msg.sender][_address].owner == address(0x0),\n            \"ERROR: <You already follow this profile>\"\n        );\n\n        // Add entry to \"followers\" and \"following\" mappings\n        followers[_address][msg.sender] = profiles[msg.sender];\n        following[msg.sender][_address] = profiles[_address];\n\n        // Add element to \"followers\" and \"following\" arrays in both Profile objects\n        profiles[_address].followers.push(msg.sender);\n        profiles[msg.sender].following.push(_address);\n\n        // Increment \"followerCount\" and \"followingCount\" in both Profile objects\n        profiles[_address].followerCount++;\n        profiles[msg.sender].followingCount++;\n    }\n\n    // Unfollow a profile\n    // This deletion operation has a time complexity of O(N), is there a better way to do this?\n    function unfollow(\n        address _address\n    ) external senderHasProfile profileExists(_address) notSelf(_address) {\n        require(\n            following[msg.sender][_address].owner != address(0x0),\n            \"ERROR: <You already do not follow this profile>\"\n        );\n\n        // Delete entry from \"followers\" and \"following\" mappings\n        delete followers[_address][msg.sender];\n        delete following[msg.sender][_address];\n\n        // Delete element from \"followers\" array in Profile object and decrement followerCount\n        for (uint i = 0; i < profiles[_address].followerCount; i++) {\n            if (profiles[_address].followers[i] == msg.sender) {\n                delete profiles[_address].followers[i];\n                profiles[_address].followerCount--;\n                break;\n            }\n        }\n\n        // Delete element from \"following\" array in Profile object and decrement followingCount\n        for (uint i = 0; i < profiles[msg.sender].followingCount; i++) {\n            if (profiles[msg.sender].following[i] == _address) {\n                delete profiles[msg.sender].following[i];\n                profiles[msg.sender].followingCount--;\n                break;\n            }\n        }\n    }\n\n    //Create a Post\n    function createPost(\n        string memory _postDescription,\n        string memory _postURL,\n        string memory _postType\n    ) public senderHasProfile {\n        _postID++;\n        uint256 postID = _postID;\n\n        Post memory newPost = Post({\n            postId: postID,\n            author: msg.sender,\n            username: profiles[msg.sender].username,\n            profilePictureURL: profiles[msg.sender].profilePictureURL,\n            postType: _postType,\n            postURL: _postURL,\n            postDescription: _postDescription,\n            timeCreated: block.timestamp,\n            tipAmount: 0,\n            likes: 0,\n            dislikes: 0\n        });\n\n        // Add entry to \"posts\" mappings\n        posts[newPost.author].push(newPost);\n\n        // Increment \"postCount\" in Profile object\n        profiles[newPost.author].postCount++;\n    }\n\n    // like post\n    function likePost(uint256 _postId) external senderHasProfile {\n        for (uint i = 0; i < addresses.length; i++) {\n            for (uint j = 0; j < posts[addresses[i]].length; j++) {\n                if (posts[addresses[i]][j].postId == _postId) {\n                    posts[addresses[i]][j].likes++;\n                    likedPosts[msg.sender].push(_postId);\n                    break;\n                }\n            }\n        }\n    }\n    // Unlike post\n    function unlikePost(uint256 _postId) external senderHasProfile {\n        for (uint i = 0; i < addresses.length; i++) {\n            for (uint j = 0; j < posts[addresses[i]].length; j++) {\n                if (posts[addresses[i]][j].postId == _postId) {\n                    posts[addresses[i]][j].likes--;\n                    break;\n                }\n            }\n        }\n        for (uint i = 0; i < likedPosts[msg.sender].length; i++) {\n            if (_postId == likedPosts[msg.sender][i]) {\n                likedPosts[msg.sender][i] = likedPosts[msg.sender][\n                    likedPosts[msg.sender].length - 1\n                ];\n                likedPosts[msg.sender].pop();\n                break;\n            }\n        }\n    }\n\n    // dislike post\n    function dislikePost(uint256 _postId) external senderHasProfile {\n        for (uint i = 0; i < addresses.length; i++) {\n            for (uint j = 0; j < posts[addresses[i]].length; j++) {\n                if (posts[addresses[i]][j].postId == _postId) {\n                    posts[addresses[i]][j].dislikes++;\n                    dislikedPosts[msg.sender].push(_postId);\n                    break;\n                }\n            }\n        }\n    }\n\n    // undislike post\n    function undislikePost(uint256 _postId) external senderHasProfile {\n        for (uint i = 0; i < addresses.length; i++) {\n            for (uint j = 0; j < posts[addresses[i]].length; j++) {\n                if (posts[addresses[i]][j].postId == _postId) {\n                    posts[addresses[i]][j].dislikes--;\n                    break;\n                }\n            }\n        }\n        for (uint i = 0; i < dislikedPosts[msg.sender].length; i++) {\n            if (_postId == dislikedPosts[msg.sender][i]) {\n                dislikedPosts[msg.sender][i] = dislikedPosts[msg.sender][\n                    dislikedPosts[msg.sender].length - 1\n                ];\n                dislikedPosts[msg.sender].pop();\n                break;\n            }\n        }\n    }\n\n    // tip post\n    function tipPost(uint256 _postId) external payable {\n        for (uint i = 0; i < addresses.length; i++) {\n            for (uint j = 0; j < posts[addresses[i]].length; j++) {\n                if (posts[addresses[i]][j].postId == _postId) {\n                    address payable _author = posts[addresses[i]][j].author;\n                    address(_author).transfer(msg.value);\n                    posts[addresses[i]][j].tipAmount =\n                        posts[addresses[i]][j].tipAmount +\n                        msg.value;\n                    break;\n                }\n            }\n        }\n    }\n\n    // tip post\n    /*function tipImageOwner(uint256 _postId) external payable {\n        for (uint i = 0; i < addresses.length; i++) {\n            for (uint j = 0; j < posts[addresses[i]].length; j++) {\n                if (posts[addresses[i]][j].postId == _postId) {\n                    address payable _author = posts[addresses[i]][j].author;\n                    address(_author).transfer(msg.value);\n                    posts[addresses[i]][j].tipAmount =\n                        posts[addresses[i]][j].tipAmount +\n                        msg.value;\n                    break;\n                }\n            }\n        }\n        // Make sure the id is valid\n        require(_id > 0 && _id <= imageCount);\n        // Fetch the image\n        Image memory _image = images[_id];\n        // Fetch the author\n        address payable _author = _image.author;\n        // Pay the author by sending them Ether\n        address(_author).transfer(msg.value);\n        // Increment the tip amount\n        _image.tipAmount = _image.tipAmount + msg.value;\n        // Update the image\n        images[_id] = _image;\n        // Trigger an event\n        emit ImageTipped(\n            _id,\n            _image.hash,\n            _image.description,\n            _image.tipAmount,\n            _author\n        );\n    }*/\n\n    // Return all registered users\n    function getAllAppUser() public view returns (AllUserStruct[] memory) {\n        return getAllUsers;\n    }\n\n    // Returns all posts from a given address\n    function getPosts(\n        address _address\n    ) external view profileExists(_address) returns (Post[] memory) {\n        return posts[_address];\n    }\n\n    function getLikedPostIDs(\n        address _address\n    ) external view returns (uint[] memory) {\n        return likedPosts[_address];\n    }\n\n    function getDislikedPostIDs(\n        address _address\n    ) external view returns (uint[] memory) {\n        return dislikedPosts[_address];\n    }\n\n    // Returns total user count\n    function getUserCount() external view returns (uint) {\n        return addresses.length;\n    }\n\n    // Returns all registered addresses\n    function getAddresses() external view returns (address[] memory) {\n        return addresses;\n    }\n\n    // Get all followers of a specific address\n    function getFollowers(\n        address _address\n    ) external view profileExists(_address) returns (address[] memory) {\n        return profiles[_address].followers;\n    }\n\n    // Get all followed accounts of a specific address\n    function getFollowing(\n        address _address\n    ) external view returns (address[] memory) {\n        return profiles[_address].following;\n    }\n\n    function getAllPosts() public view returns (Post[] memory) {\n        uint256 itemCount = 0;\n        for (uint256 i = 0; i < addresses.length; i++) {\n            itemCount += posts[addresses[i]].length;\n        }\n\n        Post[] memory items = new Post[](itemCount);\n        uint256 currentIndex = 0;\n\n        for (uint256 i = 0; i < addresses.length; i++) {\n            for (uint j = 0; j < posts[addresses[i]].length; j++) {\n                items[currentIndex] = posts[addresses[i]][j];\n                currentIndex += 1;\n            }\n        }\n        return items;\n    }\n\n    // GET SINGLE POST\n    // function getSinglePost(\n    //     uint256 _postId\n    // )\n    //     external\n    //     view\n    //     returns (\n    //         address,\n    //         string memory,\n    //         string memory,\n    //         string memory,\n    //         string memory,\n    //         string memory,\n    //         uint,\n    //         uint,\n    //         uint,\n    //         uint\n    //     )\n    // {\n    //     for (uint i = 0; i < addresses.length; i++) {\n    //         for (uint j = 0; j < posts[addresses[i]].length; j++) {\n    //             if (posts[addresses[i]][j].postId == _postId) {\n    //                 return (\n    //                     posts[addresses[i]][j].author,\n    //                     posts[addresses[i]][j].username,\n    //                     posts[addresses[i]][j].profilePictureURL,\n    //                     posts[addresses[i]][j].postType,\n    //                     posts[addresses[i]][j].postURL,\n    //                     posts[addresses[i]][j].postDescription,\n    //                     posts[addresses[i]][j].timeCreated,\n    //                     posts[addresses[i]][j].tipAmount,\n    //                     posts[addresses[i]][j].likes,\n    //                     posts[addresses[i]][j].dislikes\n    //                 );\n    //             }\n    //         }\n    //     }\n    // }\n\n    /*uint public imageCount = 0;\n\n    mapping(address => Image) public statuses;\n    mapping(uint => Image) public images;\n\n    struct Image {\n        uint id;\n        string hash;\n        string description;\n        uint tipAmount;\n        address payable author;\n    }*/\n}\n",
  "sourcePath": "/Users/myothiha/Dev/projects/dapp_final_year/src/contracts/Decentragram.sol",
  "compiler": {
    "name": "solc",
    "version": "0.5.0+commit.1d4f565a.Emscripten.clang"
  },
  "schemaVersion": "3.0.2",
  "updatedAt": "2024-04-05T14:26:32.917Z",
  "devdoc": {
    "methods": {}
  },
  "userdoc": {
    "methods": {}
  }
}