{
  "contractName": "Decentragram",
  "abi": [
    {
      "constant": true,
      "inputs": [],
      "name": "contractName",
      "outputs": [
        {
          "name": "",
          "type": "string"
        }
      ],
      "payable": false,
      "stateMutability": "view",
      "type": "function",
      "signature": "0x75d0c0dc"
    },
    {
      "constant": true,
      "inputs": [],
      "name": "_userID",
      "outputs": [
        {
          "name": "",
          "type": "uint256"
        }
      ],
      "payable": false,
      "stateMutability": "view",
      "type": "function",
      "signature": "0x8865fb75"
    },
    {
      "constant": true,
      "inputs": [
        {
          "name": "",
          "type": "address"
        }
      ],
      "name": "profiles",
      "outputs": [
        {
          "name": "owner",
          "type": "address"
        },
        {
          "name": "username",
          "type": "string"
        },
        {
          "name": "biography",
          "type": "string"
        },
        {
          "name": "profilePictureURL",
          "type": "string"
        },
        {
          "name": "timeCreated",
          "type": "uint256"
        },
        {
          "name": "id",
          "type": "uint256"
        },
        {
          "name": "postCount",
          "type": "uint256"
        },
        {
          "name": "followerCount",
          "type": "uint256"
        },
        {
          "name": "followingCount",
          "type": "uint256"
        }
      ],
      "payable": false,
      "stateMutability": "view",
      "type": "function",
      "signature": "0xbbe15627"
    },
    {
      "constant": true,
      "inputs": [],
      "name": "_postID",
      "outputs": [
        {
          "name": "",
          "type": "uint256"
        }
      ],
      "payable": false,
      "stateMutability": "view",
      "type": "function",
      "signature": "0xeea3ae91"
    },
    {
      "constant": true,
      "inputs": [],
      "name": "admin",
      "outputs": [
        {
          "name": "",
          "type": "address"
        }
      ],
      "payable": false,
      "stateMutability": "view",
      "type": "function",
      "signature": "0xf851a440"
    },
    {
      "inputs": [],
      "payable": false,
      "stateMutability": "nonpayable",
      "type": "constructor",
      "signature": "constructor"
    },
    {
      "anonymous": false,
      "inputs": [
        {
          "indexed": false,
          "name": "owner",
          "type": "address"
        },
        {
          "indexed": false,
          "name": "username",
          "type": "string"
        },
        {
          "indexed": false,
          "name": "biography",
          "type": "string"
        },
        {
          "indexed": false,
          "name": "profilePictureURL",
          "type": "string"
        }
      ],
      "name": "AccountCreated",
      "type": "event",
      "signature": "0x5d364ecbacf316d6ec8e1182cae23084565c5c756b7545dc47bcd857ed0493c2"
    },
    {
      "anonymous": false,
      "inputs": [
        {
          "indexed": false,
          "name": "author",
          "type": "address"
        },
        {
          "indexed": false,
          "name": "postDescription",
          "type": "string"
        },
        {
          "indexed": false,
          "name": "postType",
          "type": "string"
        },
        {
          "indexed": false,
          "name": "postURL",
          "type": "string"
        }
      ],
      "name": "PostCreated",
      "type": "event",
      "signature": "0x2ba81e7f979c30011f3f378b66c0c2a1ea26d82d285bcccff7c336c1bfb84d21"
    },
    {
      "anonymous": false,
      "inputs": [
        {
          "indexed": false,
          "name": "userWhoLike",
          "type": "address"
        },
        {
          "indexed": false,
          "name": "postID",
          "type": "uint256"
        },
        {
          "indexed": false,
          "name": "likeCount",
          "type": "uint256"
        }
      ],
      "name": "PostLiked",
      "type": "event",
      "signature": "0x29ad17d6120e01123e3509137edf8444825cedb1d294738da797e42b35d4157a"
    },
    {
      "anonymous": false,
      "inputs": [
        {
          "indexed": false,
          "name": "userWhoDislike",
          "type": "address"
        },
        {
          "indexed": false,
          "name": "postID",
          "type": "uint256"
        },
        {
          "indexed": false,
          "name": "dislikeCount",
          "type": "uint256"
        }
      ],
      "name": "PostDisliked",
      "type": "event",
      "signature": "0x6d3b028a58074b361b8fc93944b1f21b7dc5377946d5b45e62c68d37ec115fa7"
    },
    {
      "anonymous": false,
      "inputs": [
        {
          "indexed": false,
          "name": "postId",
          "type": "uint256"
        },
        {
          "indexed": false,
          "name": "author",
          "type": "address"
        },
        {
          "indexed": false,
          "name": "tipAmount",
          "type": "uint256"
        }
      ],
      "name": "PostTipped",
      "type": "event",
      "signature": "0x4db8afe9bce39012f1b036566400165e4630e1d714b2a6f7339a4adcdfb16c3d"
    },
    {
      "anonymous": false,
      "inputs": [
        {
          "indexed": false,
          "name": "accountAddress",
          "type": "address"
        },
        {
          "indexed": false,
          "name": "followerCount",
          "type": "uint256"
        }
      ],
      "name": "UserFollowed",
      "type": "event",
      "signature": "0xb6949f2b408e9533332c1d3e15ce8246a6f22d04a1f37482b45885a256d5da06"
    },
    {
      "constant": false,
      "inputs": [
        {
          "name": "_username",
          "type": "string"
        },
        {
          "name": "_biography",
          "type": "string"
        },
        {
          "name": "_profilePictureURL",
          "type": "string"
        }
      ],
      "name": "createAccount",
      "outputs": [],
      "payable": false,
      "stateMutability": "nonpayable",
      "type": "function",
      "signature": "0xbc53c0c4"
    },
    {
      "constant": false,
      "inputs": [
        {
          "name": "_address",
          "type": "address"
        },
        {
          "name": "_username",
          "type": "string"
        },
        {
          "name": "_biography",
          "type": "string"
        },
        {
          "name": "_profilePictureURL",
          "type": "string"
        }
      ],
      "name": "editProfile",
      "outputs": [],
      "payable": false,
      "stateMutability": "nonpayable",
      "type": "function",
      "signature": "0xf3ab3dfe"
    },
    {
      "constant": false,
      "inputs": [
        {
          "name": "_address",
          "type": "address"
        }
      ],
      "name": "follow",
      "outputs": [],
      "payable": false,
      "stateMutability": "nonpayable",
      "type": "function",
      "signature": "0x4dbf27cc"
    },
    {
      "constant": false,
      "inputs": [
        {
          "name": "_address",
          "type": "address"
        }
      ],
      "name": "unfollow",
      "outputs": [],
      "payable": false,
      "stateMutability": "nonpayable",
      "type": "function",
      "signature": "0x015a4ead"
    },
    {
      "constant": false,
      "inputs": [
        {
          "name": "_postDescription",
          "type": "string"
        },
        {
          "name": "_postURL",
          "type": "string"
        },
        {
          "name": "_postType",
          "type": "string"
        }
      ],
      "name": "createPost",
      "outputs": [],
      "payable": false,
      "stateMutability": "nonpayable",
      "type": "function",
      "signature": "0xe8a4a1eb"
    },
    {
      "constant": false,
      "inputs": [
        {
          "name": "_postId",
          "type": "uint256"
        }
      ],
      "name": "likePost",
      "outputs": [],
      "payable": false,
      "stateMutability": "nonpayable",
      "type": "function",
      "signature": "0x725009d3"
    },
    {
      "constant": false,
      "inputs": [
        {
          "name": "_postId",
          "type": "uint256"
        }
      ],
      "name": "unlikePost",
      "outputs": [],
      "payable": false,
      "stateMutability": "nonpayable",
      "type": "function",
      "signature": "0xfa188de9"
    },
    {
      "constant": false,
      "inputs": [
        {
          "name": "_postId",
          "type": "uint256"
        }
      ],
      "name": "dislikePost",
      "outputs": [],
      "payable": false,
      "stateMutability": "nonpayable",
      "type": "function",
      "signature": "0x732fa7c7"
    },
    {
      "constant": false,
      "inputs": [
        {
          "name": "_postId",
          "type": "uint256"
        }
      ],
      "name": "undislikePost",
      "outputs": [],
      "payable": false,
      "stateMutability": "nonpayable",
      "type": "function",
      "signature": "0xe1354a9d"
    },
    {
      "constant": false,
      "inputs": [
        {
          "name": "_postId",
          "type": "uint256"
        }
      ],
      "name": "tipPost",
      "outputs": [],
      "payable": true,
      "stateMutability": "payable",
      "type": "function",
      "signature": "0x74d3c1f8"
    },
    {
      "constant": true,
      "inputs": [],
      "name": "getAllAppUser",
      "outputs": [
        {
          "components": [
            {
              "name": "owner",
              "type": "address"
            },
            {
              "name": "username",
              "type": "string"
            },
            {
              "name": "biography",
              "type": "string"
            },
            {
              "name": "profilePictureURL",
              "type": "string"
            },
            {
              "name": "timeCreated",
              "type": "uint256"
            },
            {
              "name": "id",
              "type": "uint256"
            },
            {
              "name": "postCount",
              "type": "uint256"
            },
            {
              "name": "followerCount",
              "type": "uint256"
            },
            {
              "name": "followingCount",
              "type": "uint256"
            }
          ],
          "name": "",
          "type": "tuple[]"
        }
      ],
      "payable": false,
      "stateMutability": "view",
      "type": "function",
      "signature": "0xa24d41de"
    },
    {
      "constant": true,
      "inputs": [
        {
          "name": "_address",
          "type": "address"
        }
      ],
      "name": "getPosts",
      "outputs": [
        {
          "components": [
            {
              "name": "postId",
              "type": "uint256"
            },
            {
              "name": "author",
              "type": "address"
            },
            {
              "name": "username",
              "type": "string"
            },
            {
              "name": "profilePictureURL",
              "type": "string"
            },
            {
              "name": "postType",
              "type": "string"
            },
            {
              "name": "postURL",
              "type": "string"
            },
            {
              "name": "postDescription",
              "type": "string"
            },
            {
              "name": "timeCreated",
              "type": "uint256"
            },
            {
              "name": "tipAmount",
              "type": "uint256"
            },
            {
              "name": "likes",
              "type": "uint256"
            },
            {
              "name": "dislikes",
              "type": "uint256"
            }
          ],
          "name": "",
          "type": "tuple[]"
        }
      ],
      "payable": false,
      "stateMutability": "view",
      "type": "function",
      "signature": "0x4caf9d0b"
    },
    {
      "constant": true,
      "inputs": [
        {
          "name": "_address",
          "type": "address"
        }
      ],
      "name": "getLikedPostIDs",
      "outputs": [
        {
          "name": "",
          "type": "uint256[]"
        }
      ],
      "payable": false,
      "stateMutability": "view",
      "type": "function",
      "signature": "0x3a8d9962"
    },
    {
      "constant": true,
      "inputs": [
        {
          "name": "_address",
          "type": "address"
        }
      ],
      "name": "getDislikedPostIDs",
      "outputs": [
        {
          "name": "",
          "type": "uint256[]"
        }
      ],
      "payable": false,
      "stateMutability": "view",
      "type": "function",
      "signature": "0x730f04ae"
    },
    {
      "constant": true,
      "inputs": [],
      "name": "getUserCount",
      "outputs": [
        {
          "name": "",
          "type": "uint256"
        }
      ],
      "payable": false,
      "stateMutability": "view",
      "type": "function",
      "signature": "0xb5cb15f7"
    },
    {
      "constant": true,
      "inputs": [],
      "name": "getAddresses",
      "outputs": [
        {
          "name": "",
          "type": "address[]"
        }
      ],
      "payable": false,
      "stateMutability": "view",
      "type": "function",
      "signature": "0xa39fac12"
    },
    {
      "constant": true,
      "inputs": [
        {
          "name": "_address",
          "type": "address"
        }
      ],
      "name": "getFollowers",
      "outputs": [
        {
          "name": "",
          "type": "address[]"
        }
      ],
      "payable": false,
      "stateMutability": "view",
      "type": "function",
      "signature": "0xc2fe2022"
    },
    {
      "constant": true,
      "inputs": [
        {
          "name": "_address",
          "type": "address"
        }
      ],
      "name": "getFollowing",
      "outputs": [
        {
          "name": "",
          "type": "address[]"
        }
      ],
      "payable": false,
      "stateMutability": "view",
      "type": "function",
      "signature": "0xd8236dff"
    },
    {
      "constant": true,
      "inputs": [],
      "name": "getAllPosts",
      "outputs": [
        {
          "components": [
            {
              "name": "postId",
              "type": "uint256"
            },
            {
              "name": "author",
              "type": "address"
            },
            {
              "name": "username",
              "type": "string"
            },
            {
              "name": "profilePictureURL",
              "type": "string"
            },
            {
              "name": "postType",
              "type": "string"
            },
            {
              "name": "postURL",
              "type": "string"
            },
            {
              "name": "postDescription",
              "type": "string"
            },
            {
              "name": "timeCreated",
              "type": "uint256"
            },
            {
              "name": "tipAmount",
              "type": "uint256"
            },
            {
              "name": "likes",
              "type": "uint256"
            },
            {
              "name": "dislikes",
              "type": "uint256"
            }
          ],
          "name": "",
          "type": "tuple[]"
        }
      ],
      "payable": false,
      "stateMutability": "view",
      "type": "function",
      "signature": "0x30561100"
    }
  ],
  "bytecode": "0x60806040523480156200001157600080fd5b506040805190810160405280600c81526020017f446563656e7472616772616d0000000000000000000000000000000000000000815250600090805190602001906200005f929190620000a7565b5033600160006101000a81548173ffffffffffffffffffffffffffffffffffffffff021916908373ffffffffffffffffffffffffffffffffffffffff16021790555062000156565b828054600181600116156101000203166002900490600052602060002090601f016020900481019282601f10620000ea57805160ff19168380011785556200011b565b828001600101855582156200011b579182015b828111156200011a578251825591602001919060010190620000fd565b5b5090506200012a91906200012e565b5090565b6200015391905b808211156200014f57600081600090555060010162000135565b5090565b90565b615eaf80620001666000396000f3fe60806040526004361061013e576000357c0100000000000000000000000000000000000000000000000000000000900463ffffffff168063015a4ead14610143578063305611001461016c5780633a8d9962146101975780634caf9d0b146101d45780634dbf27cc14610211578063725009d31461023a578063730f04ae14610263578063732fa7c7146102a057806374d3c1f8146102c957806375d0c0dc146102e55780638865fb7514610310578063a24d41de1461033b578063a39fac1214610366578063b5cb15f714610391578063bbe15627146103bc578063bc53c0c414610401578063c2fe20221461042a578063d8236dff14610467578063e1354a9d146104a4578063e8a4a1eb146104cd578063eea3ae91146104f6578063f3ab3dfe14610521578063f851a4401461054a578063fa188de914610575575b600080fd5b34801561014f57600080fd5b5061016a6004803603610165919081019061525e565b61059e565b005b34801561017857600080fd5b50610181610d8a565b60405161018e9190615b47565b60405180910390f35b3480156101a357600080fd5b506101be60048036036101b9919081019061525e565b6113aa565b6040516101cb9190615b69565b60405180910390f35b3480156101e057600080fd5b506101fb60048036036101f6919081019061525e565b611441565b6040516102089190615b47565b60405180910390f35b34801561021d57600080fd5b506102386004803603610233919081019061525e565b611969565b005b34801561024657600080fd5b50610261600480360361025c91908101906153c9565b611e16565b005b34801561026f57600080fd5b5061028a6004803603610285919081019061525e565b6122be565b6040516102979190615b69565b60405180910390f35b3480156102ac57600080fd5b506102c760048036036102c291908101906153c9565b612355565b005b6102e360048036036102de91908101906153c9565b612696565b005b3480156102f157600080fd5b506102fa612d1b565b6040516103079190615b8b565b60405180910390f35b34801561031c57600080fd5b50610325612db9565b6040516103329190615c2d565b60405180910390f35b34801561034757600080fd5b50610350612dbf565b60405161035d9190615b25565b60405180910390f35b34801561037257600080fd5b5061037b61308e565b6040516103889190615b03565b60405180910390f35b34801561039d57600080fd5b506103a661311c565b6040516103b39190615c2d565b60405180910390f35b3480156103c857600080fd5b506103e360048036036103de919081019061525e565b613129565b6040516103f899989796959493929190615a38565b60405180910390f35b34801561040d57600080fd5b5061042860048036036104239190810190615332565b61335f565b005b34801561043657600080fd5b50610451600480360361044c919081019061525e565b613a0a565b60405161045e9190615b03565b60405180910390f35b34801561047357600080fd5b5061048e6004803603610489919081019061525e565b613bb0565b60405161049b9190615b03565b60405180910390f35b3480156104b057600080fd5b506104cb60048036036104c691908101906153c9565b613c80565b005b3480156104d957600080fd5b506104f460048036036104ef9190810190615332565b614170565b005b34801561050257600080fd5b5061050b614764565b6040516105189190615c2d565b60405180910390f35b34801561052d57600080fd5b5061054860048036036105439190810190615287565b61476a565b005b34801561055657600080fd5b5061055f6149f6565b60405161056c9190615932565b60405180910390f35b34801561058157600080fd5b5061059c600480360361059791908101906153c9565b614a1c565b005b60008090505b600660008373ffffffffffffffffffffffffffffffffffffffff1673ffffffffffffffffffffffffffffffffffffffff168152602001908152602001600020600701548110156108db573373ffffffffffffffffffffffffffffffffffffffff16600660008473ffffffffffffffffffffffffffffffffffffffff1673ffffffffffffffffffffffffffffffffffffffff1681526020019081526020016000206009018281548110151561065457fe5b9060005260206000200160009054906101000a900473ffffffffffffffffffffffffffffffffffffffff1673ffffffffffffffffffffffffffffffffffffffff1614156108ce57600660008373ffffffffffffffffffffffffffffffffffffffff1673ffffffffffffffffffffffffffffffffffffffff1681526020019081526020016000206009016001600660008573ffffffffffffffffffffffffffffffffffffffff1673ffffffffffffffffffffffffffffffffffffffff168152602001908152602001600020600901805490500381548110151561073257fe5b9060005260206000200160009054906101000a900473ffffffffffffffffffffffffffffffffffffffff16600660008473ffffffffffffffffffffffffffffffffffffffff1673ffffffffffffffffffffffffffffffffffffffff168152602001908152602001600020600901828154811015156107ac57fe5b9060005260206000200160006101000a81548173ffffffffffffffffffffffffffffffffffffffff021916908373ffffffffffffffffffffffffffffffffffffffff160217905550600660008373ffffffffffffffffffffffffffffffffffffffff1673ffffffffffffffffffffffffffffffffffffffff168152602001908152602001600020600901805480151561084157fe5b6001900381819060005260206000200160006101000a81549073ffffffffffffffffffffffffffffffffffffffff02191690559055600660008373ffffffffffffffffffffffffffffffffffffffff1673ffffffffffffffffffffffffffffffffffffffff16815260200190815260200160002060070160008154809291906001900391905055506108db565b80806001019150506105a4565b5060008090505b600660003373ffffffffffffffffffffffffffffffffffffffff1673ffffffffffffffffffffffffffffffffffffffff16815260200190815260200160002060080154811015610c19578173ffffffffffffffffffffffffffffffffffffffff16600660003373ffffffffffffffffffffffffffffffffffffffff1673ffffffffffffffffffffffffffffffffffffffff168152602001908152602001600020600a018281548110151561099257fe5b9060005260206000200160009054906101000a900473ffffffffffffffffffffffffffffffffffffffff1673ffffffffffffffffffffffffffffffffffffffff161415610c0c57600660003373ffffffffffffffffffffffffffffffffffffffff1673ffffffffffffffffffffffffffffffffffffffff168152602001908152602001600020600a016001600660003373ffffffffffffffffffffffffffffffffffffffff1673ffffffffffffffffffffffffffffffffffffffff168152602001908152602001600020600a018054905003815481101515610a7057fe5b9060005260206000200160009054906101000a900473ffffffffffffffffffffffffffffffffffffffff16600660003373ffffffffffffffffffffffffffffffffffffffff1673ffffffffffffffffffffffffffffffffffffffff168152602001908152602001600020600a0182815481101515610aea57fe5b9060005260206000200160006101000a81548173ffffffffffffffffffffffffffffffffffffffff021916908373ffffffffffffffffffffffffffffffffffffffff160217905550600660003373ffffffffffffffffffffffffffffffffffffffff1673ffffffffffffffffffffffffffffffffffffffff168152602001908152602001600020600a018054801515610b7f57fe5b6001900381819060005260206000200160006101000a81549073ffffffffffffffffffffffffffffffffffffffff02191690559055600660003373ffffffffffffffffffffffffffffffffffffffff1673ffffffffffffffffffffffffffffffffffffffff1681526020019081526020016000206008016000815480929190600190039190505550610c19565b80806001019150506108e2565b5060008090505b600a80549050811015610d86578173ffffffffffffffffffffffffffffffffffffffff16600a82815481101515610c5357fe5b906000526020600020906009020160000160009054906101000a900473ffffffffffffffffffffffffffffffffffffffff1673ffffffffffffffffffffffffffffffffffffffff161415610cd357600a81815481101515610cb057fe5b906000526020600020906009020160070160008154809291906001900391905055505b3373ffffffffffffffffffffffffffffffffffffffff16600a82815481101515610cf957fe5b906000526020600020906009020160000160009054906101000a900473ffffffffffffffffffffffffffffffffffffffff1673ffffffffffffffffffffffffffffffffffffffff161415610d7957600a81815481101515610d5657fe5b906000526020600020906009020160080160008154809291906001900391905055505b8080600101915050610c20565b5050565b6060600080905060008090505b600280549050811015610e315760076000600283815481101515610db757fe5b9060005260206000200160009054906101000a900473ffffffffffffffffffffffffffffffffffffffff1673ffffffffffffffffffffffffffffffffffffffff1673ffffffffffffffffffffffffffffffffffffffff16815260200190815260200160002080549050820191508080600101915050610d97565b50606081604051908082528060200260200182016040528015610e6e57816020015b610e5b614f0c565b815260200190600190039081610e535790505b509050600080905060008090505b6002805490508110156113a05760008090505b60076000600284815481101515610ea257fe5b9060005260206000200160009054906101000a900473ffffffffffffffffffffffffffffffffffffffff1673ffffffffffffffffffffffffffffffffffffffff1673ffffffffffffffffffffffffffffffffffffffff168152602001908152602001600020805490508110156113925760076000600284815481101515610f2557fe5b9060005260206000200160009054906101000a900473ffffffffffffffffffffffffffffffffffffffff1673ffffffffffffffffffffffffffffffffffffffff1673ffffffffffffffffffffffffffffffffffffffff16815260200190815260200160002081815481101515610f9757fe5b90600052602060002090600b02016101606040519081016040529081600082015481526020016001820160009054906101000a900473ffffffffffffffffffffffffffffffffffffffff1673ffffffffffffffffffffffffffffffffffffffff1673ffffffffffffffffffffffffffffffffffffffff168152602001600282018054600181600116156101000203166002900480601f0160208091040260200160405190810160405280929190818152602001828054600181600116156101000203166002900480156110ab5780601f10611080576101008083540402835291602001916110ab565b820191906000526020600020905b81548152906001019060200180831161108e57829003601f168201915b50505050508152602001600382018054600181600116156101000203166002900480601f01602080910402602001604051908101604052809291908181526020018280546001816001161561010002031660029004801561114d5780601f106111225761010080835404028352916020019161114d565b820191906000526020600020905b81548152906001019060200180831161113057829003601f168201915b50505050508152602001600482018054600181600116156101000203166002900480601f0160208091040260200160405190810160405280929190818152602001828054600181600116156101000203166002900480156111ef5780601f106111c4576101008083540402835291602001916111ef565b820191906000526020600020905b8154815290600101906020018083116111d257829003601f168201915b50505050508152602001600582018054600181600116156101000203166002900480601f0160208091040260200160405190810160405280929190818152602001828054600181600116156101000203166002900480156112915780601f1061126657610100808354040283529160200191611291565b820191906000526020600020905b81548152906001019060200180831161127457829003601f168201915b50505050508152602001600682018054600181600116156101000203166002900480601f0160208091040260200160405190810160405280929190818152602001828054600181600116156101000203166002900480156113335780601f1061130857610100808354040283529160200191611333565b820191906000526020600020905b81548152906001019060200180831161131657829003601f168201915b50505050508152602001600782015481526020016008820154815260200160098201548152602001600a82015481525050848481518110151561137257fe5b906020019060200201819052506001830192508080600101915050610e8f565b508080600101915050610e7c565b5081935050505090565b6060600860008373ffffffffffffffffffffffffffffffffffffffff1673ffffffffffffffffffffffffffffffffffffffff16815260200190815260200160002080548060200260200160405190810160405280929190818152602001828054801561143557602002820191906000526020600020905b815481526020019060010190808311611421575b50505050509050919050565b606081600073ffffffffffffffffffffffffffffffffffffffff16600660008373ffffffffffffffffffffffffffffffffffffffff1673ffffffffffffffffffffffffffffffffffffffff16815260200190815260200160002060000160009054906101000a900473ffffffffffffffffffffffffffffffffffffffff1673ffffffffffffffffffffffffffffffffffffffff1614151515611518576040517f08c379a000000000000000000000000000000000000000000000000000000000815260040161150f90615bed565b60405180910390fd5b600760008473ffffffffffffffffffffffffffffffffffffffff1673ffffffffffffffffffffffffffffffffffffffff168152602001908152602001600020805480602002602001604051908101604052809291908181526020016000905b8282101561195d57838290600052602060002090600b02016101606040519081016040529081600082015481526020016001820160009054906101000a900473ffffffffffffffffffffffffffffffffffffffff1673ffffffffffffffffffffffffffffffffffffffff1673ffffffffffffffffffffffffffffffffffffffff168152602001600282018054600181600116156101000203166002900480601f0160208091040260200160405190810160405280929190818152602001828054600181600116156101000203166002900480156116955780601f1061166a57610100808354040283529160200191611695565b820191906000526020600020905b81548152906001019060200180831161167857829003601f168201915b50505050508152602001600382018054600181600116156101000203166002900480601f0160208091040260200160405190810160405280929190818152602001828054600181600116156101000203166002900480156117375780601f1061170c57610100808354040283529160200191611737565b820191906000526020600020905b81548152906001019060200180831161171a57829003601f168201915b50505050508152602001600482018054600181600116156101000203166002900480601f0160208091040260200160405190810160405280929190818152602001828054600181600116156101000203166002900480156117d95780601f106117ae576101008083540402835291602001916117d9565b820191906000526020600020905b8154815290600101906020018083116117bc57829003601f168201915b50505050508152602001600582018054600181600116156101000203166002900480601f01602080910402602001604051908101604052809291908181526020018280546001816001161561010002031660029004801561187b5780601f106118505761010080835404028352916020019161187b565b820191906000526020600020905b81548152906001019060200180831161185e57829003601f168201915b50505050508152602001600682018054600181600116156101000203166002900480601f01602080910402602001604051908101604052809291908181526020018280546001816001161561010002031660029004801561191d5780601f106118f25761010080835404028352916020019161191d565b820191906000526020600020905b81548152906001019060200180831161190057829003601f168201915b50505050508152602001600782015481526020016008820154815260200160098201548152602001600a8201548152505081526020019060010190611577565b50505050915050919050565b600073ffffffffffffffffffffffffffffffffffffffff16600660003373ffffffffffffffffffffffffffffffffffffffff1673ffffffffffffffffffffffffffffffffffffffff16815260200190815260200160002060000160009054906101000a900473ffffffffffffffffffffffffffffffffffffffff1673ffffffffffffffffffffffffffffffffffffffff1614151515611a3d576040517f08c379a0000000000000000000000000000000000000000000000000000000008152600401611a3490615bcd565b60405180910390fd5b600660008273ffffffffffffffffffffffffffffffffffffffff1673ffffffffffffffffffffffffffffffffffffffff1681526020019081526020016000206009013390806001815401808255809150509060018203906000526020600020016000909192909190916101000a81548173ffffffffffffffffffffffffffffffffffffffff021916908373ffffffffffffffffffffffffffffffffffffffff16021790555050600660003373ffffffffffffffffffffffffffffffffffffffff1673ffffffffffffffffffffffffffffffffffffffff168152602001908152602001600020600a018190806001815401808255809150509060018203906000526020600020016000909192909190916101000a81548173ffffffffffffffffffffffffffffffffffffffff021916908373ffffffffffffffffffffffffffffffffffffffff16021790555050600660008273ffffffffffffffffffffffffffffffffffffffff1673ffffffffffffffffffffffffffffffffffffffff16815260200190815260200160002060070160008154809291906001019190505550600660003373ffffffffffffffffffffffffffffffffffffffff1673ffffffffffffffffffffffffffffffffffffffff1681526020019081526020016000206008016000815480929190600101919050555060008090505b600a80549050811015611d97578173ffffffffffffffffffffffffffffffffffffffff16600a82815481101515611c6657fe5b906000526020600020906009020160000160009054906101000a900473ffffffffffffffffffffffffffffffffffffffff1673ffffffffffffffffffffffffffffffffffffffff161415611ce557600a81815481101515611cc357fe5b9060005260206000209060090201600701600081548092919060010191905055505b3373ffffffffffffffffffffffffffffffffffffffff16600a82815481101515611d0b57fe5b906000526020600020906009020160000160009054906101000a900473ffffffffffffffffffffffffffffffffffffffff1673ffffffffffffffffffffffffffffffffffffffff161415611d8a57600a81815481101515611d6857fe5b9060005260206000209060090201600801600081548092919060010191905055505b8080600101915050611c33565b507fb6949f2b408e9533332c1d3e15ce8246a6f22d04a1f37482b45885a256d5da0681600660008473ffffffffffffffffffffffffffffffffffffffff1673ffffffffffffffffffffffffffffffffffffffff16815260200190815260200160002060070154604051611e0b929190615ada565b60405180910390a150565b600073ffffffffffffffffffffffffffffffffffffffff16600660003373ffffffffffffffffffffffffffffffffffffffff1673ffffffffffffffffffffffffffffffffffffffff16815260200190815260200160002060000160009054906101000a900473ffffffffffffffffffffffffffffffffffffffff1673ffffffffffffffffffffffffffffffffffffffff1614151515611eea576040517f08c379a0000000000000000000000000000000000000000000000000000000008152600401611ee190615bcd565b60405180910390fd5b60008090505b6002805490508110156122ba5760008090505b60076000600284815481101515611f1657fe5b9060005260206000200160009054906101000a900473ffffffffffffffffffffffffffffffffffffffff1673ffffffffffffffffffffffffffffffffffffffff1673ffffffffffffffffffffffffffffffffffffffff168152602001908152602001600020805490508110156122ac578260076000600285815481101515611f9a57fe5b9060005260206000200160009054906101000a900473ffffffffffffffffffffffffffffffffffffffff1673ffffffffffffffffffffffffffffffffffffffff1673ffffffffffffffffffffffffffffffffffffffff1681526020019081526020016000208281548110151561200c57fe5b90600052602060002090600b020160000154141561229f576007600060028481548110151561203757fe5b9060005260206000200160009054906101000a900473ffffffffffffffffffffffffffffffffffffffff1673ffffffffffffffffffffffffffffffffffffffff1673ffffffffffffffffffffffffffffffffffffffff168152602001908152602001600020818154811015156120a957fe5b90600052602060002090600b020160090160008154809291906001019190505550600860003373ffffffffffffffffffffffffffffffffffffffff1673ffffffffffffffffffffffffffffffffffffffff1681526020019081526020016000208390806001815401808255809150509060018203906000526020600020016000909192909190915055507f29ad17d6120e01123e3509137edf8444825cedb1d294738da797e42b35d4157a336007600060028681548110151561216857fe5b9060005260206000200160009054906101000a900473ffffffffffffffffffffffffffffffffffffffff1673ffffffffffffffffffffffffffffffffffffffff1673ffffffffffffffffffffffffffffffffffffffff168152602001908152602001600020838154811015156121da57fe5b90600052602060002090600b020160000154600760006002878154811015156121ff57fe5b9060005260206000200160009054906101000a900473ffffffffffffffffffffffffffffffffffffffff1673ffffffffffffffffffffffffffffffffffffffff1673ffffffffffffffffffffffffffffffffffffffff1681526020019081526020016000208481548110151561227157fe5b90600052602060002090600b02016009015460405161229293929190615a01565b60405180910390a16122ac565b8080600101915050611f03565b508080600101915050611ef0565b5050565b6060600960008373ffffffffffffffffffffffffffffffffffffffff1673ffffffffffffffffffffffffffffffffffffffff16815260200190815260200160002080548060200260200160405190810160405280929190818152602001828054801561234957602002820191906000526020600020905b815481526020019060010190808311612335575b50505050509050919050565b600073ffffffffffffffffffffffffffffffffffffffff16600660003373ffffffffffffffffffffffffffffffffffffffff1673ffffffffffffffffffffffffffffffffffffffff16815260200190815260200160002060000160009054906101000a900473ffffffffffffffffffffffffffffffffffffffff1673ffffffffffffffffffffffffffffffffffffffff1614151515612429576040517f08c379a000000000000000000000000000000000000000000000000000000000815260040161242090615bcd565b60405180910390fd5b60008090505b6002805490508110156126925760008090505b6007600060028481548110151561245557fe5b9060005260206000200160009054906101000a900473ffffffffffffffffffffffffffffffffffffffff1673ffffffffffffffffffffffffffffffffffffffff1673ffffffffffffffffffffffffffffffffffffffff168152602001908152602001600020805490508110156126845782600760006002858154811015156124d957fe5b9060005260206000200160009054906101000a900473ffffffffffffffffffffffffffffffffffffffff1673ffffffffffffffffffffffffffffffffffffffff1673ffffffffffffffffffffffffffffffffffffffff1681526020019081526020016000208281548110151561254b57fe5b90600052602060002090600b0201600001541415612677576007600060028481548110151561257657fe5b9060005260206000200160009054906101000a900473ffffffffffffffffffffffffffffffffffffffff1673ffffffffffffffffffffffffffffffffffffffff1673ffffffffffffffffffffffffffffffffffffffff168152602001908152602001600020818154811015156125e857fe5b90600052602060002090600b0201600a0160008154809291906001019190505550600960003373ffffffffffffffffffffffffffffffffffffffff1673ffffffffffffffffffffffffffffffffffffffff168152602001908152602001600020839080600181540180825580915050906001820390600052602060002001600090919290919091505550612684565b8080600101915050612442565b50808060010191505061242f565b5050565b600073ffffffffffffffffffffffffffffffffffffffff16600660003373ffffffffffffffffffffffffffffffffffffffff1673ffffffffffffffffffffffffffffffffffffffff16815260200190815260200160002060000160009054906101000a900473ffffffffffffffffffffffffffffffffffffffff1673ffffffffffffffffffffffffffffffffffffffff161415151561276a576040517f08c379a000000000000000000000000000000000000000000000000000000000815260040161276190615bcd565b60405180910390fd5b60008090505b600280549050811015612d175760008090505b6007600060028481548110151561279657fe5b9060005260206000200160009054906101000a900473ffffffffffffffffffffffffffffffffffffffff1673ffffffffffffffffffffffffffffffffffffffff1673ffffffffffffffffffffffffffffffffffffffff16815260200190815260200160002080549050811015612d0957826007600060028581548110151561281a57fe5b9060005260206000200160009054906101000a900473ffffffffffffffffffffffffffffffffffffffff1673ffffffffffffffffffffffffffffffffffffffff1673ffffffffffffffffffffffffffffffffffffffff1681526020019081526020016000208281548110151561288c57fe5b90600052602060002090600b0201600001541415612cfc576000600760006002858154811015156128b957fe5b9060005260206000200160009054906101000a900473ffffffffffffffffffffffffffffffffffffffff1673ffffffffffffffffffffffffffffffffffffffff1673ffffffffffffffffffffffffffffffffffffffff1681526020019081526020016000208281548110151561292b57fe5b90600052602060002090600b020160010160009054906101000a900473ffffffffffffffffffffffffffffffffffffffff1690508073ffffffffffffffffffffffffffffffffffffffff166108fc349081150290604051600060405180830381858888f193505050501580156129a5573d6000803e3d6000fd5b5034600760006002868154811015156129ba57fe5b9060005260206000200160009054906101000a900473ffffffffffffffffffffffffffffffffffffffff1673ffffffffffffffffffffffffffffffffffffffff1673ffffffffffffffffffffffffffffffffffffffff16815260200190815260200160002083815481101515612a2c57fe5b90600052602060002090600b0201600801540160076000600286815481101515612a5257fe5b9060005260206000200160009054906101000a900473ffffffffffffffffffffffffffffffffffffffff1673ffffffffffffffffffffffffffffffffffffffff1673ffffffffffffffffffffffffffffffffffffffff16815260200190815260200160002083815481101515612ac457fe5b90600052602060002090600b0201600801819055507f4db8afe9bce39012f1b036566400165e4630e1d714b2a6f7339a4adcdfb16c3d60076000600286815481101515612b0d57fe5b9060005260206000200160009054906101000a900473ffffffffffffffffffffffffffffffffffffffff1673ffffffffffffffffffffffffffffffffffffffff1673ffffffffffffffffffffffffffffffffffffffff16815260200190815260200160002083815481101515612b7f57fe5b90600052602060002090600b02016000015460076000600287815481101515612ba457fe5b9060005260206000200160009054906101000a900473ffffffffffffffffffffffffffffffffffffffff1673ffffffffffffffffffffffffffffffffffffffff1673ffffffffffffffffffffffffffffffffffffffff16815260200190815260200160002084815481101515612c1657fe5b90600052602060002090600b020160010160009054906101000a900473ffffffffffffffffffffffffffffffffffffffff1660076000600288815481101515612c5b57fe5b9060005260206000200160009054906101000a900473ffffffffffffffffffffffffffffffffffffffff1673ffffffffffffffffffffffffffffffffffffffff1673ffffffffffffffffffffffffffffffffffffffff16815260200190815260200160002085815481101515612ccd57fe5b90600052602060002090600b020160080154604051612cee93929190615c48565b60405180910390a150612d09565b8080600101915050612783565b508080600101915050612770565b5050565b60008054600181600116156101000203166002900480601f016020809104026020016040519081016040528092919081815260200182805460018160011615610100020316600290048015612db15780601f10612d8657610100808354040283529160200191612db1565b820191906000526020600020905b815481529060010190602001808311612d9457829003601f168201915b505050505081565b60055481565b6060600a805480602002602001604051908101604052809291908181526020016000905b82821015613085578382906000526020600020906009020161012060405190810160405290816000820160009054906101000a900473ffffffffffffffffffffffffffffffffffffffff1673ffffffffffffffffffffffffffffffffffffffff1673ffffffffffffffffffffffffffffffffffffffff168152602001600182018054600181600116156101000203166002900480601f016020809104026020016040519081016040528092919081815260200182805460018160011615610100020316600290048015612ef75780601f10612ecc57610100808354040283529160200191612ef7565b820191906000526020600020905b815481529060010190602001808311612eda57829003601f168201915b50505050508152602001600282018054600181600116156101000203166002900480601f016020809104026020016040519081016040528092919081815260200182805460018160011615610100020316600290048015612f995780601f10612f6e57610100808354040283529160200191612f99565b820191906000526020600020905b815481529060010190602001808311612f7c57829003601f168201915b50505050508152602001600382018054600181600116156101000203166002900480601f01602080910402602001604051908101604052809291908181526020018280546001816001161561010002031660029004801561303b5780601f106130105761010080835404028352916020019161303b565b820191906000526020600020905b81548152906001019060200180831161301e57829003601f168201915b505050505081526020016004820154815260200160058201548152602001600682015481526020016007820154815260200160088201548152505081526020019060010190612de3565b50505050905090565b6060600280548060200260200160405190810160405280929190818152602001828054801561311257602002820191906000526020600020905b8160009054906101000a900473ffffffffffffffffffffffffffffffffffffffff1673ffffffffffffffffffffffffffffffffffffffff16815260200190600101908083116130c8575b5050505050905090565b6000600280549050905090565b60066020528060005260406000206000915090508060000160009054906101000a900473ffffffffffffffffffffffffffffffffffffffff1690806001018054600181600116156101000203166002900480601f0160208091040260200160405190810160405280929190818152602001828054600181600116156101000203166002900480156131fb5780601f106131d0576101008083540402835291602001916131fb565b820191906000526020600020905b8154815290600101906020018083116131de57829003601f168201915b505050505090806002018054600181600116156101000203166002900480601f0160208091040260200160405190810160405280929190818152602001828054600181600116156101000203166002900480156132995780601f1061326e57610100808354040283529160200191613299565b820191906000526020600020905b81548152906001019060200180831161327c57829003601f168201915b505050505090806003018054600181600116156101000203166002900480601f0160208091040260200160405190810160405280929190818152602001828054600181600116156101000203166002900480156133375780601f1061330c57610100808354040283529160200191613337565b820191906000526020600020905b81548152906001019060200180831161331a57829003601f168201915b5050505050908060040154908060050154908060060154908060070154908060080154905089565b600073ffffffffffffffffffffffffffffffffffffffff16600660003373ffffffffffffffffffffffffffffffffffffffff1673ffffffffffffffffffffffffffffffffffffffff16815260200190815260200160002060000160009054906101000a900473ffffffffffffffffffffffffffffffffffffffff1673ffffffffffffffffffffffffffffffffffffffff16141515613432576040517f08c379a000000000000000000000000000000000000000000000000000000000815260040161342990615bad565b60405180910390fd5b600073ffffffffffffffffffffffffffffffffffffffff166003846040518082805190602001908083835b602083101515613482578051825260208201915060208101905060208303925061345d565b6001836020036101000a038019825116818451168082178552505050505050905001915050908152602001604051809103902060009054906101000a900473ffffffffffffffffffffffffffffffffffffffff1673ffffffffffffffffffffffffffffffffffffffff1614151561352e576040517f08c379a000000000000000000000000000000000000000000000000000000000815260040161352590615c0d565b60405180910390fd5b60056000815480929190600101919050555060006005549050336003856040518082805190602001908083835b602083101515613580578051825260208201915060208101905060208303925061355b565b6001836020036101000a038019825116818451168082178552505050505050905001915050908152602001604051809103902060006101000a81548173ffffffffffffffffffffffffffffffffffffffff021916908373ffffffffffffffffffffffffffffffffffffffff160217905550610160604051908101604052803373ffffffffffffffffffffffffffffffffffffffff168152602001858152602001848152602001838152602001428152602001828152602001600081526020016000815260200160008152602001600060405190808252806020026020018201604052801561367d5781602001602082028038833980820191505090505b50815260200160006040519080825280602002602001820160405280156136b35781602001602082028038833980820191505090505b50815250600660003373ffffffffffffffffffffffffffffffffffffffff1673ffffffffffffffffffffffffffffffffffffffff16815260200190815260200160002060008201518160000160006101000a81548173ffffffffffffffffffffffffffffffffffffffff021916908373ffffffffffffffffffffffffffffffffffffffff1602179055506020820151816001019080519060200190613759929190614f7d565b506040820151816002019080519060200190613776929190614f7d565b506060820151816003019080519060200190613793929190614f7d565b506080820151816004015560a0820151816005015560c0820151816006015560e0820151816007015561010082015181600801556101208201518160090190805190602001906137e4929190614ffd565b5061014082015181600a019080519060200190613802929190614ffd565b5090505060023390806001815401808255809150509060018203906000526020600020016000909192909190916101000a81548173ffffffffffffffffffffffffffffffffffffffff021916908373ffffffffffffffffffffffffffffffffffffffff16021790555050600a610120604051908101604052803373ffffffffffffffffffffffffffffffffffffffff168152602001868152602001858152602001848152602001428152602001838152602001600081526020016000815260200160008152509080600181540180825580915050906001820390600052602060002090600902016000909192909190915060008201518160000160006101000a81548173ffffffffffffffffffffffffffffffffffffffff021916908373ffffffffffffffffffffffffffffffffffffffff1602179055506020820151816001019080519060200190613956929190614f7d565b506040820151816002019080519060200190613973929190614f7d565b506060820151816003019080519060200190613990929190614f7d565b506080820151816004015560a0820151816005015560c0820151816006015560e0820151816007015561010082015181600801555050507f5d364ecbacf316d6ec8e1182cae23084565c5c756b7545dc47bcd857ed0493c2338585856040516139fc94939291906159a7565b60405180910390a150505050565b606081600073ffffffffffffffffffffffffffffffffffffffff16600660008373ffffffffffffffffffffffffffffffffffffffff1673ffffffffffffffffffffffffffffffffffffffff16815260200190815260200160002060000160009054906101000a900473ffffffffffffffffffffffffffffffffffffffff1673ffffffffffffffffffffffffffffffffffffffff1614151515613ae1576040517f08c379a0000000000000000000000000000000000000000000000000000000008152600401613ad890615bed565b60405180910390fd5b600660008473ffffffffffffffffffffffffffffffffffffffff1673ffffffffffffffffffffffffffffffffffffffff168152602001908152602001600020600901805480602002602001604051908101604052809291908181526020018280548015613ba357602002820191906000526020600020905b8160009054906101000a900473ffffffffffffffffffffffffffffffffffffffff1673ffffffffffffffffffffffffffffffffffffffff1681526020019060010190808311613b59575b5050505050915050919050565b6060600660008373ffffffffffffffffffffffffffffffffffffffff1673ffffffffffffffffffffffffffffffffffffffff168152602001908152602001600020600a01805480602002602001604051908101604052809291908181526020018280548015613c7457602002820191906000526020600020905b8160009054906101000a900473ffffffffffffffffffffffffffffffffffffffff1673ffffffffffffffffffffffffffffffffffffffff1681526020019060010190808311613c2a575b50505050509050919050565b600073ffffffffffffffffffffffffffffffffffffffff16600660003373ffffffffffffffffffffffffffffffffffffffff1673ffffffffffffffffffffffffffffffffffffffff16815260200190815260200160002060000160009054906101000a900473ffffffffffffffffffffffffffffffffffffffff1673ffffffffffffffffffffffffffffffffffffffff1614151515613d54576040517f08c379a0000000000000000000000000000000000000000000000000000000008152600401613d4b90615bcd565b60405180910390fd5b60008090505b600280549050811015613f555760008090505b60076000600284815481101515613d8057fe5b9060005260206000200160009054906101000a900473ffffffffffffffffffffffffffffffffffffffff1673ffffffffffffffffffffffffffffffffffffffff1673ffffffffffffffffffffffffffffffffffffffff16815260200190815260200160002080549050811015613f47578260076000600285815481101515613e0457fe5b9060005260206000200160009054906101000a900473ffffffffffffffffffffffffffffffffffffffff1673ffffffffffffffffffffffffffffffffffffffff1673ffffffffffffffffffffffffffffffffffffffff16815260200190815260200160002082815481101515613e7657fe5b90600052602060002090600b0201600001541415613f3a5760076000600284815481101515613ea157fe5b9060005260206000200160009054906101000a900473ffffffffffffffffffffffffffffffffffffffff1673ffffffffffffffffffffffffffffffffffffffff1673ffffffffffffffffffffffffffffffffffffffff16815260200190815260200160002081815481101515613f1357fe5b90600052602060002090600b0201600a016000815480929190600190039190505550613f47565b8080600101915050613d6d565b508080600101915050613d5a565b5060008090505b600960003373ffffffffffffffffffffffffffffffffffffffff1673ffffffffffffffffffffffffffffffffffffffff1681526020019081526020016000208054905081101561416c57600960003373ffffffffffffffffffffffffffffffffffffffff1673ffffffffffffffffffffffffffffffffffffffff16815260200190815260200160002081815481101515613ff257fe5b906000526020600020015482141561415f57600960003373ffffffffffffffffffffffffffffffffffffffff1673ffffffffffffffffffffffffffffffffffffffff1681526020019081526020016000206001600960003373ffffffffffffffffffffffffffffffffffffffff1673ffffffffffffffffffffffffffffffffffffffff168152602001908152602001600020805490500381548110151561409557fe5b9060005260206000200154600960003373ffffffffffffffffffffffffffffffffffffffff1673ffffffffffffffffffffffffffffffffffffffff168152602001908152602001600020828154811015156140ec57fe5b9060005260206000200181905550600960003373ffffffffffffffffffffffffffffffffffffffff1673ffffffffffffffffffffffffffffffffffffffff168152602001908152602001600020805480151561414457fe5b6001900381819060005260206000200160009055905561416c565b8080600101915050613f5c565b5050565b600073ffffffffffffffffffffffffffffffffffffffff16600660003373ffffffffffffffffffffffffffffffffffffffff1673ffffffffffffffffffffffffffffffffffffffff16815260200190815260200160002060000160009054906101000a900473ffffffffffffffffffffffffffffffffffffffff1673ffffffffffffffffffffffffffffffffffffffff1614151515614244576040517f08c379a000000000000000000000000000000000000000000000000000000000815260040161423b90615bcd565b60405180910390fd5b60046000815480929190600101919050555060006004549050614265615087565b610160604051908101604052808381526020013373ffffffffffffffffffffffffffffffffffffffff168152602001600660003373ffffffffffffffffffffffffffffffffffffffff1673ffffffffffffffffffffffffffffffffffffffff1681526020019081526020016000206001018054600181600116156101000203166002900480601f01602080910402602001604051908101604052809291908181526020018280546001816001161561010002031660029004801561436a5780601f1061433f5761010080835404028352916020019161436a565b820191906000526020600020905b81548152906001019060200180831161434d57829003601f168201915b50505050508152602001600660003373ffffffffffffffffffffffffffffffffffffffff1673ffffffffffffffffffffffffffffffffffffffff1681526020019081526020016000206003018054600181600116156101000203166002900480601f01602080910402602001604051908101604052809291908181526020018280546001816001161561010002031660029004801561444a5780601f1061441f5761010080835404028352916020019161444a565b820191906000526020600020905b81548152906001019060200180831161442d57829003601f168201915b5050505050815260200184815260200185815260200186815260200142815260200160008152602001600081526020016000815250905060076000826020015173ffffffffffffffffffffffffffffffffffffffff1673ffffffffffffffffffffffffffffffffffffffff168152602001908152602001600020819080600181540180825580915050906001820390600052602060002090600b0201600090919290919091506000820151816000015560208201518160010160006101000a81548173ffffffffffffffffffffffffffffffffffffffff021916908373ffffffffffffffffffffffffffffffffffffffff160217905550604082015181600201908051906020019061455d929190614f7d565b50606082015181600301908051906020019061457a929190614f7d565b506080820151816004019080519060200190614597929190614f7d565b5060a08201518160050190805190602001906145b4929190614f7d565b5060c08201518160060190805190602001906145d1929190614f7d565b5060e082015181600701556101008201518160080155610120820151816009015561014082015181600a015550505060066000826020015173ffffffffffffffffffffffffffffffffffffffff1673ffffffffffffffffffffffffffffffffffffffff1681526020019081526020016000206006016000815480929190600101919050555060008090505b600a8054905081101561471f57816020015173ffffffffffffffffffffffffffffffffffffffff16600a8281548110151561469357fe5b906000526020600020906009020160000160009054906101000a900473ffffffffffffffffffffffffffffffffffffffff1673ffffffffffffffffffffffffffffffffffffffff16141561471257600a818154811015156146f057fe5b9060005260206000209060090201600601600081548092919060010191905055505b808060010191505061465c565b507f2ba81e7f979c30011f3f378b66c0c2a1ea26d82d285bcccff7c336c1bfb84d2133868587604051614755949392919061594d565b60405180910390a15050505050565b60045481565b60008090505b600a805490508110156149b2578473ffffffffffffffffffffffffffffffffffffffff16600a828154811015156147a357fe5b906000526020600020906009020160000160009054906101000a900473ffffffffffffffffffffffffffffffffffffffff1673ffffffffffffffffffffffffffffffffffffffff1614156149a55783600a8281548110151561480157fe5b906000526020600020906009020160010190805190602001906148259291906150f8565b5082600a8281548110151561483657fe5b9060005260206000209060090201600201908051906020019061485a9291906150f8565b5083600660008773ffffffffffffffffffffffffffffffffffffffff1673ffffffffffffffffffffffffffffffffffffffff16815260200190815260200160002060010190805190602001906148b19291906150f8565b5082600660008773ffffffffffffffffffffffffffffffffffffffff1673ffffffffffffffffffffffffffffffffffffffff16815260200190815260200160002060020190805190602001906149089291906150f8565b506000825111156149a05781600a8281548110151561492357fe5b906000526020600020906009020160030190805190602001906149479291906150f8565b5081600660008773ffffffffffffffffffffffffffffffffffffffff1673ffffffffffffffffffffffffffffffffffffffff168152602001908152602001600020600301908051906020019061499e9291906150f8565b505b6149b2565b8080600101915050614770565b507f5d364ecbacf316d6ec8e1182cae23084565c5c756b7545dc47bcd857ed0493c2338484846040516149e894939291906159a7565b60405180910390a150505050565b600160009054906101000a900473ffffffffffffffffffffffffffffffffffffffff1681565b600073ffffffffffffffffffffffffffffffffffffffff16600660003373ffffffffffffffffffffffffffffffffffffffff1673ffffffffffffffffffffffffffffffffffffffff16815260200190815260200160002060000160009054906101000a900473ffffffffffffffffffffffffffffffffffffffff1673ffffffffffffffffffffffffffffffffffffffff1614151515614af0576040517f08c379a0000000000000000000000000000000000000000000000000000000008152600401614ae790615bcd565b60405180910390fd5b60008090505b600280549050811015614cf15760008090505b60076000600284815481101515614b1c57fe5b9060005260206000200160009054906101000a900473ffffffffffffffffffffffffffffffffffffffff1673ffffffffffffffffffffffffffffffffffffffff1673ffffffffffffffffffffffffffffffffffffffff16815260200190815260200160002080549050811015614ce3578260076000600285815481101515614ba057fe5b9060005260206000200160009054906101000a900473ffffffffffffffffffffffffffffffffffffffff1673ffffffffffffffffffffffffffffffffffffffff1673ffffffffffffffffffffffffffffffffffffffff16815260200190815260200160002082815481101515614c1257fe5b90600052602060002090600b0201600001541415614cd65760076000600284815481101515614c3d57fe5b9060005260206000200160009054906101000a900473ffffffffffffffffffffffffffffffffffffffff1673ffffffffffffffffffffffffffffffffffffffff1673ffffffffffffffffffffffffffffffffffffffff16815260200190815260200160002081815481101515614caf57fe5b90600052602060002090600b02016009016000815480929190600190039190505550614ce3565b8080600101915050614b09565b508080600101915050614af6565b5060008090505b600860003373ffffffffffffffffffffffffffffffffffffffff1673ffffffffffffffffffffffffffffffffffffffff16815260200190815260200160002080549050811015614f0857600860003373ffffffffffffffffffffffffffffffffffffffff1673ffffffffffffffffffffffffffffffffffffffff16815260200190815260200160002081815481101515614d8e57fe5b9060005260206000200154821415614efb57600860003373ffffffffffffffffffffffffffffffffffffffff1673ffffffffffffffffffffffffffffffffffffffff1681526020019081526020016000206001600860003373ffffffffffffffffffffffffffffffffffffffff1673ffffffffffffffffffffffffffffffffffffffff1681526020019081526020016000208054905003815481101515614e3157fe5b9060005260206000200154600860003373ffffffffffffffffffffffffffffffffffffffff1673ffffffffffffffffffffffffffffffffffffffff16815260200190815260200160002082815481101515614e8857fe5b9060005260206000200181905550600860003373ffffffffffffffffffffffffffffffffffffffff1673ffffffffffffffffffffffffffffffffffffffff1681526020019081526020016000208054801515614ee057fe5b60019003818190600052602060002001600090559055614f08565b8080600101915050614cf8565b5050565b6101606040519081016040528060008152602001600073ffffffffffffffffffffffffffffffffffffffff1681526020016060815260200160608152602001606081526020016060815260200160608152602001600081526020016000815260200160008152602001600081525090565b828054600181600116156101000203166002900490600052602060002090601f016020900481019282601f10614fbe57805160ff1916838001178555614fec565b82800160010185558215614fec579182015b82811115614feb578251825591602001919060010190614fd0565b5b509050614ff99190615178565b5090565b828054828255906000526020600020908101928215615076579160200282015b828111156150755782518260006101000a81548173ffffffffffffffffffffffffffffffffffffffff021916908373ffffffffffffffffffffffffffffffffffffffff1602179055509160200191906001019061501d565b5b509050615083919061519d565b5090565b6101606040519081016040528060008152602001600073ffffffffffffffffffffffffffffffffffffffff1681526020016060815260200160608152602001606081526020016060815260200160608152602001600081526020016000815260200160008152602001600081525090565b828054600181600116156101000203166002900490600052602060002090601f016020900481019282601f1061513957805160ff1916838001178555615167565b82800160010185558215615167579182015b8281111561516657825182559160200191906001019061514b565b5b5090506151749190615178565b5090565b61519a91905b8082111561519657600081600090555060010161517e565b5090565b90565b6151dd91905b808211156151d957600081816101000a81549073ffffffffffffffffffffffffffffffffffffffff0219169055506001016151a3565b5090565b90565b60006151ec8235615dd0565b905092915050565b600082601f830112151561520757600080fd5b813561521a61521582615cac565b615c7f565b9150808252602083016020830185838301111561523657600080fd5b615241838284615e22565b50505092915050565b60006152568235615de2565b905092915050565b60006020828403121561527057600080fd5b600061527e848285016151e0565b91505092915050565b6000806000806080858703121561529d57600080fd5b60006152ab878288016151e0565b945050602085013567ffffffffffffffff8111156152c857600080fd5b6152d4878288016151f4565b935050604085013567ffffffffffffffff8111156152f157600080fd5b6152fd878288016151f4565b925050606085013567ffffffffffffffff81111561531a57600080fd5b615326878288016151f4565b91505092959194509250565b60008060006060848603121561534757600080fd5b600084013567ffffffffffffffff81111561536157600080fd5b61536d868287016151f4565b935050602084013567ffffffffffffffff81111561538a57600080fd5b615396868287016151f4565b925050604084013567ffffffffffffffff8111156153b357600080fd5b6153bf868287016151f4565b9150509250925092565b6000602082840312156153db57600080fd5b60006153e98482850161524a565b91505092915050565b6153fb81615dec565b82525050565b61540a81615d94565b82525050565b61541981615d82565b82525050565b600061542a82615d0c565b80845260208401935061543c83615cd8565b60005b8281101561546e57615452868351615410565b61545b82615d4e565b915060208601955060018101905061543f565b50849250505092915050565b600061548582615d17565b8084526020840193508360208202850161549e85615ce5565b60005b848110156154d75783830388526154b9838351615745565b92506154c482615d5b565b91506020880197506001810190506154a1565b508196508694505050505092915050565b60006154f382615d22565b8084526020840193508360208202850161550c85615cf2565b60005b84811015615545578383038852615527838351615818565b925061553282615d68565b915060208801975060018101905061550f565b508196508694505050505092915050565b600061556182615d2d565b80845260208401935061557383615cff565b60005b828110156155a557615589868351615923565b61559282615d75565b9150602086019550600181019050615576565b50849250505092915050565b60006155bc82615d43565b8084526155d0816020860160208601615e31565b6155d981615e64565b602085010191505092915050565b60006155f282615d38565b808452615606816020860160208601615e31565b61560f81615e64565b602085010191505092915050565b6000602c82527f4552524f523a203c596f75206861766520616c7265616479206372656174656460208301527f20616e206163636f756e743e00000000000000000000000000000000000000006040830152606082019050919050565b6000603582527f4552524f523a203c4d7573742063726561746520612070726f66696c6520746f60208301527f20706572666f726d207468697320616374696f6e3e00000000000000000000006040830152606082019050919050565b6000601f82527f4552524f523a203c50726f66696c6520646f6573206e6f742065786973743e006020830152604082019050919050565b6000601782527f4552524f523a203c557365726e616d652074616b656e3e0000000000000000006020830152604082019050919050565b60006101208301600083015161575e6000860182615410565b506020830151848203602086015261577682826155e7565b9150506040830151848203604086015261579082826155e7565b915050606083015184820360608601526157aa82826155e7565b91505060808301516157bf6080860182615923565b5060a08301516157d260a0860182615923565b5060c08301516157e560c0860182615923565b5060e08301516157f860e0860182615923565b5061010083015161580d610100860182615923565b508091505092915050565b6000610160830160008301516158316000860182615923565b5060208301516158446020860182615401565b506040830151848203604086015261585c82826155e7565b9150506060830151848203606086015261587682826155e7565b9150506080830151848203608086015261589082826155e7565b91505060a083015184820360a08601526158aa82826155e7565b91505060c083015184820360c08601526158c482826155e7565b91505060e08301516158d960e0860182615923565b506101008301516158ee610100860182615923565b50610120830151615903610120860182615923565b50610140830151615918610140860182615923565b508091505092915050565b61592c81615dc6565b82525050565b60006020820190506159476000830184615410565b92915050565b60006080820190506159626000830187615401565b818103602083015261597481866155b1565b9050818103604083015261598881856155b1565b9050818103606083015261599c81846155b1565b905095945050505050565b60006080820190506159bc60008301876153f2565b81810360208301526159ce81866155b1565b905081810360408301526159e281856155b1565b905081810360608301526159f681846155b1565b905095945050505050565b6000606082019050615a1660008301866153f2565b615a236020830185615923565b615a306040830184615923565b949350505050565b600061012082019050615a4e600083018c615410565b8181036020830152615a60818b6155e7565b90508181036040830152615a74818a6155e7565b90508181036060830152615a8881896155e7565b9050615a976080830188615923565b615aa460a0830187615923565b615ab160c0830186615923565b615abe60e0830185615923565b615acc610100830184615923565b9a9950505050505050505050565b6000604082019050615aef6000830185615410565b615afc6020830184615923565b9392505050565b60006020820190508181036000830152615b1d818461541f565b905092915050565b60006020820190508181036000830152615b3f818461547a565b905092915050565b60006020820190508181036000830152615b6181846154e8565b905092915050565b60006020820190508181036000830152615b838184615556565b905092915050565b60006020820190508181036000830152615ba581846155e7565b905092915050565b60006020820190508181036000830152615bc68161561d565b9050919050565b60006020820190508181036000830152615be68161567a565b9050919050565b60006020820190508181036000830152615c06816156d7565b9050919050565b60006020820190508181036000830152615c268161570e565b9050919050565b6000602082019050615c426000830184615923565b92915050565b6000606082019050615c5d6000830186615923565b615c6a6020830185615401565b615c776040830184615923565b949350505050565b6000604051905081810181811067ffffffffffffffff82111715615ca257600080fd5b8060405250919050565b600067ffffffffffffffff821115615cc357600080fd5b601f19601f8301169050602081019050919050565b6000602082019050919050565b6000602082019050919050565b6000602082019050919050565b6000602082019050919050565b600081519050919050565b600081519050919050565b600081519050919050565b600081519050919050565b600081519050919050565b600081519050919050565b6000602082019050919050565b6000602082019050919050565b6000602082019050919050565b6000602082019050919050565b6000615d8d82615da6565b9050919050565b6000615d9f82615da6565b9050919050565b600073ffffffffffffffffffffffffffffffffffffffff82169050919050565b6000819050919050565b6000615ddb82615da6565b9050919050565b6000819050919050565b6000615df782615dfe565b9050919050565b6000615e0982615e10565b9050919050565b6000615e1b82615da6565b9050919050565b82818337600083830152505050565b60005b83811015615e4f578082015181840152602081019050615e34565b83811115615e5e576000848401525b50505050565b6000601f19601f830116905091905056fea265627a7a7230582063ba12558ca7c8489bb51b253925d09cea8be0a6f358d997b1a71975464c90006c6578706572696d656e74616cf50037",
  "source": "pragma solidity ^0.5.0;\npragma experimental ABIEncoderV2;\n\ncontract Decentragram {\n    string public contractName;\n    address public admin;\n    address[] internal addresses;\n    mapping(string => address) internal names;\n\n    //Generating ID\n    uint256 public _postID;\n    uint256 public _userID;\n\n    // Profile\n    struct Profile {\n        address owner;\n        string username;\n        string biography;\n        string profilePictureURL;\n        uint timeCreated;\n        uint id;\n        uint postCount;\n        uint followerCount;\n        uint followingCount;\n        address[] followers;\n        address[] following;\n    }\n\n    struct Post {\n        uint postId;\n        address payable author;\n        string username;\n        string profilePictureURL;\n        string postType;\n        string postURL;\n        string postDescription;\n        uint timeCreated;\n        uint tipAmount;\n        uint likes;\n        uint dislikes;\n    }\n\n    struct AllUserStruct {\n        address owner;\n        string username;\n        string biography;\n        string profilePictureURL;\n        uint timeCreated;\n        uint id;\n        uint postCount;\n        uint followerCount;\n        uint followingCount;\n    }\n\n    // to map from the user account address to related profile struct\n    mapping(address => Profile) public profiles;\n    // to map from the user's account address to the array of related posts created\n    mapping(address => Post[]) internal posts;\n    // to map from the user's account address to the array of post ids that the user liked\n    mapping(address => uint[]) internal likedPosts;\n    // to map from the user's account address to the array of post ids that the user disliked\n    mapping(address => uint[]) internal dislikedPosts;\n    // array to store all the registered users\n    AllUserStruct[] getAllUsers;\n    // array to store all the created posts by users\n    Post[] allPosts;\n\n    // Events\n\n    event AccountCreated(\n        address owner,\n        string username,\n        string biography,\n        string profilePictureURL\n    );\n\n    event PostCreated(\n        address payable author,\n        string postDescription,\n        string postType,\n        string postURL\n    );\n\n    event PostLiked(address userWhoLike, uint256 postID, uint256 likeCount);\n\n    event PostDisliked(\n        address userWhoDislike,\n        uint256 postID,\n        uint256 dislikeCount\n    );\n\n    event PostTipped(uint postId, address payable author, uint tipAmount);\n\n    event UserFollowed(address accountAddress, uint followerCount);\n\n    // Check if message sender has a created profile\n    modifier senderHasProfile() {\n        require(\n            profiles[msg.sender].owner != address(0x0),\n            \"ERROR: <Must create a profile to perform this action>\"\n        );\n        _;\n    }\n\n    // Check if a specified address has created a profile\n    modifier profileExists(address _address) {\n        require(\n            profiles[_address].owner != address(0x0),\n            \"ERROR: <Profile does not exist>\"\n        );\n        _;\n    }\n\n    // Check that the message sender is not specifying an address that is itself\n    modifier notSelf(address _address) {\n        require(\n            msg.sender != _address,\n            \"ERROR <You cannot follow/unfollow yourself\"\n        );\n        _;\n    }\n\n    constructor() public {\n        contractName = \"Decentragram\";\n        admin = msg.sender;\n    }\n\n    // Create a new user account\n    function createAccount(\n        string memory _username,\n        string memory _biography,\n        string memory _profilePictureURL\n    ) public {\n        // Checks that the current account address did not already make a user account\n        require(\n            profiles[msg.sender].owner == address(0x0),\n            \"ERROR: <You have already created an account>\"\n        );\n        // Checks that the current account address did not choose a taken username\n        require(names[_username] == address(0x0), \"ERROR: <Username taken>\");\n        //Increment User ID\n        _userID++;\n        uint256 userID = _userID;\n\n        // Updates username list\n        names[_username] = msg.sender;\n\n        // Create the new profile object and add it to \"profiles\" mapping\n        profiles[msg.sender] = Profile({\n            owner: msg.sender,\n            username: _username,\n            biography: _biography,\n            profilePictureURL: _profilePictureURL,\n            timeCreated: block.timestamp,\n            id: userID,\n            postCount: 0,\n            followerCount: 0,\n            followingCount: 0,\n            followers: new address[](0x0),\n            following: new address[](0x0)\n        });\n\n        // Add address to list of global addresses\n        addresses.push(msg.sender);\n\n        getAllUsers.push(\n            AllUserStruct(\n                msg.sender,\n                _username,\n                _biography,\n                _profilePictureURL,\n                block.timestamp,\n                userID,\n                0,\n                0,\n                0\n            )\n        );\n        emit AccountCreated(\n            msg.sender,\n            _username,\n            _biography,\n            _profilePictureURL\n        );\n    }\n\n    function editProfile(\n        address _address,\n        string memory _username,\n        string memory _biography,\n        string memory _profilePictureURL\n    ) public {\n        for (uint i = 0; i < getAllUsers.length; i++) {\n            if (getAllUsers[i].owner == _address) {\n                getAllUsers[i].username = _username;\n                getAllUsers[i].biography = _biography;\n                profiles[_address].username = _username;\n                profiles[_address].biography = _biography;\n                if (bytes(_profilePictureURL).length > 0) {\n                    getAllUsers[i].profilePictureURL = _profilePictureURL;\n                    profiles[_address].profilePictureURL = _profilePictureURL;\n                }\n                break;\n            }\n        }\n        emit AccountCreated(\n            msg.sender,\n            _username,\n            _biography,\n            _profilePictureURL\n        );\n    }\n\n    // Follow a new profile\n    function follow(address _address) external senderHasProfile {\n        // Add element to \"followers\" and \"following\" arrays in both Profile objects\n        profiles[_address].followers.push(msg.sender);\n        profiles[msg.sender].following.push(_address);\n\n        // Increment \"followerCount\" and \"followingCount\" in both Profile objects\n        profiles[_address].followerCount++;\n        profiles[msg.sender].followingCount++;\n\n        // Increment \"followerCount\" and \"followingCount\" in both All Users objects\n        for (uint256 i = 0; i < getAllUsers.length; i++) {\n            if (getAllUsers[i].owner == _address) {\n                getAllUsers[i].followerCount++;\n            }\n            if (getAllUsers[i].owner == msg.sender) {\n                getAllUsers[i].followingCount++;\n            }\n        }\n\n        emit UserFollowed(_address, profiles[_address].followerCount);\n    }\n\n    // Unfollow a profile\n    function unfollow(address _address) external {\n        // Delete element from \"followers\" array in Profile object and decrement followerCount\n        for (uint i = 0; i < profiles[_address].followerCount; i++) {\n            if (profiles[_address].followers[i] == msg.sender) {\n                profiles[_address].followers[i] = profiles[_address].followers[\n                    profiles[_address].followers.length - 1\n                ];\n                profiles[_address].followers.pop();\n                profiles[_address].followerCount--;\n                break;\n            }\n        }\n\n        // Delete element from \"following\" array in Profile object and decrement followingCount\n        for (uint i = 0; i < profiles[msg.sender].followingCount; i++) {\n            if (profiles[msg.sender].following[i] == _address) {\n                profiles[msg.sender].following[i] = profiles[msg.sender]\n                    .following[profiles[msg.sender].following.length - 1];\n                profiles[msg.sender].following.pop();\n                profiles[msg.sender].followingCount--;\n                break;\n            }\n        }\n\n        // Decrement \"followerCount\" and \"followingCount\" in both All Users objects\n        for (uint256 i = 0; i < getAllUsers.length; i++) {\n            if (getAllUsers[i].owner == _address) {\n                getAllUsers[i].followerCount--;\n            }\n            if (getAllUsers[i].owner == msg.sender) {\n                getAllUsers[i].followingCount--;\n            }\n        }\n    }\n\n    //Create a Post\n    function createPost(\n        string memory _postDescription,\n        string memory _postURL,\n        string memory _postType\n    ) public senderHasProfile {\n        _postID++;\n        uint256 postID = _postID;\n\n        Post memory newPost = Post({\n            postId: postID,\n            author: msg.sender,\n            username: profiles[msg.sender].username,\n            profilePictureURL: profiles[msg.sender].profilePictureURL,\n            postType: _postType,\n            postURL: _postURL,\n            postDescription: _postDescription,\n            timeCreated: block.timestamp,\n            tipAmount: 0,\n            likes: 0,\n            dislikes: 0\n        });\n\n        // Add entry to \"posts\" mappings\n        posts[newPost.author].push(newPost);\n\n        // Increment \"postCount\" in Profile object\n        profiles[newPost.author].postCount++;\n        // Increment \"postCount\" in All User object\n        for (uint256 i = 0; i < getAllUsers.length; i++) {\n            if (getAllUsers[i].owner == newPost.author) {\n                getAllUsers[i].postCount++;\n            }\n        }\n\n        emit PostCreated(msg.sender, _postDescription, _postType, _postURL);\n    }\n\n    // like post\n    function likePost(uint256 _postId) external senderHasProfile {\n        for (uint i = 0; i < addresses.length; i++) {\n            for (uint j = 0; j < posts[addresses[i]].length; j++) {\n                if (posts[addresses[i]][j].postId == _postId) {\n                    posts[addresses[i]][j].likes++;\n                    likedPosts[msg.sender].push(_postId);\n                    emit PostLiked(\n                        msg.sender,\n                        posts[addresses[i]][j].postId,\n                        posts[addresses[i]][j].likes\n                    );\n                    break;\n                }\n            }\n        }\n    }\n    // Unlike post\n    function unlikePost(uint256 _postId) external senderHasProfile {\n        for (uint i = 0; i < addresses.length; i++) {\n            for (uint j = 0; j < posts[addresses[i]].length; j++) {\n                if (posts[addresses[i]][j].postId == _postId) {\n                    posts[addresses[i]][j].likes--;\n                    break;\n                }\n            }\n        }\n        for (uint i = 0; i < likedPosts[msg.sender].length; i++) {\n            if (_postId == likedPosts[msg.sender][i]) {\n                likedPosts[msg.sender][i] = likedPosts[msg.sender][\n                    likedPosts[msg.sender].length - 1\n                ];\n                likedPosts[msg.sender].pop();\n                break;\n            }\n        }\n    }\n\n    // dislike post\n    function dislikePost(uint256 _postId) external senderHasProfile {\n        for (uint i = 0; i < addresses.length; i++) {\n            for (uint j = 0; j < posts[addresses[i]].length; j++) {\n                if (posts[addresses[i]][j].postId == _postId) {\n                    posts[addresses[i]][j].dislikes++;\n                    dislikedPosts[msg.sender].push(_postId);\n                    break;\n                }\n            }\n        }\n    }\n\n    // undislike post\n    function undislikePost(uint256 _postId) external senderHasProfile {\n        for (uint i = 0; i < addresses.length; i++) {\n            for (uint j = 0; j < posts[addresses[i]].length; j++) {\n                if (posts[addresses[i]][j].postId == _postId) {\n                    posts[addresses[i]][j].dislikes--;\n                    break;\n                }\n            }\n        }\n        for (uint i = 0; i < dislikedPosts[msg.sender].length; i++) {\n            if (_postId == dislikedPosts[msg.sender][i]) {\n                dislikedPosts[msg.sender][i] = dislikedPosts[msg.sender][\n                    dislikedPosts[msg.sender].length - 1\n                ];\n                dislikedPosts[msg.sender].pop();\n                break;\n            }\n        }\n    }\n\n    // tip post\n    function tipPost(uint256 _postId) external payable senderHasProfile {\n        for (uint i = 0; i < addresses.length; i++) {\n            for (uint j = 0; j < posts[addresses[i]].length; j++) {\n                if (posts[addresses[i]][j].postId == _postId) {\n                    address payable _author = posts[addresses[i]][j].author;\n                    address(_author).transfer(msg.value);\n                    posts[addresses[i]][j].tipAmount =\n                        posts[addresses[i]][j].tipAmount +\n                        msg.value;\n                    emit PostTipped(\n                        posts[addresses[i]][j].postId,\n                        posts[addresses[i]][j].author,\n                        posts[addresses[i]][j].tipAmount\n                    );\n                    break;\n                }\n            }\n        }\n    }\n\n    // Return all registered users\n    function getAllAppUser() public view returns (AllUserStruct[] memory) {\n        return getAllUsers;\n    }\n\n    // Returns all posts from a given address\n    function getPosts(\n        address _address\n    ) external view profileExists(_address) returns (Post[] memory) {\n        return posts[_address];\n    }\n\n    function getLikedPostIDs(\n        address _address\n    ) external view returns (uint[] memory) {\n        return likedPosts[_address];\n    }\n\n    function getDislikedPostIDs(\n        address _address\n    ) external view returns (uint[] memory) {\n        return dislikedPosts[_address];\n    }\n\n    // Returns total user count\n    function getUserCount() external view returns (uint) {\n        return addresses.length;\n    }\n\n    // Returns all registered addresses\n    function getAddresses() external view returns (address[] memory) {\n        return addresses;\n    }\n\n    // Get all followers of a specific address\n    function getFollowers(\n        address _address\n    ) external view profileExists(_address) returns (address[] memory) {\n        return profiles[_address].followers;\n    }\n\n    // Get all followed accounts of a specific address\n    function getFollowing(\n        address _address\n    ) external view returns (address[] memory) {\n        return profiles[_address].following;\n    }\n\n    function getAllPosts() public view returns (Post[] memory) {\n        uint256 itemCount = 0;\n        for (uint256 i = 0; i < addresses.length; i++) {\n            itemCount += posts[addresses[i]].length;\n        }\n\n        Post[] memory items = new Post[](itemCount);\n        uint256 currentIndex = 0;\n\n        for (uint256 i = 0; i < addresses.length; i++) {\n            for (uint j = 0; j < posts[addresses[i]].length; j++) {\n                items[currentIndex] = posts[addresses[i]][j];\n                currentIndex += 1;\n            }\n        }\n        return items;\n    }\n}\n",
  "sourcePath": "/Users/myothiha/Dev/projects/dapp_final_year/src/contracts/Decentragram.sol",
  "compiler": {
    "name": "solc",
    "version": "0.5.0+commit.1d4f565a.Emscripten.clang"
  },
  "schemaVersion": "3.0.2",
  "updatedAt": "2024-04-23T17:52:38.330Z",
  "devdoc": {
    "methods": {}
  },
  "userdoc": {
    "methods": {}
  }
}